:020000040800F2
:1000000048650020A1010008E13A00089D3700087A
:10001000DD3A000891190008358100080000000051
:100020000000000000000000000000005F44000825
:100030004931000800000000993E0008254B0008E7
:10004000BB010008BB010008BB010008BB010008A0
:10005000BB010008BB010008BB010008BB01000890
:10006000BB010008BB010008BB010008BB01000880
:10007000BB010008BB010008BB010008BB01000870
:10008000BB010008B52D0008BB010008BB0100083A
:10009000E91A0008BB010008BB010008BB01000809
:1000A000BB010008514E0008BB010008BB0100085D
:1000B000BB010008BB010008BB010008BB01000830
:1000C000BB010008BB010008BB010008BB01000820
:1000D000BB010008BB01000861590008BB01000812
:1000E000BB010008BB010008693E0008BB01000815
:1000F000BB01000849530008BB010008BB01000810
:10010000BB010008BB010008BB010008BB010008DF
:10011000BB010008BB010008BB0100083551000805
:10012000BB010008BB010008BB010008BB010008BF
:10013000BB010008BB010008BB010008BB010008AF
:10014000BB010008BB010008BB010008593E0008C4
:10015000BB010008BB010008BB010008BB0100088F
:10016000BB010008BB010008BB010008BB0100087F
:10017000BB010008BB010008BB010008BB0100086F
:10018000BB010008BB010008DFF810D000F07AFEC8
:1001900000480047CDAE0008AFF30080486500205E
:1001A0000648804706480047FEE7FEE7FEE7FEE711
:1001B000FEE7FEE7FEE7FEE7FEE7FEE7294B000865
:1001C0008901000840EA01039B0703D009E008C940
:1001D000121F08C0042AFAD203E011F8013B00F80C
:1001E000013B521EF9D27047D2B201E000F8012B58
:1001F000491EFBD270470022F6E710B513460A46A7
:1002000004461946FFF7F0FF204610BD30B50546FD
:100210002A460B4612F8010B13F8014B08B1A04215
:10022000F8D01CB1002802D06D1CF1E7284630BD83
:100230000FB400B58DB010A909900B9000914FF04C
:10024000FF300A9000200C90054806900548079062
:100250006A4609A80F9900F0F5FA0DB05DF814FB95
:10026000610800087F0800082DE9FF5F1D464FF078
:10027000FF3BD5E9014691465F464FF00008A9696A
:100280007F1C01988847296A824688470028F6D152
:10029000BAF1FF3F0CD024F4C064002E19DD6006D3
:1002A00014D5BAF12B0F09D0BAF12D0F0ED103E0FE
:1002B000584604B0BDE8F09F44F48064A9697F1CEF
:1002C00001988847761E8246002E02DDBAF1300F73
:1002D00003D0B9F1000F26D032E0A969761E44F4AC
:1002E00000747F1C019888478246002E05DDBAF114
:1002F000780F06D0BAF1580F03D0B9F1000F10D023
:100300001EE0B9F1000F02D0B9F1100F18D1A969A0
:10031000761E24F400747F1C0198884782461020C2
:1003200002E0082000E00A20814609E008FB0908F5
:10033000A969761E44F400747F1C019888478246A0
:10034000002E05DD4946504600F067FA0028EDDA38
:10035000E96901988847A00502D46FF00100A8E779
:10036000E00725D1600613D5600502D5C8F100006D
:1003700000E0404629680A1D2A600968220501D567
:10038000087015E0220701D5088011E008600FE031
:100390002868011D29600068210502D580F80080C9
:1003A00006E0210702D5A0F8008001E0C0F8008037
:1003B00038467EE72DE9FF4F087883B09946FF283D
:1003C00005D0491C2D2804D00024002008E000207E
:1003D0000BE00124F9E700EB800003EB4000491C2F
:1003E0000B78FF2BF7D104B140420023029314781D
:1003F00019461D462D2C01D02B2C04D1521C2D2C1E
:1004000013D000240294AA461478FF2C0FD00A259A
:10041000A3FB057801FB05814FF0000C03FB0C11D9
:10042000521CE3194AEB0101EEE70124EAE781449B
:1004300053EA010002D019F5C87F06DA03980021BB
:10044000C0E9001107B0BDE8F08F0025AE4E2F4681
:10045000DFF8B882184600F0D7FCCDE90001B9F109
:10046000000002DAC9F1000400E004460023A74AB4
:100470001AEB030B42EB045A12E0E00707D02A46BE
:1004800033463846414600F08DFB074688462A46EB
:1004900033461046194600F085FB05460E466410AB
:1004A000002CEAD1DDE90001B9F1000F5A465346AC
:1004B00006DA00F0E9FB3A46434600F0E5FB05E0CA
:1004C00000F070FB3A46434600F06CFB029A0AB11A
:1004D00081F00041039AC2E90001B3E72DE9FF4F23
:1004E0001F468DB0D7E901464FF0FF382E20454614
:1004F0004FF000090B90B9696D1C0E988847396A56
:10050000824688470028F6D1BAF1FF3F0AD024F48A
:10051000D064002E11DDBAF12B0F08D0BAF12D0FE7
:100520000BD102E0404611B08DE744F48064B96914
:100530006D1C0E9888478246761E6946600501D577
:100540002D2000E02B208DF8000001F1010B0DF1B2
:10055000200809E0B9696D1C0E98884782460F98FB
:1005600044F40074761E0560002E02DDBAF1300FEF
:10057000F0D00B998A453ED144F0800406E00F99F3
:10058000681CA9F1010944F400740860B9696D1C84
:10059000761E0E98884782463028F0D02BE00B99C3
:1005A0008A4505D1200603D444F08004761E18E065
:1005B000504608F0CDF908B30DF11301761E44F44E
:1005C00000748B4508D2AAF130000BF8010B20060D
:1005D00007D5A9F1010003E0200602D409F10100CA
:1005E0008146A00502D50F99681C0860B9696D1C89
:1005F0000E9888478246002ED1DC53E0002E51DD54
:10060000BAF1650F02D0BAF1450F4BD1A00549D51B
:10061000B9696D1C24F44074761E0E988847824692
:10062000002E0CDD2B2804D0BAF12D0F07D144F495
:100630008074B9696D1C0E9888478246761EE00565
:1006400001D52D2100E02B2108F8011BCDF82C80CD
:1006500021E00DF12901761E44F4007488450CD286
:10066000AAF1300010F0FF0088F8000002D10B99C9
:10067000884509D908F1010806E0E00501D52448BC
:1006800001E042F20F708146B9696D1C0E988847EF
:1006900082460F980560002E04DD504608F058F998
:1006A0000028D6D1F9690E988847FF208BF8000002
:1006B00088F800000020069007904B466A4608A97B
:1006C00006A8FFF777FEA00502D46FF001002AE725
:1006D00014F0240F0AD0E00714D1DDE906123868BF
:1006E000031D3B600068C0E900120BE0DDE9060174
:1006F00000F030F80146E00704D13868021D3A6086
:100700000068016028460EE7000014400000F03F3A
:10071000F1D8FFFF70B5064607F0D8FE046805461D
:100720000A220021304600F009F92C6070BD00F06B
:10073000004230F000400AD0C10D01F56071C0F3F5
:10074000160042EA0151C2084007114370470020D9
:100750000146704701F0004330B421F0004150EAF7
:10076000010206D00A0DA2F56072C1F31301002A3E
:1007700002DC30BC00207047440F44EAC104C100D1
:10078000E01830BC00EBC25000F010B930B50B4699
:10079000014600202022012409E021FA02F59D42B1
:1007A00005D303FA02F5491B04FA02F52844151E85
:1007B000A2F10102F1DC30BD2DE9F05F0546002019
:1007C00092469B4688460646814640241BE02846C2
:1007D00041464746224600F076FB53465A46C01A29
:1007E000914110D311461846224600F05DFB2D1AA8
:1007F00067EB01084F4622460120002100F054FB20
:1008000017EB00094E41201EA4F10104DFDC48462D
:1008100031462A464346BDE8F09F3A2800D2303898
:1008200020F02002412A01D3A2F13700884201D3EF
:100830004FF0FF30704700000268114413780160E8
:1008400018467047D1600449516104491162002182
:100850001161114600F068BB39080008150F000847
:10086000426842B1016811F8013B23B1521EC0E950
:100870000012184670470121C160881E7047426807
:100880005AB1C368016843B983688B4205D0491ED9
:10089000521CC0E90012002070474FF0FF30704733
:1008A0000FB4002300B589B00CA900910B996FF02B
:1008B0000042CB601E4B06931E4B07930423CDE9E9
:1008C00001321D4A089202466B460020FFF706FEE1
:1008D00009B05DF814FB70B586B006464FF0FF30E6
:1008E0000091CDE90101002015460C4604903246E6
:1008F000694604A8FFF7D4FF02460498211825B1E1
:1009000008B1084600E020462860049800280DD071
:10091000002A02DD0098884208D0081B0094CDE927
:1009200001043246694604A8FFF7BAFF06B070BD5D
:10093000610800087F080008150F00082DE9F0473E
:1009400091460F4680460446002614F8015B2DB1FF
:1009500000F0DCFA0068405DC007F6D12B2D02D014
:100960002D2D18D0641E4A463946204600F074FCEE
:1009700027B13968A14201D1C7F8008071054FF055
:1009800002040BD54042002803DD07F09FFD046000
:10099000A007BDE8F08746F48066E4E70028F8DAAF
:1009A00007F094FD04606FF00040F2E70029A8BF53
:1009B0007047401C490008BF20F00100704710B488
:1009C000B0FA80FC00FA0CF050EA010404BF10BC3D
:1009D000704749B1CCF1200421FA04F411FA0CF16A
:1009E00018BF012121430843A3EB0C01CB1D4FEAA3
:1009F00000614FEA102042BF002010BC704700EB9E
:100A0000C35010440029A4BF10BC7047401C4900CB
:100A100008BF20F0010010BC704710B541000CD099
:100A2000C0F3C751962908DC7E2909DC06DB4102A8
:100A300004D000F0004040F07E5010BD002010BDFA
:100A4000C1F19604C4F1200100FA01F1E040FFF782
:100A5000ADFFA04010BD2DE9FE4F804681EA0300A6
:100A6000C00F0C46009021F0004123F00045B8EB88
:100A70000200A94105D24046214690461C460B463D
:100A8000024623F00040104347D0270DC7F30A0069
:100A9000C3F30A510290401A019040286BDAC3F365
:100AA000130040F4801B0098924620B10023D2EB43
:100AB000030A63EB0B0B01985946C0F14002504604
:100AC00000F0F2F906460D4650465946019A00F0EC
:100AD0000AFA10EB08006141002487EA115284EA07
:100AE000E7731A4340D0009A62B3019A012A4FEA91
:100AF000075215DC001B61EB02014FF0004202EAD5
:100B00000752CDE90042001C41F5801132462B46C8
:100B100000F000FC03B0BDE8F08F40462146F9E745
:100B2000001B61EB0201001C41F5801300185B41C2
:100B30002018A2F5001747EB030140EAD570B6195B
:100B40006D4111E06D084FEA360645EAC0754FEA7F
:100B50000752001B61EB0201001C41F5801149089E
:100B60004FEA30000019514132462B4603B0BDE830
:100B7000F04F00F0C0BB0098012240000023D0EBF2
:100B8000020263EBE073009821464FEAE074B8EB91
:100B9000000061EB0401E9E783F000435BE781F0CB
:100BA000004158E72DE9FE4F81EA030404F00044B8
:100BB00021F0004100944FF0000B23F0004350EA75
:100BC00001045ED052EA03045BD0C3F30A54C1F3BC
:100BD0000A552C44A4F2F3340194A0FB0254C1F34F
:100BE000130141F48011C3F3130343F4801301FB99
:100BF000024400FB034E840A970A44EA815447EA00
:100C00008357A4FB076802958D0A05FB07854FEA09
:100C1000932C04FB0C542705029D4FEA065847EA23
:100C20001637B5EB08056EEB070C870E920E47EAF8
:100C3000811742EA8312A7FB0201B6EB0B0164EBBA
:100C400000042B0D43EA0C335E1844EB1C50DA46CB
:100C50005146E7FB0201C5F313044FEA0B3343EAA5
:100C600014534FEA0432019C43EA0603A4F10C0436
:100C70000294009CCDE900B400F04CFB03B0BDE849
:100C8000F08F00200146F9E72DE9F04D81EA0304D9
:100C900004F0004B21F0004514464FF0000A23F009
:100CA000004150EA050220D054EA01021DD0C5F3EC
:100CB0000A570246C5F31303C1F31300C1F30A56E2
:100CC00040F4801543F48013A7EB0608101BD646AA
:100CD00008F2FD3873EB050002D308F1010801E0CA
:100CE00092185B41B8F1000F03DA00200146BDE81D
:100CF000F08D00204FF48011064684460EE0171B4D
:100D000073EB050705D3121B63EB050306434CEA9F
:100D1000010C49084FEA300092185B4150EA010784
:100D2000EDD152EA030012D082EA040083EA050101
:100D3000084305D0101BAB4106D20122002306E078
:100D400000224FF0004302E06FF0010253101AEB53
:100D500006004CEB085110EB0A0041EB0B01BDE81B
:100D6000F04D00F0C8BA2DE9F04D00231A461B1AC9
:100D70008A4103DB00200146BDE8F08DC1F30A5231
:100D8000C1F3130141F480154FF0000BD10702D1DC
:100D900000186D41521E0027044640F2FF113846EC
:100DA00001EB620A3E468046024600204FF4801165
:100DB00000F089F8C2197141BB1846EB0100B4EB91
:100DC000030C75EB000C04D3E41A65EB0005174621
:100DD0000E46241908F101006D4180463428E3DDF8
:100DE000F91946EB0600091BA84103D24FF0FF3268
:100DF000134601E0002213461BEB070046EB0A51A5
:100E0000BDE8F04D00F077BA0EB540F233420292E1
:100E10000022CDE90022134600F07CFA03B000BDA9
:100E2000C1F30A52C1F3130140F2FF3341F48011C0
:100E30009A4202DA00200146704740F233439A4258
:100E4000A2F2334202DC524200F03DB800F02CB86E
:100E500030B5041E71F1000404DB4FF00044404241
:100E600064EB0101141E73F1000405DB1C464FF016
:100E70000043524263EB0403994208BF904230BDE5
:100E800000207047064C074D06E0E06840F0010383
:100E900094E8070098471034AC42F6D3FFF778F98E
:100EA000D0CB0008F0CB0008202A04DB203A00FA5F
:100EB00002F1002070479140C2F1200320FA03F3B1
:100EC000194390407047202A04DB203A21FA02F0AF
:100ED0000021704721FA02F3D040C2F12002914074
:100EE000084319467047202A06DBCB17203A41FAFF
:100EF00002F043EAE07306E041FA02F3D040C2F1A7
:100F0000200291400843194670470000004870478E
:100F1000CCCB000810B50446FFF7F8FF0068005D71
:100F200000F0010010BD00002DE9F34F8BB04FF031
:100F3000000801F10C000C464FF0010B46460DF184
:100F4000080A01906269012101989047051E2DD081
:100F5000252D2CD0216A8847C0B1626901210198F2
:100F60009047216A88470028F7D1411E626901989D
:100F7000904700E0761CA1690B988847216A884752
:100F80000028F7D1E1690B988847DBE7A1690B9846
:100F900088470746A84201D1761CD3E7E1690B9840
:100FA00088477F1C02D1B8F1000F6FD047E10027BE
:100FB00062693D463946019890472A2804D1626902
:100FC0000121019890470125DFF88892626901218B
:100FD00001989047A0F130010A290AD24F45E5DC7B
:100FE00007EB870100EB4107303FDFD445F01005E8
:100FF000ECE7E90601D46FF000476C280AD04C28D2
:1010000014D0682815D06A280DD074281CD07A28EE
:101010001AD01DE062690121019890476C2802D026
:1010200045F0040514E045F002050DE045F020050B
:101030000AE06269012101989047682802D045F0D2
:10104000080505E045F400656269012101989047B3
:10105000C4E9015765283DD019DC58287AD00CDC4A
:10106000452837D004DC252826D0412831D131E06D
:1010700046282FD047282CD12CE05B2877D0612838
:1010800028D063287CD0642823D15AE0D1E06F288F
:1010900048D008DC66281DD067281BD0692821D0DD
:1010A0006E2816D127E0702845D0732868D075289F
:1010B00047D078280DD14DE0A1690B9888470546A7
:1010C00025283FF469AFE1690B9888476D1C3FF410
:1010D0006AAFB4E023466A466FF001000B99FFF750
:1010E000FDF99FE045F040006060A80723464FF0FF
:1010F000000236D43EE0E8077FF447AF2068011DC8
:1011000021600068290501D506701BE7290701D574
:10111000068017E7A90703D5F117C0E9006111E7B9
:1011200006600FE745F040006060A80723464FF0D7
:10113000080216D41EE040F60E0125EA01006060A8
:1011400016E045F040006060A80723464FF00A0211
:1011500007D40FE045F040006060A80708D523469B
:1011600010226FF001000B99AFF300805AE007E006
:10117000234610226FF001000B99FFF775F851E03C
:101180004FF000094F464B46632802D05B2807D03A
:1011900041E02079C00601D40120A06001273AE097
:1011A00062690121019890475E2805D14FF001093D
:1011B0006269494601989047216939B900210A4678
:1011C000534643F82120491C0829FADBB0B32169B2
:1011D00069B9C11700EBD16253110AEB830122F008
:1011E0001F02821A01200B68904003430B60626962
:1011F0000121019890475D28E8D1B9F1000F09D08D
:101200000020514651F82020D24341F82020401CB4
:101210000828F7DB02AB224600976FF001000B991C
:10122000AFF3008000280CDA401C08D1BBF1000F9E
:1012300005D04FF0FF300DB0BDE8F08FFFE740461E
:10124000F9E7E90701D108F1010806444FF0000B66
:1012500078E60000CCCCCC0C2DE9F05F824600781B
:10126000002715468B460AF10104B946302801D003
:101270009DB113E014F8010B0127782803D05828FA
:1012800001D045B10AE00DB1102D07D1002710257E
:1012900014F8010B02E0082500E00A250026B046FC
:1012A0000EE005FB080005FB06F1012701EB1046E7
:1012B0001FFA80F8B6F5803F00D3B94614F8010B49
:1012C0002946FFF7AAFA0028EBDABBF1000F05D098
:1012D0000FB1641E00E05446CBF80040B9F1000F96
:1012E00006D007F0F3F802210160C81EBDE8F09FA8
:1012F00048EA0640FAE710B5141E73F1000408DA54
:10130000401C41F1000192185B411A4301D120F0C9
:10131000010010BD2DE9F04D92469B4611B1B1FA86
:1013200081F202E0B0FA80F220329046FFF7BCFD75
:1013300004460F4640EA0A0041EA0B0153465A466A
:10134000084313D0114653EA010019D0C8F14002F6
:101350005046FFF7B8FD05460E46504659464246F0
:10136000FFF7A2FD084305D0012004E020463946DE
:10137000BDE8F08D0020054346EAE0762C43374374
:101380000A986305E40AA0EB08000022FD0A44EA7B
:1013900047540A3002D500200146E9E7010510193B
:1013A0006941DDE9084500196941BDE8F04DA2E752
:1013B00070B58C1810F8015B15F0070301D110F817
:1013C000013B2A1106D110F8012B03E010F8016B44
:1013D00001F8016B5B1EF9D12B0705D40023521EC7
:1013E0000DD401F8013BFAE710F8013BCB1A921C2F
:1013F00003E013F8015B01F8015B521EF9D5A1422D
:10140000D8D3002070BD000000B595B0012188053B
:1014100002F044FD0121080202F080FD0020069048
:1014200048480790484808900020099004200A90F6
:1014300000200B904FF480600C9040000D908000D5
:101440000E9040110F90400210900020119001204A
:10145000129000201390149006A93C4801F0D0FD92
:1014600001213A4801F0D4FC0020009001208DF8C1
:10147000040000208DF805004FF0805002904FF0DE
:10148000C06003900020049004208DF81400694689
:101490002C484C3800F094F9042301220F212948EC
:1014A0004C3800F00FFA04230222194625484C3824
:1014B00000F008FA04230322052122484C3800F0EA
:1014C00001FA04231A4606211E484C3800F0FAF9A6
:1014D00001211C484C3800F0E9F9002301220621C3
:1014E00018484C3800F096F90022142115484C3861
:1014F00000F044FA4FF4801112484C3800F057F9CC
:101500004FF480310F484C3800F049F900210D4864
:101510004C3800F0C1F800210A484C3800F0BBF903
:10152000012108484C3800F024F9012105484C38C5
:1015300000F014F9012103484C3800F0B8F815B058
:1015400000BD00004C2001408014002010640240C7
:1015500000B587B00121480202F0E0FC00200190B4
:101560008DF808008DF809004FF0805003904FF07F
:10157000606004900020059001208DF8180001A9FA
:101580001B4800F01DF90021194800F0F2F8002175
:10159000174800F0F9F8002301220D21144800F04B
:1015A00091F90121124800F081F9002301220A215A
:1015B0000F4800F02FF9002214210D4800F0DEF949
:1015C0004FF480110A4800F0F2F84FF480310848D7
:1015D00000F0E5F80021064800F05EF8002104481C
:1015E00000F059F90121024800F061F807B000BD90
:1015F0000021014000B587B00121880202F08EFC75
:10160000002001908DF808008DF809004FF08050FF
:1016100003904FF0606004900020059001208DF849
:10162000180001A91B4800F0CBF80021194800F070
:10163000A0F80021174800F0A7F8002301220C2190
:10164000144800F03FF90121124800F02FF900235F
:1016500001220B210F4800F0DDF8002214210D4873
:1016600000F08CF94FF480110A4800F0A0F84FF414
:101670008031084800F093F80021064800F00CF88B
:101680000021044800F007F90121024800F00FF89A
:1016900007B000BD0022014021B1426842F48062DF
:1016A000426003E0426822F480624260704721B1E8
:1016B000826842F00102826003E0826822F0010247
:1016C000826070470021084A1168084A1140D0E939
:1016D00000231A4383681A43C3681A431143044A18
:1016E000C2F804137047000004230140E030FCFFFF
:1016F0000020014000B587B00121052002F0CEFB9B
:101700000121080202F00AFC7020059003208DF8E8
:10171000180000208DF81B0005A90E4801F042FFBB
:101720002F20059003208DF8180000208DF81B0055
:1017300005A9094801F036FF002001904FF48030E0
:10174000029000200390049001A8FFF7BBFF07B0B0
:1017500000BD0000000002400008024021B1826884
:1017600042F48072826003E0826822F480728260B8
:10177000704721B1826842F40072826003E082689F
:1017800022F400728260704721B1826842F4806264
:10179000826003E0826822F48062826070470A46B9
:1017A0000021816821F470211143816070470A464D
:1017B0000021816821F440111143816070470000CD
:1017C00030B50246002000235068104C20400D79AF
:1017D0000C6844EA05242043506090680C4C20407B
:1017E000D1E903542C438D682C434D7944EA4504D8
:1017F00020439060D06A20F470000C7D641EE4B237
:10180000234340EA0350D06230BD0000FFFEFFFCDE
:10181000FDF7FFC0F0B50446154600200022002663
:10182000092911DDE068A1F10A0707EB470C07273A
:1018300007FA0CF29043A1F10A0707EB470703FAF6
:1018400007F21043E0600CE0206901EB410C072730
:1018500007FA0CF2904301EB410703FA07F2104339
:101860002061A06BC0F30156EF1C06F1010CA7EB41
:101870000C0707EB870C1F2707FA0CF29043EF1CAD
:1018800006F1010CA7EB0C0707EB870701FA07F23B
:101890001043A063F0BD21B1426842F4805242601F
:1018A00003E0426822F480524260704710B50A4655
:1018B00000210023816B21F44011531E41EA0351A2
:1018C000816310BDF0B504460D4600200021092DAE
:1018D00011DDE068A5F10A0606EB4607072606FAC1
:1018E00007F18843A5F10A0606EB460603FA06F15E
:1018F0000843E0600CE0206905EB4507072606FA7F
:1019000007F1884305EB450603FA06F10843206119
:10191000072A0FDA606B561E06EB86071F2606FAAB
:1019200007F18843561E06EB860605FA06F10843C2
:10193000606322E00D2A0FDA206BD61F06EB8607C4
:101940001F2606FA07F18843D61F06EB860605FA1E
:1019500006F10843206310E0E06AA2F10D0606EBF1
:1019600086071F2606FA07F18843A2F10D0606EB4B
:10197000860605FA06F10843E062F0BD08B50023CB
:1019800000930090009B0B440093009B1A6008BDDD
:1019900000BFFEE72DE9F0418AB004460D46164629
:1019A0001F46DDF840804E4800F0E2F905A800F03F
:1019B00035FC0121480602F091FA0121480602F0A7
:1019C0008DFA0121022002F069FA0121480602F095
:1019D00085FA09220821434801F02CFE092211460C
:1019E000404801F027FE4FF48070089002208DF8E7
:1019F000240000208DF8260003208DF8250001200A
:101A00008DF8270008A9374801F0CCFD4FF400708D
:101A1000089002208DF8240000208DF82600032075
:101A20008DF8250001208DF8270008A92D4801F028
:101A3000B9FD2B4800F09CF905A800F0EFFB002051
:101A40008DF81A0001208DF81B008DF81C00002075
:101A50008DF81D008DF81E008DF81F008DF8168082
:101A60008DF817408DF818608DF81950ADF8147086
:101A700005A91B4800F0B5FA002000F0B5FB0020D6
:101A80008DF80E008DF80F0001208DF81000002059
:101A9000ADF80400ADF80600ADF80800ADF80A0096
:101AA000ADF80C0001208DF8110001A800F07CF9C0
:101AB000012202210A4800F08BFA14208DF8000060
:101AC00004208DF8010000208DF8020001208DF81F
:101AD0000300684602F016F90AB0BDE8F081000084
:101AE000006400400004024008B502214B4800F0A9
:101AF000DFF900287ED00421484800F0E5F8484985
:101B0000464800F0C5F8474A0021444800F0F3FA7F
:101B100044480069009043480FC801F041FE414825
:101B20000068414908603F4800684009002873D1B7
:101B30003C48007800F01F000F2844D00BDC0F2831
:101B400068D2DFE800F027292A2B2C2D2E2F3031E8
:101B5000323F33373B00182850D009DCA0F1100089
:101B6000082857D2DFE800F0303332313435564997
:101B70001C284CD006DC192841D01A2843D01B2839
:101B800048D127E01E2843D01F2842D0B0F5E06F8F
:101B900040D100E03FE03EE03DE03CE03BE03AE0A9
:101BA00039E038E037E036E035E034E01D4802F057
:101BB00035F930E01B4802F043F92CE0194802F0F7
:101BC00021F928E027E026E025E024E023E022E0D8
:101BD00021E020E000BFBFF34F8F1448006800F4FD
:101BE000E06013490843001D10490860BFF34F8FA0
:101BF00000BF00E010E000BFFEE70CE00BE009488A
:101C000002F0C6F807E0074802F0D6F803E002E069
:101C100001E000E000BF00BF08BD0000006400401C
:101C20000800003210170020B80200200CED00E080
:101C30000000FA0538B5044634B1012C0CD0022C52
:101C400012D0032C20D117E0002003230622052107
:101C50000090FFF79FFE18E0002006231A4605219A
:101C60000090FFF797FE10E000200C2306220521CC
:101C70000090FFF78FFE08E00020182306220521C0
:101C80000090FFF787FE00E000BF00BF38BD0000F6
:101C900000220C4B994202D10023836111E0C1F371
:101CA000130201F000730BB1C2600AE001F080631F
:101CB0000BB1026105E001F000630BB1826000E04E
:101CC000426070477000F030B1F5007F3AD00FDC11
:101CD000202928D006DC01291CD004291DD0082980
:101CE00040D11DE0402921D0B1F5807F3AD126E0D6
:101CF000B1F5004F31D006DCB1F5806F25D0B1F5DC
:101D0000006F2FD124E0B1F5803F12D0B1F5003F34
:101D100028D111E0154A826025E00822C26022E045
:101D20001022C2601FE0082202611CE01022026142
:101D300019E00822426016E01022426013E00422FB
:101D4000426010E0042242600DE0042242600AE09A
:101D5000002282610422426005E0002282610422A6
:101D6000426000E000BF00BF7047000001010100B9
:101D700010B504460B48844209D10121480602F0FF
:101D8000BDF800214FF0007002F0B8F808E0012122
:101D9000880602F0B3F800214FF0806002F0AEF840
:101DA00010BD00000064004010B50021837A0122BC
:101DB00002FA03F13D4A126842F001023B4B1A60FD
:101DC0003A4A1C3212688A43384B1C331A60027B31
:101DD000CAB9364A0C3212688A43344B0C331A6043
:101DE0004288C38842EA0343304A4032847A42F848
:101DF00034300288838842EA03432C4A4032847A92
:101E000002EBC4025360027B012A19D1274A0C322B
:101E100012680A43254B0C331A604288038842EA51
:101E20000343224A4032847A42F83430C28883889D
:101E300042EA03431D4A4032847A02EBC4025360F3
:101E4000C27A3AB9194A121D12688A43174B1B1DF0
:101E50001A6006E0154A121D12680A43134B1B1D37
:101E60001A60028932B9114A143212688A430F4B40
:101E700014331A600289012A06D10C4A14321268FE
:101E80000A430A4B14331A60427B012A06D1074ADF
:101E90001C3212680A43054B1C331A60034A12684D
:101EA00022F00102014B1A6010BD000000660040E4
:101EB00070B504460D46002660692840002871D0A0
:101EC000B5F5807F5CD010DC082D35D006DC012D07
:101ED00020D0022D24D0042D72D127E0102D31D036
:101EE000202D35D0402D6BD138E0B5F5004F60D0B6
:101EF00009DCB5F5007F49D0B5F5806F4CD0B5F55C
:101F0000006F5DD14FE0B5F5803F2DD0B5F5003FB6
:101F100056D12FE0A0682D4900F074FA064651E032
:101F2000E068032100F06EFA06464BE0E068082105
:101F300000F068FA064645E0E068102100F062FA19
:101F400006463FE02069032100F05CFA064639E0CE
:101F50002069082100F056FA064633E02069102176
:101F600000F050FA06462DE06068082100F04AFAB9
:101F7000064627E06068102100F044FA064621E09A
:101F8000A069012100F03EFA06461BE0A06902218B
:101F900000F038FA064615E0A069042100F032FA94
:101FA00006460FE00FE0A069702100F02BFA06460C
:101FB00008E06068042100F025FA064602E0FFE729
:101FC000002600BF00E00026304670BD0101010080
:101FD0001AB143690B43436102E043698B43436198
:101FE000704730B5024600200023146824F0020434
:101FF0001460146844F00104146000E05B1C546831
:1020000004F001041CB94FF6FF74A342F6D15468E2
:1020100004F001040CB900206CE08C79012C04D18F
:10202000146844F08004146003E0146824F0800411
:102030001460CC79012C04D1146844F0400414607D
:1020400003E0146824F0400414600C7A012C04D1DD
:10205000146844F02004146003E0146824F02004A1
:1020600014604C7A012C04D1146844F010041460FC
:1020700003E0146824F0100414608C7A012C04D15D
:10208000146844F00804146003E0146824F00804A1
:102090001460CC7A012C04D1146844F00404146058
:1020A00003E0146824F0040414608C78A407CD784D
:1020B00044EA05640D7944EA05444D7944EA05543F
:1020C0000D886D1E2C43D461146824F00104146043
:1020D000002300E05B1C546804F001041CB14FF6BF
:1020E000FF74A342F6D1546804F001040CB100203F
:1020F00000E0012030BD10B500F5D87303EB0113EB
:102100001B6803F004031372137A53B900F5D873F4
:1021100003EB01131B6840F2FF7404EA535313608E
:1021200009E000F5D87303EB01131B686FF06044FE
:1021300004EAD303536000F5D87303EB01131B6863
:1021400003F00203537200F5D87303EB01135B68CD
:1021500003F00F03937200F5D87303EB01135B6870
:102160001B0AD37400F5D87303EB01139B68D37279
:1021700000F5D87303EB01139B681C0A147300F578
:10218000D87303EB01139B681C0C547300F5D873D0
:1021900003EB01139B681B0E937300F5D87303EBDD
:1021A0000113DB68D37300F5D87303EB0113DB680D
:1021B0001C0A147400F5D87303EB0113DB681C0CC4
:1021C000547400F5D87303EB0113DB681B0E937492
:1021D00021B9C36843F02003C36003E0036943F0FF
:1021E0002003036110BD00000B49096841F00101A3
:1021F000094A11601146096843F60E729143064A76
:1022000011601146096841EA002111601146096810
:1022100021F00101116070470066004000218171CA
:10222000C171017241728172C1728170C1700321EA
:1022300001710221417101210180704710B50246F0
:102240000020936803F08063B3F1806F00D110E049
:10225000936803F00063B3F1006F01D1012008E03F
:10226000936803F08053B3F1805F01D1022000E056
:102270000420042874D002F5C07303EB00131B681C
:1022800003F0010402F5C07303EB00131C600B7A2A
:102290007BB94B7A0C8843EA445302F5C07404EBD3
:1022A00000142468234302F5C07404EB0014236077
:1022B00010E00B7A4C6843EAC4034C7A234302F5DE
:1022C000C07404EB00142468234302F5C07404EBCB
:1022D000001423608B7A03F00F038B7202F5C07336
:1022E00003EB00135B6823F00F0402F5C07303EBEC
:1022F00000135C6002F5C07303EB00135B688C7A1B
:10230000234302F5C07404EB001463608B7B1C064E
:102310004B7B44EA03440B7B44EA0323CC7A2343FC
:1023200002F5C07404EB0014A3608B7C1C064B7C8C
:1023300044EA03440B7C44EA0323CC7B234302F5A9
:10234000C07404EB0014E36002F5C07303EB0013E8
:102350001B6843F0010402F5C07303EB00131C601B
:1023600010BD000010B50246002321B1012907D09D
:1023700002290FD109E090681D4C00EA04030BE02C
:1023800090681C4C00EA040306E090681A4C00EACE
:10239000040301E0002300BF00BF184C181BA34238
:1023A00016D007DC83B16FF08060184470B102284A
:1023B00018D111E0B0F5007F10D0114C204448B185
:1023C000B0F5003F0ED10BE002230DE000230BE03F
:1023D000002309E0002307E0012305E0012303E0D7
:1023E000012301E0002300BF00BFD8B210BD0000F0
:1023F00003000004000300080000031000010008AF
:102400000001FFF70246002002EA01030BB10120A0
:1024100000E00020704700001148D0ED0C0A9FED4D
:10242000111AF4EEC10AF1EE10FA02D2D0ED0C0A44
:1024300001E0DFED0C0AB0EE600AF0EE000A60EE9B
:10244000200A0948C0ED000AD0ED000A60EEA00A9B
:10245000B5EE001A60EE810A0448C0ED000A70472C
:102460006C2000200000FA44140400201004002016
:1024700070B506460C4604F08000802808D104F0B0
:102480007F0000EB800106F58E7000EBC10507E0D0
:1024900004F07F0000EB800106F55D7000EBC105E4
:1024A00004F07F00287004F08000C009687029469D
:1024B000304604F0C7FE002070BD70B506460C46DD
:1024C00004F08000802808D104F07F0000EB800138
:1024D00006F58E7000EBC10505E004EB840106F5FE
:1024E0005D7000EBC1050020A87004F07F0028702B
:1024F000C4F3C01068702946304604F07BFE00200B
:1025000070BD2DE9F04106460D4690461F4605F088
:102510008000802808D105F07F0000EB800106F5DF
:102520008E7000EBC10407E005F07F0000EB800136
:1025300006F55D7000EBC10405F07F00207005F02A
:102540008000C0096070C4F80880E770607808B146
:102550002078E080022F01D10020207121463046F2
:1025600004F0FCFD0020BDE8F0812DE9F0410546B6
:102570000E461746984606F07F0000EB800105F5F1
:102580005D7000EBC104E760C4F814800020A06116
:10259000607006F07F002070E878012800D1276184
:1025A000207820B92146284604F0FCFC03E02146AF
:1025B000284604F0A8FE0020BDE8F08108B50022FE
:1025C0000092009A61F30A12009202691268009B5D
:1025D0001A4303691A6008BD70B506460C4604F03C
:1025E0008000802808D104F07F0000EB800106F510
:1025F0008E7000EBC10505E004EB840106F55D700B
:1026000000EBC1050120A87004F07F002870C4F31E
:10261000C01068702946304604F043FE002070BDAB
:102620002DE9F04107460D461646984605F07F0015
:1026300000EB800107F58E7000EBC1040120607093
:1026400005F07F002070E66026610020A061C4F8DC
:102650001480207820B92146384604F0A3FC03E01A
:102660002146384604F04FFE0020BDE8F0811CB53D
:102670000446204604F061FCE068C06800902046F3
:1026800005F004F803280BD10020A0704FF400706F
:10269000A080009820F4705000F51050009009E0E0
:1026A0000120A0704020A080009820F4705000F518
:1026B000A05000900098E168C86000200190019847
:1026C00020F4005000F5005001900198E168486145
:1026D00001201CBDF8B505460024002000902846C6
:1026E00005F013F8064690E006F0010000287DD0C2
:1026F000E1B2284600F002FB0090009800F00100D3
:1027000030B3012000FA04F72869406BB843296907
:10271000486300200090009820F00100401C0090C9
:1027200005F1180050F8240000998160E1B23948A1
:102730000068426828469047E878012808D13CB9EB
:1027400040F21110405D042802D1284604F0D5FC67
:102750000098C0F3C00060B100200090009820F005
:1027600008000830009005F1180050F82400009986
:1027700081600098C0F3001060B1002000900098C4
:1027800020F010001030009005F1180050F82400DF
:10279000009981600098C0F3801060B10020009023
:1027A000009820F040004030009005F1180050F8EB
:1027B0002400009981600098C0F3400060B10020BF
:1027C0000090009820F00200801C009005F1180095
:1027D00050F82400009981600098C0F3C01028B11F
:1027E0002146284600F09EFA002000E00BE0009011
:1027F000009820F080008030009005F1180050F81B
:10280000240000998160641C7608002E7FF46CAF70
:102810000120F8BD740100207CB50446002500208D
:102820000190204604F079FF06466FE006F00100B3
:10283000002869D0E9B2204604F077FF01900198A2
:1028400000F00100C8B300200190019820F00100C1
:10285000401C019004F1540050F82500019981605A
:10286000E078012817D104F1540050F825000069E0
:10287000009005EB850104F55D7000EBC1008068F8
:102880000099C1F31201411A05EB850204F55D7050
:1028900000EBC2008161E9B21E4800680268204670
:1028A0009047E078012808D13DB940F21110005D51
:1028B000052802D1204604F020FC0198C0F3400016
:1028C00060B100200190019820F00200801C01906E
:1028D00004F1540050F82500019981600198C0F37B
:1028E000C00088B10B4800688168204688470020F6
:1028F0000190019820F008000830019004F1540084
:1029000050F82500019981606D1C7608002E8DD14C
:1029100001207CBD740100203EB50446A07A70B150
:10292000D4F80C010090009820F00200009000986C
:1029300020F0010000900099D4F80C010160002003
:102940000190019820F00100401C0190206940682E
:1029500001998843216948600848006881692046D8
:10296000884700200290029820F0004000F10040CB
:1029700002900298E168486101203EBD7401002088
:102980007CB5044600200190019820F01000103022
:102990000190E068806901998843E1688861E06896
:1029A000006A0090009800F00F0000EB800104F531
:1029B0005D7000EBC1050098C0F3434007282DD29D
:1029C000DFE800F02C04051D1E2C1F0027E00098F6
:1029D000C0F30A1090B10098C0F30A122046E968CB
:1029E00004F0ADFEE8680099C1F30A110844E860FC
:1029F000A8690099C1F30A110844A8610FE00EE02C
:102A00000DE0082204F2CC51204604F098FEA8699B
:102A10000099C1F30A110844A86100E000BF00BF9B
:102A2000E068806901990843E168886101207CBD04
:102A300038B5044608480068C16820468847002029
:102A40000090009820F00800083000900098E1689D
:102A50004861012038BD0000740100201FB5044604
:102A6000002000904FF48970005D009023480068BA
:102A700041692046884720698068019000200390C2
:102A8000039820F4006000F5006003900398E1686B
:102A90004861A07A70B3019800F0010050B340F291
:102AA0001510005D012825D19DF80000032821D1D3
:102AB00000200290029820F00100401C0290D4F8FF
:102AC0000C01006802990843D4F80C1108600298C0
:102AD00020F00200801C0290D4F80C0100680299DA
:102AE0000843D4F80C1108600548006840F006005F
:102AF00003490860012004B010BD000074010020EB
:102B000010ED00E030B587B004460020029006903A
:102B10000590049003900190029820F00100401C61
:102B20000290206940680299884321694860002129
:102B3000204604F081FD00250BE0FF2104F1180080
:102B400050F82500816004F1540050F825008160A0
:102B50006D1C6078A842F0D84FF0FF312069816188
:102B600006986FF30F00401C0690069880B200F59F
:102B70008030069006992069C161059820F0080010
:102B800008300590059820F00100401C059005983C
:102B900020F00200801C059005992069416104988D
:102BA00020F00100401C0490049820F00800083038
:102BB0000490049820F00200801C0490049920697D
:102BC0000161206900680390039820F4FE6003907F
:102BD000039920690160204604F08FFA00200190DB
:102BE000019820F4805000F5805001900198E16830
:102BF000486104480068016920468847012007B001
:102C000030BD0000740100202DE9F04106460F465A
:102C10003946304604F0A8FD01214FF489708155F2
:102C20000021801C8155002511E005EB850106F58A
:102C30008E7000EBC104012060702570E5800020DB
:102C4000E0704020A0600020E06060616D1C707842
:102C5000A842EAD8002510E005EB850106F55D7075
:102C600000EBC104002060702570E580E07040201A
:102C7000A0600020E06060616D1C7078A842EBD815
:102C8000304604F049F9304603F074FF0021304625
:102C900004F0D2FD304604F000F8304604F095FC14
:102CA000BDE8F08138B50446002000900748006870
:102CB000C16920468847009820F4801000F58010F4
:102CC00000900098E1684861012038BD740100203F
:102CD00038B504460020009007480068016A204685
:102CE0008847009820F4001000F50010009000982C
:102CF000E1684861012038BD7401002030B502460A
:102D000015692B6915696C6B24FA01F505F001054D
:102D100043EAC51302F1180555F82150AD6805EADC
:102D2000030030BD2DE9F84307460E46002500207C
:102D3000009006EB860107F58E7000EBC104D4E924
:102D40000501451AA068A84200D2A568E81C4FEA10
:102D5000900807F1180050F82600806900901BE0E9
:102D6000D4E90501451AA068A84200D2A568E81C6C
:102D70004FEA9008ABB2F2B23846E16804F09EFD2B
:102D8000E0682844E060A0692844A06107F11800C9
:102D900050F8260080690090009880B2404506D91E
:102DA000D4E90510884202D260690028D8D10120F8
:102DB000BDE8F88310B50749074800F0EFF801288F
:102DC00007D10449044800F009F80021024800F046
:102DD0001FF810BD00802020A06002400246094B71
:102DE0009A4201D2084801E00648103801F0005329
:102DF0001BB1064B0B40C36002E0044B0B408360E9
:102E00007047000010640240006002407D0F7D0F9B
:102E100021B1026842F00102026003E0026822F080
:102E20000102026070470000016821F001010160A9
:102E30000021016041608160C16001612121416127
:102E40004A49884204D13D21484A103A91608CE0B9
:102E500046491831884205D14FF47461434A103A0B
:102E6000916082E041493031884205D14FF47411BC
:102E70003E4A103A916078E03C494831884205D199
:102E80004FF07461394A103A91606EE03749603111
:102E9000884204D13649354A103AD16065E0334959
:102EA0007831884204D13349304A103AD1605CE02D
:102EB0002E499031884204D12F492C4A103AD160D2
:102EC00053E02A49A831884205D14FF03D51274AA5
:102ED000103AD16049E02949884204D13D21274A6E
:102EE000083A116041E025491831884205D14FF474
:102EF0007461224A083A116037E020493031884233
:102F000005D14FF474111D4A083A11602DE01B4998
:102F10004831884205D14FF07461184A083A11606F
:102F200023E016496031884204D11149134A121F27
:102F300011601AE011497831884204D10D490F4AD5
:102F4000121F116011E00D499031884204D10A49E5
:102F50000A4A121F116008E00849A831884204D1CA
:102F60004FF03D51054A121F11607047106002403A
:102F70003D000020400F002000003D201064024072
:102F8000014600200A6802F001020AB1012000E0B7
:102F9000002070470146486880B2704770B502460D
:102FA000002000240025124EB24201D2114B01E054
:102FB0000F4B103B104E0E4036B11E2606EAD124B0
:102FC000166806EA040502E0566906F0800501F07D
:102FD00000560EB15C6800E01C68084E344004EAFC
:102FE000010616B10DB1012000E0002070BD000007
:102FF00010640240006002403C0F3C0F7D0F7D0FCB
:1030000010B500220268134B1A40CC680B682343AA
:103010004C6923438C692343CC6923430C6A2343C3
:103020004C6A23438C6A23434C6B23438C6B2343AE
:103030001A430260426922F00702D1E90B342343AC
:103040001A4342610B6943604B6883608B68C360BD
:1030500010BD00003F801CF0416070470EB500F0CD
:1030600041F8029000F04CF81949B0FBF1F00190E2
:10307000002000901748006808B900F047F816488B
:1030800000680299884221D0134902980968401AC1
:10309000124909680844114908600F4902980860FC
:1030A0000E4800680199B0FBF1F00090009868B1FB
:1030B0000B480068009908440949086007480068FF
:1030C000DDE9001201FB1200044908600EBD00009A
:1030D00040420F0024000020300000203400002077
:1030E000280000200148406870470000001000E000
:1030F00010B5FFF7B3FF0148006810BD280000209D
:1031000001480068704700002C0000201FB5684689
:1031100000F024FF0949019808600948006800F0A0
:10312000010028B1012007490860002004B010BD4B
:103130000020044908600120F8E700002C0000206E
:10314000001000E0240000207047000001490860E2
:1031500070470000143C014030B10749096841F450
:103160008061054A116005E00349096821F4806126
:10317000014A116070470000003C024070B50446EF
:103180000A460026092502B909E0012A01D11602E2
:1031900005E0022A01D1160201E04FF4407600F06A
:1031A0009FF80546092D28D11548006820F4407085
:1031B0001349086008460068304308600846006804
:1031C00020F0F80008600846006844F00201084357
:1031D0000B4908600846006840F48030086000F041
:1031E0007FF805460648006820F0020004490860A0
:1031F0000846006820F0F8000860284670BD00000E
:10320000103C024009201349096801F48031B1F5EE
:10321000803F01D101201CE00E49096801F0100136
:1032200009B1062015E00B49096801F4807109B164
:1032300002200EE00749096801F0EF0109B10720FB
:1032400007E00449096801F0020109B1082000E023
:10325000092070470C3C02400348006840F00040E1
:103260000149086070470000103C024030B502463A
:103270000C46092500F034F80546092D19D10E48F1
:10328000006820F440700C4908600846006840F46B
:10329000007008600846006840F001000860146093
:1032A00000F01EF805460448006820F001000249BD
:1032B0000860284630BD0000103C02400548006808
:1032C00000F0004028B1044802490C390860034866
:1032D00008607047103C024023016745AB89EFCD81
:1032E00008B509200090FFF78DFF009002E0FFF77E
:1032F00089FF00909DF800000128F8D09DF800009B
:1033000008BD000000B52DED040B2DED108B83B032
:10331000B0EE40DAF0EE60DA9DED150A08F0A0F9A3
:10332000B0EE40EA9DED150A08F0ECF9F0EE40EA47
:10333000784890ED000A20EE0E0AD0ED010A0EEE5C
:10334000A00AB0EE409A90ED010A20EE0E0AD0EDF0
:10335000000A0EEEE00AF0EE409A6F4890ED000A87
:1033600079EEC00A90ED000A6C4890ED001A01EE6B
:10337000200A694880ED000A694890ED000A79EE5C
:10338000400A90ED000A654890ED001A01EE200A0F
:10339000634880ED000A3DEE490AB0EE40FA3DEE8A
:1033A000E90AF0EE40FA5F48D0ED000A5E4890ED81
:1033B000000A0FEE200A8DED020A5A48D0ED000AED
:1033C0005A4890ED000A0FEEA00A8DED010A584808
:1033D00090ED000ADFED570A20EE200AB0EE40AA79
:1033E000B7EE000AC0EE0A0ACDED000A9DED000A14
:1033F000DDED020A20EE200AF0EE408A9DED000A83
:10340000DDED010A20EE200AB0EE408A68EEA80A3F
:1034100048EE080AB0EE600A05F089F9DFED460AC9
:1034200080EE801AF0EE41AAB7EE000AF4EEC0AAD0
:10343000F1EE10FA1AD228EEAA0AF0EE408A28EE2F
:103440002A0AB0EE408A384890ED000ADFED3B0AC8
:1034500020EE200A80ED000A344890ED000ADFEDEE
:10346000370A20EE200A80ED000A1BE02D4890ED7F
:10347000010ADFED330A60EE200A2B4890ED000AC6
:103480000FEE200A80ED000A264890ED010ADFEDDC
:103490002C0A60EE200A254890ED000A0FEEA00AE3
:1034A00080ED000A28EE890A08EE290A254880EDF9
:1034B000000A9DED160A08F0D3F8B0EE40BA9DED73
:1034C000160A08F01FF9F0EE40BA2BEE280AB0EE0B
:1034D00040CA0BEEC8CA2BEE080AF0EE40CA4BEE0B
:1034E000A8CA2AEE0C0A184880ED000A2AEE2C0A17
:1034F000164880ED000AF0EE6C0AB0EE4C0A07F0B8
:103500001DF928B9002003B0BDEC108B04B000BD3C
:103510000120F8E7C4020020F8020020FC0200208D
:10352000F402002000030020080300200C03002008
:103530001C030020ABAA2A3FD7B35D3FA4707D3F98
:103540006F12033918030020100300201403002019
:1035500010B52DED088BB0EE408AF0EE608AB0EE2B
:10356000419AB0EE490A08F07BF8F0EE409AB0EECE
:10357000490A08F0C7F8B0EE40AA29EE880A0AEE18
:10358000680AF0EE40AA29EEA80A0AEE080AB0EE90
:1035900040BAF0EE4B0AB0EE6A0A07F01BF9BDEC38
:1035A000088B10BDF0B50A4600210023002400BF9F
:1035B0003DE0012505FA01F3156805EA03049C4284
:1035C00034D105684F000326BE40B5430560157928
:1035D0004E00B5400668354305601579012D02D0CF
:1035E0001579022D16D185684F000326BE40B543DC
:1035F000856055794E00B5408668354385604568DD
:1036000001268E40B5434560456896798E40B6B236
:1036100035434560C5684F000326BE40B543C560CD
:10362000D5794E00B540C6683543C560491C1029A0
:10363000BFD3F0BDF0B5002300244D07ED0E02FA14
:1036400005F3CE1000F1200555F826504E07F70E71
:103650000F26BE40B543CF1000F1200646F8275094
:10366000CE1000F1200555F8265045EA0304CE108F
:1036700000F1200545F82640F0BD418370470183E5
:1036800070470000DFED0E0AB0EE600A00EE900A0F
:10369000F8EE600A9FED0B1A60EE810AB0EE600A48
:1036A000DFED090A70EE600A9FED081AC0EE811A7C
:1036B000F3EE090A71EEA00AB0EE600A704700004E
:1036C000000000003333533A5C8F423F0AD7233B5C
:1036D00070B506462C480078012852D02B48006867
:1036E000B0F5006F02D10020284908602748006823
:1036F00027490968884203D100202349087070BD1A
:103700002248006822490968884206D91F48006893
:10371000C0F500601F49086006E01D4800681B49AD
:103720000968401A1B4908601A48006840280ED9E9
:103730001648008884B24025144800684030134978
:103740000860144800684038124908600FE00F48CC
:10375000008884B20F48008885B20C4800680D4983
:10376000096808440949086000200A4908600120E6
:1037700005490870084802192B4681213046FEF79A
:103780004FFF00BFBBE70000C4000020BC000020CA
:10379000B8000020C0000020C704002000BFFEE7E2
:1037A0000FB410B502987D281AD19DF81300012896
:1037B00016D19DF8140098B99DF8150080B99DF8B0
:1037C000160068B99DF8170050B99DF8180038B96F
:1037D0009DF8190020B99DF81A0008B900F066F8A4
:1037E00002987F2822D19DF8130001281ED19DF850
:1037F000141010480068000E814217D19DF8150082
:103800000C490968C1F3074188420FD19DF81600A1
:1038100008490988C1F30721884207D19DF817009C
:1038200004490978884201D108F022FA10BC5DF8F9
:1038300014FB0000140000202DE9F04186B005467D
:103840008846164600240195029500208DF80C004C
:103850008DF80D008DF80E6000BF06E018F804101A
:103860000DF10F000155601C84B2B442F6DB01A9D2
:103870000D48FEF7E3FC0746002401E0601C84B21B
:1038800039460948FEF76EFD012803D040F6FF7067
:103890008442F3DB40F6FF70844203DB012006B074
:1038A000BDE8F0810020FAE70064004008B502207E
:1038B00007231A46812100907B2001F08DF808BD76
:1038C0004CF6CC40014908607047000000300040D1
:1038D00010B545F2555000F021F8032000F012F821
:1038E0004FF4FA7000F014F800F004F8FFF7E8FF66
:1038F00010BD00004AF6AA20014908607047000088
:10390000003000400149486070470000003000402E
:10391000014988607047000000300040014908609C
:10392000704700000030004010B52DED048B1548A5
:1039300090ED000AFFEE000A20EE200A80ED000A5A
:10394000114890ED000ADFED110A20EE200AF7EE93
:10395000000A80EE801AB0EE419A0A4890ED000A03
:1039600020EE090AB0EE408A9FED090AF0EE408A87
:10397000F0EE680AB0EE480A06F0E0FEBDEC048BFB
:1039800010BD0000680300201C030020ABAA2A3FE2
:10399000000000001849097801B31849D1ED000A68
:1039A000F5EEC00AF1EE10FA02DBF7EE000A01E0D4
:1039B000FFEE000AB0EE600A1149D1ED000A11498C
:1039C00091ED001A30EEC11A0F49D1ED000AF1EE67
:1039D000401A41EE810AC1ED000A04E00B4908607B
:1039E0000121054A1170064991ED000A054981ED52
:1039F000000A07490860704784030020680300201C
:103A0000C40200207C0300208003002074030020F7
:103A10007803002010B502202A4908704003C861CD
:103A20009FED290A084680ED040A9FED280A80EDE3
:103A3000010A9FED270A80ED020A9FED260A80ED1C
:103A4000030A002048619FED240A084680ED060A1B
:103A50009FED210A80ED080A002081F8240081F8FA
:103A600025008862012081F82C0081F82D000020BB
:103A700081F82E0008F02CFA1248007807281FD28F
:103A8000DFE800F004070A0E12161A0001F06EFAC1
:103A900016E001F0C7FA13E0002000F013FC0FE07D
:103AA000002000F00FFC0BE0022000F00BFC07E010
:103AB000002000F007FC03E0022000F003FC00BF40
:103AC00000BF10BDE41F002000007A440AD7A33CC9
:103AD000DB0F4942DB0F49410000000000BFFEE759
:103AE0007047000070B52DED0A8B84B005460E4678
:103AF0001446002000900190029003908DF80C0075
:103B00003CB99DE80F0085E80F0004B0BDEC0A8BBE
:103B100070BDA08AB04204DC9DE80F0085E80F006C
:103B2000F3E7BEB99FED570A8DED000ADDED000AFF
:103B3000B0EE600A00F0B0F88DED010A9FED520A78
:103B40008DED020A01208DF80C009DE80F0085E83C
:103B50000F00DAE7A08A401EB04217D19FED4B0A52
:103B60008DED000ADDED000AB0EE600A00F094F879
:103B70008DED010A9FED460A8DED020A01208DF8B8
:103B80000C009DE80F0085E80F00BEE7A08A00EE5C
:103B9000100AF8EE400A00EE106AB8EE401A81EE04
:103BA000200AD4ED040A20EE208AF0EE488A94ED33
:103BB000030AC8EE809A94ED040A30EE48AA8AEE11
:103BC000299A8DED029A94ED010ADFED320A70EE2A
:103BD00020AAB5EEC09AF1EE10FA06D994ED000ACB
:103BE000B5EEC00AF1EE10FA04D89DE80F0085E8A2
:103BF0000F008AE794ED000AC9EE000AF0EE60CAF1
:103C0000B0EE6C0A04F084FCB0EE40BAF7EE000AA5
:103C100080EEAA0A94ED021AF7EE001AC1EE810AAC
:103C2000F0EE40BA40EE8BBAB7EE000A80EE2BCA37
:103C30009FED180A3CEE400A8DED000ADDED000A0A
:103C4000B0EE600A00F028F88DED010A9DED000A43
:103C5000DFED0C0AB4EEE00AF1EE10FA0BDB9DED9D
:103C6000000ADFED0A0AB4EEE00AF1EE10FA02D81B
:103C700001208DF80C009DE80F0085E80F0000BFC3
:103C800043E70000000048C20000807F00001643A8
:103C90000000000033938843F0EE400AB2EE020ABF
:103CA00020EE800AB1EE041AC0EE011A9FED020A5E
:103CB00031EE800A70470000000000427FB50446E4
:103CC0000D462A4621466846FFF70CFF9DF80C007A
:103CD00010B19DED000A7FBD9FED010AFBE70000DA
:103CE00000007AC400B9704780ED000AC0ED010AF7
:103CF00080ED021AC0ED031A80ED042A818200BF14
:103D0000F1E7000070B5002100230F22C4781CB336
:103D1000174C246804F4E064C4F5E064C4F307219C
:103D2000C1F10404E3B20A4144789C40E1B28478D2
:103D3000144021430C07210E0E4C05786155047880
:103D400004F01F050124AC4005786D11AD0005F1AC
:103D5000E025C5F8004109E0047804F01F050124BE
:103D6000AC40054D0678761145F8264070BD000040
:103D70000CED00E000E400E080E100E002490143D6
:103D8000024A1160704700000000FA050CED00E0E7
:103D900008B5D0F80B1000919DED000AB5EEC00AF1
:103DA000F1EE10FA00D300BF9DED000A014981ED4C
:103DB000010A08BD6C2000200CB5C17A8DF80410F2
:103DC000017B8DF80510417B8DF80610817B8DF805
:103DD0000710C17B8DF80010017C8DF80110417C2B
:103DE0008DF80210817C8DF803109DED010A0449C5
:103DF00081ED020A9DED000A81ED030A0CBD000071
:103E00006C20002008B5D0F80B1000919DED000A41
:103E1000014981ED000A08BD0C04002008B5D0F866
:103E20000B1000919DED000A034981ED000A01216C
:103E3000024A117008BD0000040400201C04002088
:103E400008B5D0F80B1000919DED000A014981EDF5
:103E5000000A08BD0804002010B5024802F054FA18
:103E600010BD0000505B002010B50948807A50B1A9
:103E70000848006820F006000649086000F054FE7B
:103E8000034803F000FD4FF48020FFF75FF910BDF9
:103E9000505B002010ED00E07047000029B1064A99
:103EA00012680243044B1A6004E0034A126882431A
:103EB000014B1A60704700003038024029B1064AB1
:103EC00012680243044B1A6004E0034A12688243FA
:103ED000014B1A60704700003438024029B1064A8D
:103EE00012680243044B1A6004E0034A12688243DA
:103EF000014B1A60704700004038024029B1064A61
:103F000012680243044B1A6004E0034A12688243B9
:103F1000014B1A60704700002038024029B1064A60
:103F200012680243044B1A6004E0034A1268824399
:103F3000014B1A60704700004438024029B1064A1C
:103F400012680243044B1A6004E0034A1268824379
:103F5000014B1A607047000024380240F0B5002180
:103F600000220024022500260223324F3F6807F07A
:103F70000C0121B1042905D0082937D105E02E4FC5
:103F8000076036E02D4F076033E02A4F3F1F3F6840
:103F9000C7F38056274F3F1F3F6807F03F036EB1BE
:103FA000264FB7FBF3F7DFF88CC0ACF1040CDCF85C
:103FB00000C0CCF3881C07FB0CF40CE01E4FB7FBD1
:103FC000F3F7DFF870C0ACF1040CDCF800C0CCF300
:103FD000881C07FB0CF4174F3F1F3F68C7F30147CE
:103FE0007F1C7D00B4FBF5F7076002E0124F07600D
:103FF00000BF00BF0F4F3F6807F0F0010909104FE5
:104000007A5C0768D74047600A4F3F6807F4E05181
:10401000890A0B4F7A5C4768D7408760054F3F6835
:1040200007F46041490B064F7A5C4768D740C76088
:10403000F0BD0000083802400024F40000127A00AD
:104040000000002010B52DED028B094890ED000A0C
:10405000B0EE408A9FED070AF0EE408AF0EE680A63
:10406000B0EE480A06F06AFBBDEC028B10BD000002
:10407000700300200000000010B52DED028BB7EE9C
:10408000000AB0EE408A9FED330AF0EE408A3248D3
:1040900090ED000A314880ED000A314890ED000AA9
:1040A0002E48D0ED000A70EE600A2E4890ED000A0E
:1040B0009FED2D1A01EE200A80ED000A264890EDB2
:1040C000010A2A48D0ED000A70EE600A90ED000A5D
:1040D0009FED271A01EE200A80ED000A214890ED9D
:1040E000000AB0EEC00A2348D0ED000AB4EEE00AA0
:1040F000F1EE10FA05DD06F0BFF8082007F08AFDA2
:1041000025E01D4890ED000AF1EE080AB4EEE00A41
:10411000F1EE10FA05D806F0AFF8102007F07AFD9E
:1041200015E01548D0ED000A9FED141A60EE810AE3
:10413000B7EE001AC1EE201AB0EE610A0948D0EDC0
:10414000000A60EE800A0E48C0ED000A00BFBDEC18
:10415000028B10BD0000A042C402002064030020B6
:104160005C030020680300206F1203396C030020F9
:104170000BD7233C600300201C030020ABAA2A3F7E
:10418000700300202DE9F05F05460F4690469946E2
:10419000DFF860B000BF9BF8000008B904F0D4F865
:1041A00000BFDFF850A0032D1FD2EFF311810846A6
:1041B000202181F3118800BF00BF05EB45020AF101
:1041C000180101EBC2043DB12760C4F80480C4F8B3
:1041D000089000212161E1600A996161C1B281F317
:1041E000118800BF00BF002601E04FF0FF363046C7
:1041F000BDE8F09FC80D00202DE9F04104460D46B2
:1042000016460E4F00BF387808B904F09DF800BF7D
:10421000EFF311800746202080F3118800BF00BF14
:1042200032462946204600F00BF88046F8B280F36B
:10423000118800BF00BF4046BDE8F081C80D0020D6
:104240002DE9F047074688461646C24607EB470168
:104250001B4800EBC109D9F8140020B1012811D086
:10426000022826D11EE0484604F0A6F80546B542CD
:1042700001D2002405E0344632465146484604F057
:10428000E4F818E0484604F097F80546B54201D234
:10429000284600E03046044622465146484604F08F
:1042A000D4F808E032465146484604F093F80446F4
:1042B00001E0002400BF00BF2046BDE8F0870000F9
:1042C000E00D002010B588B0044601210720FFF75B
:1042D000E5FD0121C803FFF701FE0820069001203B
:1042E0008DF81C0000208DF81E0001208DF81D00A7
:1042F0008DF81F0006A92B48FFF754F9082129481B
:10430000FFF7BDF94FF4E050069002208DF81C0035
:1043100000208DF81E0001208DF81D008DF81F0073
:1043200006A92148FFF73EF906220A211E48FFF799
:1043300081F906220B211C48FFF77CF906220C218B
:104340001948FFF777F90121C803FFF7D7FD0021CE
:104350004FF40040FFF7D2FD0020ADF804004FF409
:104360008270ADF806004FF40060ADF80800ADF8BB
:104370000A400120ADF80C004002ADF80E002020EC
:10438000ADF810000020ADF812000720ADF81400C1
:1043900001A9064800F026F80121044800F008F8B9
:1043A00008B010BD0004024000080240003C00407C
:1043B00021B1028842F04002028004E002884FF6F8
:1043C000BF731A40028070470246002013890B40D9
:1043D0000BB1012000E0002070470146888970473A
:1043E0008181704710B50022028802F441520B8887
:1043F0004C8823438C882343CC8823430C89234354
:104400004C8923438C892343CC8923431A4302805C
:10441000838B4FF2FF74234083830B8A038210BD8A
:1044200010B5044600BF02210948FFF7CDFF002860
:10443000F9D021460648FFF7D3FF00BF0121044809
:10444000FFF7C2FF0028F9D00148FFF7C6FF10BDF3
:10445000003C0040F0EE400A20EEA00A7047704792
:1044600030B50346F5EEC00AF1EE10FA1EDBB5EEEC
:10447000C00AF1EE10FA0CDB9FEDB41A20EE811A9F
:10448000B4EEC01AF1EE10FA01DD02242CE0012492
:104490002AE09FEDAF1A20EE811AB4EEC01AF1EEB9
:1044A00010FA01DD03241FE002241DE0B5EEC00A6E
:1044B000F1EE10FA0CDB9FEDA61A20EE811AB4EE95
:1044C000C01AF1EE10FA01DD05240DE006240BE020
:1044D0009FED9E1A20EE811AB4EEC01AF1EE10FA8A
:1044E00001DD042400E00524072C2BD2DFE804F0D2
:1044F000F2042B547BA2CB00DFED942AB0EE402ACD
:1045000002EEE02AB0EE421A9FED922A20EE822AB5
:10451000F0EE421AB7EE002A32EE412A32EE612A5C
:10452000F6EE002A22EE222A83ED002A93ED002ADD
:1045300032EE012A81ED002A91ED002A32EE212A85
:1045400082ED002AC6E0DFED812AB0EE402A02EEBD
:10455000A02AB0EE421AB1EE402ADFED7C2A02EE2C
:10456000A02AF0EE421AB7EE002A32EE412A32EECD
:10457000612AF6EE002A22EE222A81ED002A91ED30
:10458000002A32EE212A83ED002A93ED002A32EE32
:10459000012A82ED002A9DE09FED6E2A20EE822AFC
:1045A000B0EE421AB1EE402ADFED682A02EEE02AB0
:1045B000F0EE421AB7EE002A32EE412A32EE612ABC
:1045C000F6EE002A22EE222A81ED002A91ED002A41
:1045D00032EE012A82ED002A92ED002A32EE212AE3
:1045E00083ED002A76E0B1EE402ADFED582A02EE94
:1045F000A02AB0EE421A9FED582A20EE822AF0EE51
:10460000421AB7EE002A32EE412A32EE612AF6EE65
:10461000002A22EE222A82ED002A92ED002A32EEB2
:10462000212A81ED002A91ED002A32EE012A83ED44
:10463000002A4FE0B1EE402ADFED442A02EEE02AE4
:10464000F0EE421ADFED412AB0EE402A02EEE02AF7
:10465000B0EE421AB7EE002A32EE612A32EE412A5B
:10466000F6EE002A22EE222A82ED002A92ED002A9E
:1046700032EE212A83ED002A93ED002A32EE012A40
:1046800081ED002A26E09FED342A20EE822AB0EE4A
:10469000421ADFED2E2AB0EE402A02EEA02AF0EEFA
:1046A000421AB7EE002A32EE412A32EE612AF6EEC5
:1046B000002A22EE222A83ED002A93ED002A32EE10
:1046C000212A82ED002A92ED002A32EE012A81EDA4
:1046D000002A00BF00BF93ED001AB5EEC01AF1EE3C
:1046E00010FA2ADB93ED001AF7EE001AB4EEE11A85
:1046F000F1EE10FA21D891ED001AB5EEC01AF1EEE4
:1047000010FA1ADB91ED001AF7EE001AB4EEE11A76
:10471000F1EE10FA11D892ED001AB5EEC01AF1EED2
:1047200010FA0ADB92ED001AF7EE001AB4EEE11A65
:10473000F1EE10FA01D8012000E0002005460DB18D
:10474000002030BD4FF0FF30FBE700003ACD133FB3
:104750003ACD13BF3ACD933F3ACD93BF002015E039
:10476000002100EB40020B4B43F8221000EB40020B
:1047700003EB8202918000EB400203EB8202D180C6
:1047800000EB400203EB82021172401C0528E7DBBC
:1047900070470000145B002010B58448007800EEDC
:1047A000100AB8EE400A824880ED000A814800787D
:1047B00000EE100AB8EE400A7D4880ED010A7E48FE
:1047C000007800EE100AB8EE400A794880ED020A3F
:1047D0007A48007800EE100AB8EE400A744880ED7E
:1047E000030A7648407800EE100AB8EE400A704896
:1047F00080ED040A714890ED080A6D4880ED050AC5
:104800006E4890ED070A6A4880ED060A6B4890ED05
:10481000010A674880ED070A684890ED020A64487B
:1048200080ED080A654890ED030A614880ED090AA9
:10483000624890ED040A5E4880ED0A0A5F4890EDF8
:104840000C0A5B4880ED0B0A5D4890ED000A584861
:1048500080ED0C0A5A4890ED010A554880ED0D0A8A
:10486000574890ED020A524880ED0E0A554890EDE7
:10487000010AB8EEC00A4E4880ED0F0A514890ED8B
:10488000020A4B4880ED100A4E4890ED030A484852
:1048900080ED110A4B4890ED050A454880ED120A5B
:1048A000484890ED040A424880ED130A454890EDCF
:1048B000060A3F4880ED140A424890ED070AB8EE18
:1048C000C00A3B4880ED150A3E4890ED080A38487A
:1048D00080ED160A3B4890ED090A354880ED170A2D
:1048E000384890ED0A0A324880ED180A36480078B8
:1048F00000EE100AB8EE400A2D4880ED190A324841
:1049000090ED070AB8EEC00A294880ED1A0A2E4831
:1049100090ED040A264880ED1B0A2B4890F82500EC
:1049200000EE100AB8EE400A214880ED1C0A264825
:1049300090ED0A0AB8EEC00A1D4880ED1D0A224813
:1049400090ED050AB8EEC00A194880ED1E0A1E480F
:1049500090ED060A164880ED1F0A1C48C07800EE4C
:10496000100AB8EE400A124880ED200A1848007874
:1049700000EE100AB8EE400A0D4880ED210A07F05B
:10498000FFF800EE100AB8EE400A094880ED220A4E
:104990001048007800EE100AB8EE400A044880ED96
:1049A000230AA42107F0F6FA10BD0000B40200208B
:1049B00004020020B5020020A00100206C2000208D
:1049C00020200020841F0020E41F002087030020F7
:1049D0002C040020860300202DE9FC4107460C46EC
:1049E00015461E46DDF820800020009001908DF8CD
:1049F000004010480068000E8DF801000D48006866
:104A0000000C8DF802000B480088000A8DF80300A6
:104A1000084800788DF804008DF805508DF8066080
:104A20008DF80780082269463846FEF705FFBDE885
:104A3000FC810000140000200CB5002001900090C3
:104A40003448006840F480303249086000BF314883
:104A5000006800F4003000900198401C019000981C
:104A600018B90198B0F5A04FF1D12A48006800F4B8
:104A7000003010B10120009001E00020009000986B
:104A8000012846D123484030006840F08050214939
:104A9000403108602048006840F440401E490860EA
:104AA0001C48083000681B49083108600846006847
:104AB00040F4004008600846006840F4A0500860D8
:104AC0001648091F0860081F006840F08070091F21
:104AD000086000BF0F48006800F000700028F9D09F
:104AE00040F205700E4908600A480830006820F05E
:104AF00003000849083108600846006840F00200D9
:104B0000086000BF03480830006800F00C00082867
:104B1000F8D10CBD00380240007000400854400736
:104B2000003C02407047000010B51548006840F492
:104B30007000134908601348006840F001001149F3
:104B4000086000200F49083108600E4800680E49CF
:104B500008400C4908600D48091D0860081F0068DE
:104B600020F48020091F0860002006490C310860ED
:104B7000FFF762FF4FF0006001498039086010BD07
:104B800088ED00E000380240FFFFF6FE1030002400
:104B9000F0B50C46154600210022068C4FF6FE7734
:104BA0003E400684018B028C4FF60C7631407E1C11
:104BB00006EA03162E4331434FF6F576324044F0B1
:104BC0000106324301830284F0BDF0B50C46154660
:104BD000002100220026078C4FF6EF7C07EA0C0725
:104BE0000784018B028C4FF6FF7707EA041640F624
:104BF000FF4739404FF6FF7707EA033739434FF64F
:104C0000FF7707EA052739434FF65F773A4046F0CA
:104C100010073A4301830284F0BDF0B50C461546F7
:104C2000002100220026078C4FF6FF6C07EA0C07D4
:104C30000784818B028C4FF6FF7707EA04264FF634
:104C40000C7739404FF6FF7707EA03172F433943B4
:104C50004FF2FF573A4046F480773A43818302840B
:104C6000F0BDF0B50C461546002100220026078C49
:104C70004EF6FF7C07EA0C070784818B028C4FF607
:104C8000FF7707EA043640F6FF4739404FF6FF77D3
:104C900007EA052739434FF6FF7707EA0337394319
:104CA00045F6FF773A4046F480573A4381830284C1
:104CB000F0BD000000B58FB001210320FFF7EEF832
:104CC00001210846FFF72AF9012208215D48FEF775
:104CD000B1FC012209215B48FEF7ACFC01220A214C
:104CE0005848FEF7A7FC01220D215748FEF7A2FC09
:104CF00001220E215448FEF79DFC01220F2152484B
:104D0000FEF798FC4FF4E0600C9002208DF8340020
:104D100000208DF8360003208DF8350000208DF836
:104D200037000CA94748FEF73DFC4FF460400C905B
:104D300002208DF8340000208DF8360003208DF815
:104D4000350000208DF837000CA93F48FEF72AFCFB
:104D50003E4800F047FB0020ADF824006020ADF88D
:104D6000260040F6AC500A900020ADF82C0002203E
:104D70008DF82E0009A9354800F0B0FD7020ADF87F
:104D800010000120ADF812000420ADF8140040F22C
:104D9000D66006900020ADF81C00ADF81E00ADF8FE
:104DA0002000ADF8220004A9284800F05FFC04A907
:104DB000264800F0A3FC04A9244800F0FFFC0821C9
:104DC000224800F091FC0821204800F0E9FC08216D
:104DD0001E4800F043FD4FF40060ADF800004010A5
:104DE000ADF802000020ADF804006420ADF8060024
:104DF0000020ADF808004FF40050ADF80A00002084
:104E0000ADF80C006946114800F0BEFA19208DF883
:104E1000380001208DF83B000EA8FEF773FF20211B
:104E20000A4800F024FD0121084800F0A1FA012100
:104E3000064800F0B9FA01221146044800F00CFCC3
:104E40000FB000BD0000024000040240000001401D
:104E500038B50121294800F0A7FA2948006842F630
:104E600004110844264908602448008800F0100511
:104E700065B906F065FE234805F0DAFC21492048B3
:104E8000006805F009F904F031FC0CE0002400E0B2
:104E9000641C142CFCD31B4805F0CAFC194805F00F
:104EA00099F906F0F9FD1848006858B9012016492B
:104EB000086000204FF40063144A15A100900120FF
:104EC000FFF760F9FEF714F915490860154890EDF1
:104ED000000A084680ED010A134890ED000A0846D2
:104EE00080ED020A114890ED000A084680ED030AA1
:104EF00010220120FFF780F938BD000000000140BA
:104F000024030020781F00202003002058170020D1
:104F10004A53636F70655F74346634663466340078
:104F2000581F0020CC030020D003002008040020DC
:104F30000EB501210846FEF7D1FF40F2E73001909F
:104F40005320ADF800000020ADF80200ADF80800D5
:104F500069464FF0804000F0C1FC2021480600F077
:104F600086FC0121880700F022FA0EBD00B589B049
:104F700001210220FEF792FF01210220FEF7AEFF81
:104F80003020079002208DF8200000208DF82200AC
:104F900001208DF8210000208DF8230007A91F486B
:104FA000FEF700FB022204211C48FEF743FB02220D
:104FB00005211A48FEF73EFB4FF6FF7005900020D2
:104FC000ADF81000ADF81200ADF8180004A91448AF
:104FD00000F084FC00231A460321114800F0CAFAAD
:104FE00001A800F030FB0020ADF804000420ADF86B
:104FF0000C0001A90A4800F0EFFA0420ADF8040003
:1050000001A9074800F0E8FA0021054800F038FC43
:105010000121034800F0CBF909B000BD00040240B3
:105020000004004000B589B001210220FEF756FFC0
:1050300001210620FEF732FF1020019002208DF89A
:10504000080003208DF8090000208DF80A000120D7
:105050008DF80B0001A93448FEF7A4FA02220421BE
:105060003148FEF7E7FA2020019001A92E48FEF70B
:1050700099FA022205212C48FEF7DCFA4FF4007061
:10508000019001A92948FEF78DFA0222092127483B
:10509000FEF7D0FA0020ADF80C00ADF80E004FF688
:1050A000FF7004900020ADF8140003A9204800F020
:1050B00015FC0020ADF81800ADF81A000120ADF87D
:1050C0001C000020ADF81E00ADF8200006A918480D
:1050D00000F082FA0420ADF818000020ADF81A00A4
:1050E0000120ADF81C000020ADF81E00ADF8200036
:1050F00006A90F4800F070FA0C20ADF81800002047
:10510000ADF81A000120ADF81C000020ADF81E001B
:10511000ADF8200006A9064800F05EFA0121044817
:1051200000F045F909B000BD00040240000802404B
:105130000004004010B50121574800F03CFA002857
:105140007DD05648007800BB01205449087040F6D5
:10515000FF719FED532ADFED531A9FED531AF3EEC3
:10516000090A9FED520A5248FEF7BCFD40F6FF7156
:105170009FED4B2ADFED4B1A9FED4B1AF3EE090A18
:105180009FED4A0A4B48FEF7ADFD4B490888494957
:10519000FEF794FD494880ED000A47494888444994
:1051A000FEF78CFD464880ED000A46480068401C2A
:1051B00044490860444890ED000A444880ED000AE4
:1051C000434890ED000A414880ED010A414890EDC6
:1051D000000A3E4880ED020A3F4890ED000A3B4835
:1051E00080ED030A3D4890F8250000EE100AB8EE65
:1051F000400A364880ED040A394890ED000A3348E9
:1052000080ED050A364890ED010A304880ED060A27
:10521000334890ED020A2D4880ED070A314890EDA1
:10522000000A2A4880ED080A2F4890ED000A274816
:1052300080ED090A2D4890ED000A244800E029E09D
:1052400080ED0A0A2A4890ED010A204880ED0B0AF9
:105250001B4890ED000A1D4880ED0C0A174890EDA0
:10526000000A1A4880ED0D0A13490889FEF70AFA68
:10527000164880ED0E0A1048008900EE100AB8EEBC
:10528000400A124880ED0F0A06F0EEFF01210248A5
:1052900000F08AF810BD0000001400409C010020BE
:1052A0003333534000404E4500E0764500401C46F5
:1052B000D4140020EC140020801400209801002059
:1052C000940100208C010020D0030020B0010020B8
:1052D00008040020CC03002004040020E41F002068
:1052E000CC1F0020180300201C030020F80200201F
:1052F000CC0200201FB501212020FEF7EFFD372052
:105300008DF8000001208DF803006846FEF7FAFCD6
:1053100040F2E73002905320ADF804000020ADF8D1
:105320000600ADF80C0001A9064800F0D7FA0122EA
:105330001146044800F090F90121024800F037F8C6
:105340001FBD00000014004010B50121064800F008
:1053500032F940B10121044800F026F80348006802
:10536000401C0249086010BD0020004010000020D1
:1053700021B1028842F08002028004E002884FF6E8
:105380007F731A40028070470A884B881A438B88C3
:105390001A43CB881A430B891A434B891A438B89CA
:1053A0001A43A0F844207047CA430282704721B1D3
:1053B000028842F00102028004E002884FF6FE7388
:1053C0001A400280704731B1B0F8442042F40042E4
:1053D000A0F8442005E0B0F84420C2F30E02A0F883
:1053E0004420704710B504465548844208D1012135
:1053F0000846FEF7A3FD00210120FEF79FFD9DE07A
:10540000B4F1804F08D101210846FEF777FD002155
:105410000120FEF773FD91E04A48844208D1012142
:105420000220FEF76BFD00210220FEF767FD85E0FC
:105430004548844208D101210420FEF75FFD002188
:105440000420FEF75BFD79E04048844208D1012149
:105450000820FEF753FD00210820FEF74FFD6DE008
:105460003B48844208D101211020FEF747FD00216E
:105470001020FEF743FD61E03648844208D1012147
:105480002020FEF73BFD00212020FEF737FD55E0F0
:105490003148844208D101210220FEF74FFD00214E
:1054A0000220FEF74BFD49E02C48844209D101213E
:1054B0000804FEF743FD00214FF48030FEF73EFD67
:1054C0003CE02748844209D101214804FEF736FD1B
:1054D00000214FF40030FEF731FD2FE021488442D7
:1054E00009D101218804FEF729FD00214FF4802015
:1054F000FEF724FD22E01C48844208D1012140200F
:10550000FEF7FCFC00214020FEF7F8FC16E01748EF
:10551000844208D101218020FEF7F0FC0021802088
:10552000FEF7ECFC0AE01248844207D10121801505
:10553000FEF7E4FC0021A015FEF7E0FC10BD000022
:10554000000001400004004000080040000C004042
:1055500000100040001400400004014000400140E1
:10556000004401400048014000180040001C004079
:1055700000200040F0B50C4615461E4600210022D2
:1055800000230189028B038C4FF6F87739402143C1
:105590004FF6FC473A4040F201173A434FF6DD77A9
:1055A0003B404FF6FF7707EA06172F433B43018145
:1055B00002830384F0BD30B502460020002300249E
:1055C000158A05EA0103958905EA010413B10CB1B6
:1055D000012000E0002030BD70B505460C46208853
:1055E00050B92389A28861882846FFF7D1FAE1885B
:1055F000284600F047F925E0208804280AD12389AD
:10560000A28861882846FFF7E0FAE188284600F082
:1056100042F917E0208808280AD12389A2886188E6
:105620002846FFF7FAFAE188284600F041F909E038
:105630002389A28861882846FFF713FBE188284662
:1056400000F03FF970BD002101804180012181807F
:105650000021C180018170471AB183890B43838186
:1056600002E083898B4383817047000070B500247A
:1056700000220023058C4FF6FE7635400584028C0F
:105680008388048B4FF68F752C40B51E2C400D88F7
:105690002C43751E2A408D892A434D882A43104D7C
:1056A000A84202D00F4DA84213D14FF6F7752A40F9
:1056B000CD892A434FF6FB752A408D882A434FF641
:1056C000FF652B404FF6FF552B400D8A2B434D8A2B
:1056D0002B43838004838D684563028470BD000082
:1056E00000000140000401400A460021018B4FF6F2
:1056F000F7731940114301837047000070B500240F
:1057000000220023058C4FF6EF7635400584028C8D
:105710008388048B48F6FF752C404FF6FF452C40DC
:105720000D884FF6FF7606EA05252C434FF6DF7508
:105730002A408D8906EA05152A434D8806EA051593
:105740002A43154DA84202D0144DA8421DD14FF650
:105750007F752A40CD894FF6FF7606EA05152A4364
:105760004FF6BF752A408D8806EA05152A434FF685
:10577000FF352B404FF2FF752B400D8A06EA850559
:105780002B434D8A06EA85052B43838004838D686D
:105790008563028470BD00000000014000040140E8
:1057A0000A460021018B4FF2FF7319404FF6FF7339
:1057B00003EA0223194301837047000070B50024F7
:1057C00000220023058C4FF6FF6635400584028CCD
:1057D0008388848B4FF68F752C404FF6FC752C40D8
:1057E0000D882C434FF6FF552A408D894FF6FF76E2
:1057F00006EA05252A434D8806EA05252A43154D64
:10580000A84202D0144DA8421DD14FF2FF752A4084
:10581000CD894FF6FF7606EA05252A434FF6FF3578
:105820002A408D8806EA05252A434EF6FF752B404F
:105830004DF6FF752B400D8A06EA05152B434D8A60
:1058400006EA05152B43838084838D68C563028433
:1058500070BD000000000140000401400A46002124
:10586000818B4FF6F773194011438183704782880B
:105870004FF68F731A40828082880A438280704775
:1058800041627047028B4FF6F3731A400283028B1A
:105890000A4302837047028B4FF2FF331A400283A0
:1058A000028B4FF6FF7303EA01231A43028370470A
:1058B000828B4FF6F3731A408283828B0A43828372
:1058C0007047828B4FF2FF331A408283828B4FF6F0
:1058D000FF7303EA01231A43828370470022028880
:1058E000184B98420ED0184B98420BD0B0F1804F15
:1058F00008D0164B984205D0154B984202D0154B54
:10590000984204D14FF68F731A404B881A43124BBA
:10591000984207D0114B984204D04FF6FF431A40EB
:105920000B891A4302804B68C3620B880385054BC1
:10593000984202D0044B984201D18B7A038601230E
:1059400083827047000001400004014000040040D1
:1059500000080040000C004000100040001400400F
:1059600010B540F22441154800F066F9012823D112
:1059700012480088124908601048001D008808601D
:105980001048FDF707FBC0F580700D490860002145
:105990000C48FDF73DFA00BF0A48FDF7F1FA002870
:1059A000FAD14FF480710748FDF756FB01210548F5
:1059B000FDF72EFA03F0D6FC10BD000000440040B5
:1059C000A40100208860024010B596B00446012171
:1059D0004148FEF763FA01214804FEF77FFA0722E7
:1059E00002213E48FDF726FE072203213B48FDF732
:1059F00021FE0C20149002208DF8540000208DF818
:105A0000560001208DF8570002208DF8550014A98A
:105A10003248FDF7C7FD26208DF83C0002208DF8A6
:105A20003D0000208DF83E0001208DF83F000FA8BA
:105A3000FEF768F92A4800F087F810940020ADF8C6
:105A40004C000C20ADF84A000020ADF84800ADF83D
:105A50004600ADF8440010A9214800F03DF90122AC
:105A600040211F4800F066F801211D4800F056F85B
:105A7000012240F224411A4800F008F91948FDF7C4
:105A8000D3F94FF0006000901548001D01901648B2
:105A90000290002003904FF4807004900020059045
:105AA0004FF4806006900020079008904FF48070BB
:105AB000099040020A9000200B9003200C900020D7
:105AC0000D900E9069460748FDF79AFA01210548A6
:105AD000FDF79EF916B010BD010020000000024045
