:020000040800F2
:10000000E0590020A10100086D3900081D370008E3
:1000100069390008211A0008597D00080000000015
:1000200000000000000000000000000093400008F5
:10003000DD30000800000000EB3B0008954600089A
:10004000BB010008BB010008BB010008BB010008A0
:10005000BB010008BB010008BB010008BB01000890
:10006000BB010008BB010008BB010008BB01000880
:10007000BB010008BB010008BB010008BB01000870
:10008000BB010008352E0008BB010008BB010008B9
:10009000791B0008BB010008BB010008BB01000878
:1000A000BB010008C1490008BB010008BB010008F2
:1000B000BB010008BB010008BB010008BB01000830
:1000C000BB010008BB010008BB010008BB01000820
:1000D000BB010008BB01000885550008BB010008F2
:1000E000BB010008BB0100083D3B0008BB01000844
:1000F000BB0100086D4F0008BB010008BB010008F0
:10010000BB010008BB010008BB010008BB010008DF
:10011000BB010008BB010008BB010008294C000816
:10012000BB010008BB010008BB010008BB010008BF
:10013000BB010008BB010008BB010008BB010008AF
:10014000BB010008BB010008BB0100082D3B0008F3
:10015000BB010008BB010008BB010008BB0100088F
:10016000BB010008BB010008BB010008BB0100087F
:10017000BB010008BB010008BB010008BB0100086F
:10018000BB010008BB010008DFF810D000F042FFFF
:1001900000480047C1AE0008AFF30080E0590020DE
:1001A0000648804706480047FEE7FEE7FEE7FEE711
:1001B000FEE7FEE7FEE7FEE7FEE7FEE799460008FA
:1001C000890100082DE9F0410024061B254671F144
:1001D000000605DA01240027D0EB070067EB0101D8
:1001E000161E73F1000605DA0027D2EB070201257F
:1001F00067EB030300F099FC86460E4617469C46C3
:10020000AC4204D00025D0EB050E65EB010624B10D
:100210000020D2EB000760EB030C704631463A46F3
:100220006346BDE8F081D2B201E000F8012B491E1F
:10023000FBD270470022F6E710B513460A46044683
:100240001946FFF7F0FF204610BD30B505462A4697
:100250000B4612F8010B13F8014B08B1A042F8D07D
:100260001CB1002802D06D1CF1E7284630BD00000B
:100270000FB400B58DB010A909900B9000914FF00C
:10028000FF300A9000200C90054806900548079022
:100290006A4609A80F9900F0AFFC0DB05DF814FB99
:1002A000150C0008330C00082DE9FF5F1D464FF0C8
:1002B000FF3BD5E9014691465F464FF00008A9692A
:1002C0007F1C01988847296A824688470028F6D112
:1002D000BAF1FF3F0CD024F4C064002E19DD600693
:1002E00014D5BAF12B0F09D0BAF12D0F0ED103E0BE
:1002F000584604B0BDE8F09F44F48064A9697F1CAF
:1003000001988847761E8246002E02DDBAF1300F32
:1003100003D0B9F1000F26D032E0A969761E44F46B
:1003200000747F1C019888478246002E05DDBAF1D3
:10033000780F06D0BAF1580F03D0B9F1000F10D0E2
:100340001EE0B9F1000F02D0B9F1100F18D1A96960
:10035000761E24F400747F1C019888478246102082
:1003600002E0082000E00A20814609E008FB0908B5
:10037000A969761E44F400747F1C01988847824660
:10038000002E05DD4946504600F021FC0028EDDA3C
:10039000E96901988847A00502D46FF00100A8E739
:1003A000E00725D1600613D5600502D5C8F100002D
:1003B00000E0404629680A1D2A600968220501D527
:1003C000087015E0220701D5088011E008600FE0F1
:1003D0002868011D29600068210502D580F8008089
:1003E00006E0210702D5A0F8008001E0C0F80080F7
:1003F00038467EE72DE9FF4F087883B09946FF28FD
:1004000005D0491C2D2804D00024002008E000203D
:100410000BE00124F9E700EB800003EB4000491CEE
:100420000B78FF2BF7D104B14042002302931478DC
:1004300019461D462D2C01D02B2C04D1521C2D2CDD
:1004400013D000240294AA461478FF2C0FD00A255A
:10045000A3FB057801FB05814FF0000C03FB0C1199
:10046000521CE3194AEB0101EEE70124EAE781445B
:1004700053EA010002D019F5C87F06DA039800217B
:10048000C0E9001107B0BDE8F08F0025AE4E2F4641
:10049000DFF8B882184600F066FDCDE90001B9F139
:1004A000000002DAC9F1000400E004460023A74A74
:1004B0001AEB030B42EB045A12E0E00707D02A467E
:1004C00033463846414600F0F9F9074688462A4641
:1004D00033461046194600F0F1F905460E46641001
:1004E000002CEAD1DDE90001B9F1000F5A4653466C
:1004F00006DA00F055FA3A46434600F051FA05E0B4
:1005000000F0DCF93A46434600F0D8F9029A0AB105
:1005100081F00041039AC2E90001B3E72DE9FF4FE2
:100520001F468DB0D7E901464FF0FF382E204546D3
:100530004FF000090B90B9696D1C0E988847396A15
:10054000824688470028F6D1BAF1FF3F0AD024F44A
:10055000D064002E11DDBAF12B0F08D0BAF12D0FA7
:100560000BD102E0404611B08DE744F48064B969D4
:100570006D1C0E9888478246761E6946600501D537
:100580002D2000E02B208DF8000001F1010B0DF172
:10059000200809E0B9696D1C0E98884782460F98BB
:1005A00044F40074761E0560002E02DDBAF1300FAF
:1005B000F0D00B998A453ED144F0800406E00F99B3
:1005C000681CA9F1010944F400740860B9696D1C44
:1005D000761E0E98884782463028F0D02BE00B9983
:1005E0008A4505D1200603D444F08004761E18E025
:1005F000504608F0E7F808B30DF11301761E44F4F5
:1006000000748B4508D2AAF130000BF8010B2006CC
:1006100007D5A9F1010003E0200602D409F1010089
:100620008146A00502D50F99681C0860B9696D1C48
:100630000E9888478246002ED1DC53E0002E51DD13
:10064000BAF1650F02D0BAF1450F4BD1A00549D5DB
:10065000B9696D1C24F44074761E0E988847824652
:10066000002E0CDD2B2804D0BAF12D0F07D144F455
:100670008074B9696D1C0E9888478246761EE00525
:1006800001D52D2100E02B2108F8011BCDF82C808D
:1006900021E00DF12901761E44F4007488450CD246
:1006A000AAF1300010F0FF0088F8000002D10B9989
:1006B000884509D908F1010806E0E00501D524487C
:1006C00001E042F20F708146B9696D1C0E988847AF
:1006D00082460F980560002E04DD504608F072F83F
:1006E0000028D6D1F9690E988847FF208BF80000C2
:1006F00088F800000020069007904B466A4608A93B
:1007000006A8FFF777FEA00502D46FF001002AE7E4
:1007100014F0240F0AD0E00714D1DDE9061238687E
:10072000031D3B600068C0E900120BE0DDE9060133
:1007300000F0C9F90146E00704D13868021D3A60AB
:100740000068016028460EE7000014400000F03FFA
:10075000F1D8FFFF70B5064607F02CFC046805468B
:100760000A220021304600F0C3FA2C6070BD2DE94A
:10077000FE4F804681EA0300C00F0C46009021F036
:10078000004123F00045B8EB0200A94105D24046E4
:10079000214690461C460B46024623F0004010437B
:1007A00047D0270DC7F30A00C3F30A510290401A3D
:1007B000019040286BDAC3F3130040F4801B0098CB
:1007C000924620B10023D2EB030A63EB0B0B019896
:1007D0005946C0F14002504600F0D8F906460D4691
:1007E00050465946019A00F0E0F910EB08006141CB
:1007F000002487EA115284EAE7731A4340D0009A32
:1008000062B3019A012A4FEA075215DC001B61EB23
:1008100002014FF0004202EA0752CDE90042001CFB
:1008200041F5801132462B4600F0FEFA03B0BDE8D8
:10083000F08F40462146F9E7001B61EB0201001CE6
:1008400041F5801300185B412018A2F5001747EB13
:10085000030140EAD570B6196D4111E06D084FEA09
:10086000360645EAC0754FEA0752001B61EB0201EC
:10087000001C41F5801149084FEA30000019514130
:1008800032462B4603B0BDE8F04F00F0BEBA0098E8
:10089000012240000023D0EB020263EBE0730098DA
:1008A00021464FEAE074B8EB000061EB0401E9E790
:1008B00083F000435BE781F0004158E72DE9FE4FEC
:1008C00081EA030404F0004421F0004100944FF059
:1008D000000B23F0004350EA01045ED052EA030407
:1008E0005BD0C3F30A54C1F30A552C44A4F2F33489
:1008F0000194A0FB0254C1F3130141F48011C3F32E
:10090000130343F4801301FB024400FB034E840AEB
:10091000970A44EA815447EA8357A4FB0768029583
:100920008D0A05FB07854FEA932C04FB0C54270521
:10093000029D4FEA065847EA1637B5EB08056EEBFD
:10094000070C870E920E47EA811742EA8312A7FB33
:100950000201B6EB0B0164EB00042B0D43EA0C33F0
:100960005E1844EB1C50DA465146E7FB0201C5F322
:1009700013044FEA0B3343EA14534FEA0432019C49
:1009800043EA0603A4F10C040294009CCDE900B4F0
:1009900000F04AFA03B0BDE8F08F00200146F9E705
:1009A0002DE9F04D81EA030404F0004B21F00045ED
:1009B00014464FF0000A23F0004150EA050220D00F
:1009C00054EA01021DD0C5F30A570246C5F31303CA
:1009D000C1F31300C1F30A5640F4801543F48013A9
:1009E000A7EB0608101BD64608F2FD3873EB05008E
:1009F00002D308F1010801E092185B41B8F1000F41
:100A000003DA00200146BDE8F08D00204FF480118C
:100A1000064684460EE0171B73EB050705D3121B31
:100A200063EB050306434CEA010C49084FEA30002A
:100A300092185B4150EA0107EDD152EA030012D04F
:100A400082EA040083EA0501084305D0101BAB418C
:100A500006D20122002306E000224FF0004302E00C
:100A60006FF0010253101AEB06004CEB085110EB2B
:100A70000A0041EB0B01BDE8F04D00F0C6B90EB520
:100A8000C10F80EAE0700844CA07002140F23343F6
:100A90008DE80E000A460B4600F0C6F903B000BD13
:100AA00000F0004230F000400AD0C10D01F5607145
:100AB000C0F3160042EA0151C208400711437047D3
:100AC00000200146704701F0004330B421F000419E
:100AD00050EA010206D00A0DA2F56072C1F31301BB
:100AE000002A02DC30BC00207047440F44EAC104F5
:100AF000C100E01830BC00EBC25000F031B930B595
:100B00000B46014600202022012409E021FA02F5CB
:100B10009D4205D303FA02F5491B04FA02F5284465
:100B2000151EA2F10102F1DC30BD2DE9F05F054692
:100B3000002092469B4688460646814640241BE09C
:100B4000284641464746224600F076FA53465A4622
:100B5000C01A914110D311461846224600F016F8EB
:100B60002D1A67EB01084F4622460120002100F0B4
:100B70000DF817EB00094E41201EA4F10104DFDC43
:100B8000484631462A464346BDE8F09F202A04DB0A
:100B9000203A00FA02F1002070479140C2F1200390
:100BA00020FA03F3194390407047202A06DBCB1745
:100BB000203A41FA02F043EAE07306E041FA02F318
:100BC000D040C2F1200291400843194670473A28AC
:100BD00000D2303820F02002412A01D3A2F13700A0
:100BE000884201D34FF0FF30704700000268114483
:100BF0001378016018467047D16004495161044977
:100C0000116200211161114600F034BAED0B0008A9
:100C100061100008426842B1016811F8013B23B13C
:100C2000521EC0E90012184670470121C160881E9B
:100C3000704742685AB1C368016843B983688B4200
:100C400005D0491E521CC0E90012002070474FF029
:100C5000FF3070470FB4002300B589B00CA9009194
:100C60000B996FF00042CB601E4B06931E4B07930F
:100C70000423CDE901321D4A089202466B4600204A
:100C8000FFF74CFC09B05DF814FB70B586B0064662
:100C90004FF0FF300091CDE90101002015460C46D0
:100CA00004903246694604A8FFF7D4FF0246049830
:100CB000211825B108B1084600E0204628600498B4
:100CC00000280DD0002A02DD0098884208D0081BB9
:100CD0000094CDE901043246694604A8FFF7BAFF43
:100CE00006B070BD150C0008330C00086110000838
:100CF0002DE9F04791460F4680460446002614F839
:100D0000015B2DB100F0A8F90068405DC007F6D185
:100D10002B2D02D02D2D18D0641E4A463946204670
:100D200000F040FB27B13968A14201D1C7F800802B
:100D300071054FF002040BD54042002803DD07F097
:100D400039F90460A007BDE8F08746F48066E4E75F
:100D50000028F8DA07F02EF904606FF00040F2E79F
:100D60000029A8BF7047401C490008BF20F00100BF
:100D7000704710B4B0FA80FC00FA0CF050EA01049D
:100D800004BF10BC704749B1CCF1200421FA04F42F
:100D900011FA0CF118BF012121430843A3EB0C0108
:100DA000CB1D4FEA00614FEA102042BF002010BC6B
:100DB000704700EBC35010440029A4BF10BC70471B
:100DC000401C490008BF20F0010010BC704710B55E
:100DD00041000CD0C0F3C751962908DC7E2909DCFC
:100DE00006DB410204D000F0004040F07E5010BD10
:100DF000002010BDC1F19604C4F1200100FA01F1F8
:100E0000E040FFF7ADFFA04010BD10B5141E73F118
:100E1000000408DA401C41F1000192185B411A43BA
:100E200001D120F0010010BD2DE9F04D92469B4606
:100E300011B1B1FA81F202E0B0FA80F220329046AC
:100E4000FFF7A4FE04460F4640EA0A0041EA0B0100
:100E500053465A46084313D0114653EA010019D0AD
:100E6000C8F14002504600F0E7F805460E465046ED
:100E700059464246FFF78AFE084305D0012004E0A8
:100E800020463946BDE8F08D0020054346EAE0766D
:100E90002C4337430A986305E40AA0EB08000022BC
:100EA000FD0A44EA47540A3002D500200146E9E72A
:100EB000010510196941DDE9084500196941BDE8DE
:100EC000F04DA2E72DE9F04D00231A461B1A8A4186
:100ED00003DB00200146BDE8F08DC1F30A52C1F3E7
:100EE000130141F480154FF0000BD10702D1001817
:100EF0006D41521E0027044640F2FF11384601EBB7
:100F0000620A3E468046024600204FF4801100F0FF
:100F100093F8C2197141BB1846EB0100B4EB030C06
:100F200075EB000C04D3E41A65EB000517460E467A
:100F3000241908F101006D4180463428E3DDF919D8
:100F400046EB0600091BA84103D24FF0FF321346BF
:100F500001E0002213461BEB070046EB0A51BDE8F7
:100F6000F04DFFF752BF0EB540F23342029200221D
:100F7000CDE900221346FFF757FF03B000BDC1F3D0
:100F80000A52C1F3130140F2FF3341F480119A4237
:100F900002DA00200146704740F233439A42A2F23F
:100FA000334202DC524200F047B8FFF7EFBD0000C9
:100FB00030B5041E71F1000404DB4FF000444042E0
:100FC00064EB0101141E73F1000405DB1C464FF0B5
:100FD0000043524263EB04038B4208BF824230BDA0
:100FE00030B5041E71F1000404DB4FF000444042B0
:100FF00064EB0101141E73F1000405DB1C464FF085
:101000000043524263EB0403994208BF904230BD53
:1010100000207047064C074D06E0E06840F00103F1
:1010200094E8070098471034AC42F6D3FFF7B0F8C5
:1010300078D4000898D40008202A04DB203A21FA4A
:1010400002F00021704721FA02F3D040C2F12002E1
:1010500091400843194670470048704774D400080F
:1010600010B50446FFF7F8FF0068005D00F00100CE
:1010700010BD00002DE9F34F8BB04FF0000801F1D7
:101080000C000C464FF0010B46460DF1080A01908A
:101090006269012101989047051E2DD0252D2CD085
:1010A000216A8847C0B16269012101989047216A8D
:1010B00088470028F7D1411E62690198904700E0F7
:1010C000761CA1690B988847216A88470028F7D1C8
:1010D000E1690B988847DBE7A1690B9888470746C9
:1010E000A84201D1761CD3E7E1690B9888477F1CA1
:1010F00002D1B8F1000F6FD047E1002762693D4689
:101100003946019890472A2804D162690121019843
:1011100090470125DFF88892626901210198904784
:10112000A0F130010A290AD24F45E5DC07EB87011F
:1011300000EB4107303FDFD445F01005ECE7E9064E
:1011400001D46FF000476C280AD04C2814D06828CE
:1011500015D06A280DD074281CD07A281AD01DE02A
:1011600062690121019890476C2802D045F004057E
:1011700014E045F002050DE045F020050AE0626943
:10118000012101989047682802D045F0080505E044
:1011900045F400656269012101989047C4E901574F
:1011A00065283DD019DC58287AD00CDC452837D08A
:1011B00004DC252826D0412831D131E046282FD023
:1011C00047282CD12CE05B2877D0612828D06328D1
:1011D0007CD0642823D15AE0D1E06F2848D008DCC5
:1011E00066281DD067281BD0692821D06E2816D10B
:1011F00027E0702845D0732868D0752847D0782814
:101200000DD14DE0A1690B988847054625283FF48C
:1012100069AFE1690B9888476D1C3FF46AAFB4E091
:1012200023466A466FF001000B99FFF777F99FE0BC
:1012300045F040006060A80723464FF0000236D416
:101240003EE0E8077FF447AF2068011D2160006899
:10125000290501D506701BE7290701D5068017E788
:10126000A90703D5F117C0E9006111E706600FE790
:1012700045F040006060A80723464FF0080216D4EE
:101280001EE040F60E0125EA0100606016E045F020
:1012900040006060A80723464FF00A0207D40FE021
:1012A00045F040006060A80708D5234610226FF083
:1012B00001000B99AFF300805AE007E023461022AB
:1012C0006FF001000B99FEF7EFFF51E04FF00009BE
:1012D0004F464B46632802D05B2807D041E0207977
:1012E000C00601D40120A06001273AE06269012113
:1012F000019890475E2805D14FF00109626949467F
:1013000001989047216939B900210A46534643F8AC
:101310002120491C0829FADBB0B3216969B9C1173A
:1013200000EBD16253110AEB830122F01F02821AF3
:1013300001200B68904003430B6062690121019812
:1013400090475D28E8D1B9F1000F09D0002051463F
:1013500051F82020D24341F82020401C0828F7DB18
:1013600002AB224600976FF001000B99AFF30080AB
:1013700000280CDA401C08D1BBF1000F05D04FF05B
:10138000FF300DB0BDE8F08FFFE74046F9E7E90711
:1013900001D108F1010806444FF0000B78E6000087
:1013A000CCCCCC0C2DE9F05F8246007800271546A6
:1013B0008B460AF10104B946302801D09DB113E0F3
:1013C00014F8010B0127782803D0582801D045B123
:1013D0000AE00DB1102D07D10027102514F8010BDC
:1013E00002E0082500E00A250026B0460EE005FBD5
:1013F000080005FB06F1012701EB10461FFA80F8F3
:10140000B6F5803F00D3B94614F8010B2946FFF723
:10141000DEFB0028EBDABBF1000F05D00FB1641E34
:1014200000E05446CBF80040B9F1000F06D006F0BA
:10143000C1FD02210160C81EBDE8F09F48EA0640D8
:10144000FAE770B58C1810F8015B15F0070301D1AD
:1014500010F8013B2A1106D110F8012B03E010F817
:10146000016B01F8016B5B1EF9D12B0705D400233A
:10147000521E0DD401F8013BFAE710F8013BCB1ADC
:10148000921C03E013F8015B01F8015B521EF9D5D1
:10149000A142D8D3002070BD00B595B001218805C8
:1014A00002F0A4FB0121080202F0E0FB00200690FC
:1014B00048480790484808900020099004200A9066
:1014C00000200B904FF480600C9040000D90800045
:1014D0000E9040110F9040021090002011900120BA
:1014E000129000201390149006A93C4801F0C8FD0A
:1014F00001213A4801F0CCFC0020009001208DF839
:10150000040000208DF805004FF0805002904FF04D
:10151000C06003900020049004208DF814006946F8
:101520002C484C3800F094F9042301220F2129485B
:101530004C3800F00FFA04230222194625484C3893
:1015400000F008FA04230322052122484C3800F059
:1015500001FA04231A4606211E484C3800F0FAF915
:1015600001211C484C3800F0E9F900230122062132
:1015700018484C3800F096F90022142115484C38D0
:1015800000F044FA4FF4801112484C3800F057F93B
:101590004FF480310F484C3800F049F900210D48D4
:1015A0004C3800F0C1F800210A484C3800F0BBF973
:1015B000012108484C3800F024F9012105484C3835
:1015C00000F014F9012103484C3800F0B8F815B0C8
:1015D00000BD00004C20014028040020106402409F
:1015E00000B587B00121480202F040FB00200190C5
:1015F0008DF808008DF809004FF0805003904FF0EF
:10160000606004900020059001208DF8180001A969
:101610001B4800F01DF90021194800F0F2F80021E4
:10162000174800F0F9F8002301220D21144800F0BA
:1016300091F90121124800F081F9002301220A21C9
:101640000F4800F02FF9002214210D4800F0DEF9B8
:101650004FF480110A4800F0F2F84FF48031084846
:1016600000F0E5F80021064800F05EF8002104488B
:1016700000F059F90121024800F061F807B000BDFF
:101680000021014000B587B00121880202F0EEFA86
:10169000002001908DF808008DF809004FF080506F
:1016A00003904FF0606004900020059001208DF8B9
:1016B000180001A91B4800F0CBF80021194800F0E0
:1016C000A0F80021174800F0A7F8002301220C2100
:1016D000144800F03FF90121124800F02FF90023CF
:1016E00001220B210F4800F0DDF8002214210D48E3
:1016F00000F08CF94FF480110A4800F0A0F84FF484
:101700008031084800F093F80021064800F00CF8FA
:101710000021044800F007F90121024800F00FF809
:1017200007B000BD0022014021B1426842F480624E
:10173000426003E0426822F480624260704721B157
:10174000826842F00102826003E0826822F00102B6
:10175000826070470021084A1168084A1140D0E9A8
:1017600000231A4383681A43C3681A431143044A87
:10177000C2F804137047000004230140E030FCFF6E
:101780000020014000B587B00121052002F02EFAAB
:101790000121080202F06AFA7020059003208DF8FA
:1017A000180000208DF81B0005A90E4801F0E0FE8E
:1017B0002F20059003208DF8180000208DF81B00C5
:1017C00005A9094801F0D4FE002001904FF48030B3
:1017D000029000200390049001A8FFF7BBFF07B020
:1017E00000BD0000000002400008024021B18268F4
:1017F00042F48072826003E0826822F48072826028
:10180000704721B1826842F40072826003E082680E
:1018100022F400728260704721B1826842F48062D3
:10182000826003E0826822F48062826070470A4628
:101830000021816821F470211143816070470A46BC
:101840000021816821F4401111438160704700003C
:1018500030B50246002000235068104C20400D791E
:101860000C6844EA05242043506090680C4C2040EA
:10187000D1E903542C438D682C434D7944EA450447
:1018800020439060D06A20F470000C7D641EE4B2A6
:10189000234340EA0350D06230BD0000FFFEFFFC4E
:1018A000FDF7FFC0F0B504461546002000220026D3
:1018B000092911DDE068A1F10A0707EB470C0727AA
:1018C00007FA0CF29043A1F10A0707EB470703FA66
:1018D00007F21043E0600CE0206901EB410C0727A0
:1018E00007FA0CF2904301EB410703FA07F21043A9
:1018F0002061A06BC0F30156EF1C06F1010CA7EBB1
:101900000C0707EB870C1F2707FA0CF29043EF1C1C
:1019100006F1010CA7EB0C0707EB870701FA07F2AA
:101920001043A063F0BD21B1426842F4805242608E
:1019300003E0426822F480524260704710B50A46C4
:1019400000210023816B21F44011531E41EA035111
:10195000816310BDF0B504460D4600200021092D1D
:1019600011DDE068A5F10A0606EB4607072606FA30
:1019700007F18843A5F10A0606EB460603FA06F1CD
:101980000843E0600CE0206905EB4507072606FAEE
:1019900007F1884305EB450603FA06F10843206189
:1019A000072A0FDA606B561E06EB86071F2606FA1B
:1019B00007F18843561E06EB860605FA06F1084332
:1019C000606322E00D2A0FDA206BD61F06EB860734
:1019D0001F2606FA07F18843D61F06EB860605FA8E
:1019E00006F10843206310E0E06AA2F10D0606EB61
:1019F00086071F2606FA07F18843A2F10D0606EBBB
:101A0000860605FA06F10843E062F0BD08B500233A
:101A100000930090009B0B440093009B1A6008BD4C
:101A200000BFFEE72DE9F0418AB004460D46164698
:101A30001F46DDF840804E4800F0DAF905A800F0B6
:101A40002DFC0121480602F0F1F80121480602F0C0
:101A5000EDF80121022002F0C9F80121480602F048
:101A6000E5F809220821434801F0CAFD0922114680
:101A7000404801F0C5FD4FF48070089002208DF8B9
:101A8000240000208DF8260003208DF82500012079
:101A90008DF8270008A9374801F06AFD4FF400705F
:101AA000089002208DF8240000208DF826000320E5
:101AB0008DF8250001208DF8270008A92D4801F098
:101AC00057FD2B4800F094F905A800F0E7FB002033
:101AD0008DF81A0001208DF81B008DF81C000020E5
:101AE0008DF81D008DF81E008DF81F008DF81680F2
:101AF0008DF817408DF818608DF81950ADF81470F6
:101B000005A91B4800F0ADFA002000F0ADFB002055
:101B10008DF80E008DF80F0001208DF810000020C8
:101B2000ADF80400ADF80600ADF80800ADF80A0005
:101B3000ADF80C0001208DF8110001A800F074F937
:101B4000012202210A4800F083FA14208DF80000D7
:101B500004208DF8010000208DF8020001208DF88E
:101B60000300684601F004FF0AB0BDE8F081000000
:101B7000006400400004024010B50221474800F014
:101B8000D7F9002878D00421444800F0DDF8444912
:101B9000424800F0BDF8434A0021404800F0EBFA0B
:101BA00040480068404908603E48006840090028F5
:101BB00072D13C48007800F01F000F2844D00BDCA5
:101BC0000F2867D2DFE800F027292A2B2C2D2E2F93
:101BD0003031323F33373B0018284FD009DCA0F1B9
:101BE0001000082856D2DFE800F0303332313435A7
:101BF00055481C284BD006DC192840D01A2842D062
:101C00001B2847D127E01E2842D01F2841D0B0F51D
:101C1000E06F3FD100E03EE03DE03CE03BE03AE0F9
:101C200039E038E037E036E035E034E033E01D48B5
:101C300001F05EFF2FE01B4801F06CFF2BE019481C
:101C400001F04AFF27E026E025E024E023E022E03F
:101C500021E020E01FE000BFBFF34F8F1348006872
:101C600000F4E06012490843001D10490860BFF30A
:101C70004F8F00BF00BFFEE70EE00CE00BE009480D
:101C800001F0BCFE07E0074801F0CCFE03E002E0F3
:101C900001E000E000BF00BF10BD00000064004094
:101CA0000800003274060020380100200CED00E02E
:101CB0000000FA0538B5044634B1012C0CD0022CD2
:101CC00012D0032C20D117E0002003230622052187
:101CD0000090FFF7A7FE18E0002006231A46052112
:101CE0000090FFF79FFE10E000200C230622052144
:101CF0000090FFF797FE08E0002018230622052138
:101D00000090FFF78FFE00E000BF00BF38BD00006D
:101D100000220C4B994202D10023836111E0C1F3F0
:101D2000130201F000730BB1C2600AE001F080639E
:101D30000BB1026105E001F000630BB1826000E0CD
:101D4000426070477000F030B1F5007F3AD00FDC90
:101D5000202928D006DC01291CD004291DD00829FF
:101D600040D11DE0402921D0B1F5807F3AD126E055
:101D7000B1F5004F31D006DCB1F5806F25D0B1F55B
:101D8000006F2FD124E0B1F5803F12D0B1F5003FB4
:101D900028D111E0154A826025E00822C26022E0C5
:101DA0001022C2601FE0082202611CE010220261C2
:101DB00019E00822426016E01022426013E004227B
:101DC000426010E0042242600DE0042242600AE01A
:101DD000002282610422426005E000228261042226
:101DE000426000E000BF00BF704700000101010039
:101DF00010B504460B48844209D10121480601F080
:101E000025FF00214FF0007001F020FF08E00121C4
:101E1000880601F01BFF00214FF0806001F016FFE3
:101E200010BD00000064004010B50021837A01223B
:101E300002FA03F13D4A126842F001023B4B1A607C
:101E40003A4A1C3212688A43384B1C331A60027BB0
:101E5000CAB9364A0C3212688A43344B0C331A60C2
:101E60004288C38842EA0343304A4032847A42F8C7
:101E700034300288838842EA03432C4A4032847A11
:101E800002EBC4025360027B012A19D1274A0C32AB
:101E900012680A43254B0C331A604288038842EAD1
:101EA0000343224A4032847A42F83430C28883881D
:101EB00042EA03431D4A4032847A02EBC402536073
:101EC000C27A3AB9194A121D12688A43174B1B1D70
:101ED0001A6006E0154A121D12680A43134B1B1DB7
:101EE0001A60028932B9114A143212688A430F4BC0
:101EF00014331A600289012A06D10C4A143212687E
:101F00000A430A4B14331A60427B012A06D1074A5E
:101F10001C3212680A43054B1C331A60034A1268CC
:101F200022F00102014B1A6010BD00000066004063
:101F300070B504460D46002660692840002871D01F
:101F4000B5F5807F5CD010DC082D35D006DC012D86
:101F500020D0022D24D0042D72D127E0102D31D0B5
:101F6000202D35D0402D6BD138E0B5F5004F60D035
:101F700009DCB5F5007F49D0B5F5806F4CD0B5F5DB
:101F8000006F5DD14FE0B5F5803F2DD0B5F5003F36
:101F900056D12FE0A0682D4900F074FA064651E0B2
:101FA000E068032100F06EFA06464BE0E068082185
:101FB00000F068FA064645E0E068102100F062FA99
:101FC00006463FE02069032100F05CFA064639E04E
:101FD0002069082100F056FA064633E020691021F6
:101FE00000F050FA06462DE06068082100F04AFA39
:101FF000064627E06068102100F044FA064621E01A
:10200000A069012100F03EFA06461BE0A06902210A
:1020100000F038FA064615E0A069042100F032FA13
:1020200006460FE00FE0A069702100F02BFA06468B
:1020300008E06068042100F025FA064602E0FFE7A8
:10204000002600BF00E00026304670BD01010100FF
:102050001AB143690B43436102E043698B43436117
:10206000704730B5024600200023146824F00204B3
:102070001460146844F00104146000E05B1C5468B0
:1020800004F001041CB94FF6FF74A342F6D1546862
:1020900004F001040CB900206CE08C79012C04D10F
:1020A000146844F08004146003E0146824F0800491
:1020B0001460CC79012C04D1146844F040041460FD
:1020C00003E0146824F0400414600C7A012C04D15D
:1020D000146844F02004146003E0146824F0200421
:1020E00014604C7A012C04D1146844F0100414607C
:1020F00003E0146824F0100414608C7A012C04D1DD
:10210000146844F00804146003E0146824F0080420
:102110001460CC7A012C04D1146844F004041460D7
:1021200003E0146824F0040414608C78A407CD78CC
:1021300044EA05640D7944EA05444D7944EA0554BE
:102140000D886D1E2C43D461146824F001041460C2
:10215000002300E05B1C546804F001041CB14FF63E
:10216000FF74A342F6D1546804F001040CB10020BE
:1021700000E0012030BD10B500F5D87303EB01136A
:102180001B6803F004031372137A53B900F5D87374
:1021900003EB01131B6840F2FF7404EA535313600E
:1021A00009E000F5D87303EB01131B686FF060447E
:1021B00004EAD303536000F5D87303EB01131B68E3
:1021C00003F00203537200F5D87303EB01135B684D
:1021D00003F00F03937200F5D87303EB01135B68F0
:1021E0001B0AD37400F5D87303EB01139B68D372F9
:1021F00000F5D87303EB01139B681C0A147300F5F8
:10220000D87303EB01139B681C0C547300F5D8734F
:1022100003EB01139B681B0E937300F5D87303EB5C
:102220000113DB68D37300F5D87303EB0113DB688C
:102230001C0A147400F5D87303EB0113DB681C0C43
:10224000547400F5D87303EB0113DB681B0E937411
:1022500021B9C36843F02003C36003E0036943F07E
:102260002003036110BD00000B49096841F0010122
:10227000094A11601146096843F60E729143064AF5
:1022800011601146096841EA002111601146096890
:1022900021F001011160704700660040002181714A
:1022A000C171017241728172C1728170C17003216A
:1022B00001710221417101210180704710B5024670
:1022C0000020936803F08063B3F1806F00D110E0C9
:1022D000936803F00063B3F1006F01D1012008E0BF
:1022E000936803F08053B3F1805F01D1022000E0D6
:1022F0000420042874D002F5C07303EB00131B689C
:1023000003F0010402F5C07303EB00131C600B7AA9
:102310007BB94B7A0C8843EA445302F5C07404EB52
:1023200000142468234302F5C07404EB00142360F6
:1023300010E00B7A4C6843EAC4034C7A234302F55D
:10234000C07404EB00142468234302F5C07404EB4A
:10235000001423608B7A03F00F038B7202F5C073B5
:1023600003EB00135B6823F00F0402F5C07303EB6B
:1023700000135C6002F5C07303EB00135B688C7A9A
:10238000234302F5C07404EB001463608B7B1C06CE
:102390004B7B44EA03440B7B44EA0323CC7A23437C
:1023A00002F5C07404EB0014A3608B7C1C064B7C0C
:1023B00044EA03440B7C44EA0323CC7B234302F529
:1023C000C07404EB0014E36002F5C07303EB001368
:1023D0001B6843F0010402F5C07303EB00131C609B
:1023E00010BD000010B50246002321B1012907D01D
:1023F00002290FD109E090681D4C00EA04030BE0AC
:1024000090681C4C00EA040306E090681A4C00EA4D
:10241000040301E0002300BF00BF184C181BA342B7
:1024200016D007DC83B16FF08060184470B10228C9
:1024300018D111E0B0F5007F10D0114C204448B104
:10244000B0F5003F0ED10BE002230DE000230BE0BE
:10245000002309E0002307E0012305E0012303E056
:10246000012301E0002300BF00BFD8B210BD00006F
:10247000030000040003000800000310000100082E
:102480000001FFF70246002002EA01030BB1012020
:1024900000E00020704700001148D0ED0C0A9FEDCD
:1024A000111AF4EEC10AF1EE10FA02D2D0ED0C0AC4
:1024B00001E0DFED0C0AB0EE600AF0EE000A60EE1B
:1024C000200A0948C0ED000AD0ED000A60EEA00A1B
:1024D000B5EE001A60EE810A0448C0ED000A7047AC
:1024E000441100200000FA44F0030020EC03002017
:1024F00070B506460C4604F08000802808D104F030
:102500007F0000EB800106F58E7000EBC10507E04F
:1025100004F07F0000EB800106F55D7000EBC10563
:1025200004F07F00287004F08000C009687029461C
:10253000304604F099FC002070BD70B506460C468C
:1025400004F08000802808D104F07F0000EB8001B7
:1025500006F58E7000EBC10505E004EB840106F57D
:102560005D7000EBC1050020A87004F07F002870AA
:10257000C4F3C01068702946304604F04DFC0020BA
:1025800070BD2DE9F04106460D4690461F4605F008
:102590008000802808D105F07F0000EB800106F55F
:1025A0008E7000EBC10407E005F07F0000EB8001B6
:1025B00006F55D7000EBC10405F07F00207005F0AA
:1025C0008000C0096070C4F80880E770607808B1C6
:1025D0002078E080022F01D1002020712146304672
:1025E00004F0CEFB0020BDE8F0812DE9F041054666
:1025F0000E461746984606F07F0000EB800105F571
:102600005D7000EBC104E760C4F814800020A06195
:10261000607006F07F002070E878012800D1276103
:10262000207820B92146284604F0CEFA03E021465E
:10263000284604F07AFC0020BDE8F08108B50022AD
:102640000092009A61F30A12009202691268009BDC
:102650001A4303691A6008BD70B506460C4604F0BB
:102660008000802808D104F07F0000EB800106F58F
:102670008E7000EBC10505E004EB840106F55D708A
:1026800000EBC1050120A87004F07F002870C4F39E
:10269000C01068702946304604F015FC002070BD5B
:1026A0002DE9F04107460D461646984605F07F0095
:1026B00000EB800107F58E7000EBC1040120607013
:1026C00005F07F002070E66026610020A061C4F85C
:1026D0001480207820B92146384604F075FA03E0CA
:1026E0002146384604F021FC0020BDE8F0811CB5ED
:1026F0000446204604F033FAE068C06800902046A3
:1027000004F0D6FD03280BD10020A0704FF4007018
:10271000A080009820F4705000F51050009009E05F
:102720000120A0704020A080009820F4705000F597
:10273000A05000900098E168C860002001900198C6
:1027400020F4005000F5005001900198E1684861C4
:1027500001201CBDF8B50546002400200090284645
:1027600004F0E5FD064690E006F0010000287DD06B
:10277000E1B2284600F002FB0090009800F0010052
:1027800030B3012000FA04F72869406BB843296987
:10279000486300200090009820F00100401C009049
:1027A00005F1180050F8240000998160E1B2394821
:1027B0000068426828469047E878012808D13CB96B
:1027C00040F21110405D042802D1284604F0A7FA17
:1027D0000098C0F3C00060B100200090009820F085
:1027E00008000830009005F1180050F82400009906
:1027F00081600098C0F3001060B100200090009844
:1028000020F010001030009005F1180050F824005E
:10281000009981600098C0F3801060B100200090A2
:10282000009820F040004030009005F1180050F86A
:102830002400009981600098C0F3400060B100203E
:102840000090009820F00200801C009005F1180014
:1028500050F82400009981600098C0F3C01028B19E
:102860002146284600F09EFA002000E00BE0009090
:10287000009820F080008030009005F1180050F89A
:10288000240000998160641C7608002E7FF46CAFF0
:102890000120F8BD780200207CB504460025002008
:1028A0000190204604F04BFD06466FE006F0010063
:1028B000002869D0E9B2204604F049FD0190019852
:1028C00000F00100C8B300200190019820F0010041
:1028D000401C019004F1540050F8250001998160DA
:1028E000E078012817D104F1540050F82500006960
:1028F000009005EB850104F55D7000EBC100806878
:102900000099C1F31201411A05EB850204F55D70CF
:1029100000EBC2008161E9B21E48006802682046EF
:102920009047E078012808D13DB940F21110005DD0
:10293000052802D1204604F0F2F90198C0F34000C6
:1029400060B100200190019820F00200801C0190ED
:1029500004F1540050F82500019981600198C0F3FA
:10296000C00088B10B480068816820468847002075
:102970000190019820F008000830019004F1540003
:1029800050F82500019981606D1C7608002E8DD1CC
:1029900001207CBD780200203EB50446A07A70B1CB
:1029A000D4F80C010090009820F0020000900098EC
:1029B00020F0010000900099D4F80C010160002083
:1029C0000190019820F00100401C019020694068AE
:1029D0000199884321694860084800688169204658
:1029E000884700200290029820F0004000F100404B
:1029F00002900298E168486101203EBD7802002003
:102A00007CB5044600200190019820F010001030A1
:102A10000190E068806901998843E1688861E06815
:102A2000006A0090009800F00F0000EB800104F5B0
:102A30005D7000EBC1050098C0F3434007282DD21C
:102A4000DFE800F02C04051D1E2C1F0027E0009875
:102A5000C0F30A1090B10098C0F30A122046E9684A
:102A600004F07FFCE8680099C1F30A110844E860AB
:102A7000A8690099C1F30A110844A8610FE00EE0AB
:102A80000DE0082204F2CC51204604F06AFCA8694B
:102A90000099C1F30A110844A86100E000BF00BF1B
:102AA000E068806901990843E168886101207CBD84
:102AB00038B5044608480068C168204688470020A9
:102AC0000090009820F00800083000900098E1681D
:102AD0004861012038BD0000780200201FB504467F
:102AE000002000904FF48970005D0090234800683A
:102AF0004169204688472069806801900020039042
:102B0000039820F4006000F5006003900398E168EA
:102B10004861A07A70B3019800F0010050B340F210
:102B20001510005D012825D19DF80000032821D152
:102B300000200290029820F00100401C0290D4F87E
:102B40000C01006802990843D4F80C11086002983F
:102B500020F00200801C0290D4F80C010068029959
:102B60000843D4F80C1108600548006840F00600DE
:102B700003490860012004B010BD00007802002065
:102B800010ED00E030B587B00446002002900690BA
:102B90000590049003900190029820F00100401CE1
:102BA00002902069406802998843216948600021A9
:102BB000204604F053FB00250BE0FF2104F1180030
:102BC00050F82500816004F1540050F82500816020
:102BD0006D1C6078A842F0D84FF0FF312069816108
:102BE00006986FF30F00401C0690069880B200F51F
:102BF0008030069006992069C161059820F0080090
:102C000008300590059820F00100401C05900598BB
:102C100020F00200801C059005992069416104980C
:102C200020F00100401C0490049820F008000830B7
:102C30000490049820F00200801C049004992069FC
:102C40000161206900680390039820F4FE600390FE
:102C5000039920690160204604F061F8002001908A
:102C6000019820F4805000F5805001900198E168AF
:102C7000486104480068016920468847012007B080
:102C800030BD0000780200202DE9F04106460F46D5
:102C90003946304604F07AFB01214FF489708155A2
:102CA0000021801C8155002511E005EB850106F50A
:102CB0008E7000EBC104012060702570E58000205B
:102CC000E0704020A0600020E06060616D1C7078C2
:102CD000A842EAD8002510E005EB850106F55D70F5
:102CE00000EBC104002060702570E580E07040209A
:102CF000A0600020E06060616D1C7078A842EBD895
:102D0000304603F01BFF304603F046FD00213046FD
:102D100004F0A4FB304603F0D2FD304604F067FA1D
:102D2000BDE8F08138B504460020009007480068EF
:102D3000C16920468847009820F4801000F5801073
:102D400000900098E1684861012038BD78020020B9
:102D500038B504460020009007480068016A204604
:102D60008847009820F4001000F5001000900098AB
:102D7000E1684861012038BD7802002030B5024684
:102D800015692B6915696C6B24FA01F505F00105CD
:102D900043EAC51302F1180555F82150AD6805EA5C
:102DA000030030BD2DE9F84307460E4600250020FC
:102DB000009006EB860107F58E7000EBC104D4E9A4
:102DC0000501451AA068A84200D2A568E81C4FEA90
:102DD000900807F1180050F82600806900901BE069
:102DE000D4E90501451AA068A84200D2A568E81CEC
:102DF0004FEA9008ABB2F2B23846E16804F070FBDB
:102E0000E0682844E060A0692844A06107F1180048
:102E100050F8260080690090009880B2404506D99D
:102E2000D4E90510884202D260690028D8D1012077
:102E3000BDE8F88310B50749074800F0EFF801280E
:102E400007D10449044800F009F80021024800F0C5
:102E50001FF810BD00802020A06002400246094BF0
:102E60009A4201D2084801E00648103801F00053A8
:102E70001BB1064B0B40C36002E0044B0B40836068
:102E80007047000010640240006002407D0F7D0F1B
:102E900021B1026842F00102026003E0026822F000
:102EA0000102026070470000016821F00101016029
:102EB0000021016041608160C160016121214161A7
:102EC0004A49884204D13D21484A103A91608CE039
:102ED00046491831884205D14FF47461434A103A8B
:102EE000916082E041493031884205D14FF474113C
:102EF0003E4A103A916078E03C494831884205D119
:102F00004FF07461394A103A91606EE03749603190
:102F1000884204D13649354A103AD16065E03349D8
:102F20007831884204D13349304A103AD1605CE0AC
:102F30002E499031884204D12F492C4A103AD16051
:102F400053E02A49A831884205D14FF03D51274A24
:102F5000103AD16049E02949884204D13D21274AED
:102F6000083A116041E025491831884205D14FF4F3
:102F70007461224A083A116037E0204930318842B2
:102F800005D14FF474111D4A083A11602DE01B4918
:102F90004831884205D14FF07461184A083A1160EF
:102FA00023E016496031884204D11149134A121FA7
:102FB00011601AE011497831884204D10D490F4A55
:102FC000121F116011E00D499031884204D10A4965
:102FD0000A4A121F116008E00849A831884204D14A
:102FE0004FF03D51054A121F1160704710600240BA
:102FF0003D000020400F002000003D2010640240F2
:10300000014600200A6802F001020AB1012000E036
:10301000002070470146486880B2704770B502468C
:10302000002000240025124EB24201D2114B01E0D3
:103030000F4B103B104E0E4036B11E2606EAD1242F
:10304000166806EA040502E0566906F0800501F0FC
:1030500000560EB15C6800E01C68084E344004EA7B
:10306000010616B10DB1012000E0002070BD000086
:1030700010640240006002403C0F3C0F7D0F7D0F4A
:1030800010B500220268134B1A40CC680B6823432A
:103090004C6923438C692343CC6923430C6A234343
:1030A0004C6A23438C6A23434C6B23438C6B23432E
:1030B0001A430260426922F00702D1E90B3423432C
:1030C0001A4342610B6943604B6883608B68C3603D
:1030D00010BD00003F801CF0416070477047000049
:1030E0000149086070470000143C014030B10749B5
:1030F000096841F48061054A116005E003490968E7
:1031000021F48061014A116070470000003C0240D8
:1031100070B504460A460026092502B909E0012ACD
:1031200001D1160205E0022A01D1160201E04FF496
:10313000407600F09FF80546092D28D11548006813
:1031400020F4407013490860084600683043086066
:103150000846006820F0F80008600846006844F05F
:10316000020108430B4908600846006840F48030BB
:10317000086000F07FF805460648006820F002006D
:10318000044908600846006820F0F80008602846F6
:1031900070BD0000103C024009201349096801F489
:1031A0008031B1F5803F01D101201CE00E49096852
:1031B00001F0100109B1062015E00B49096801F47E
:1031C000807109B102200EE00749096801F0EF01A2
:1031D00009B1072007E00449096801F0020109B1BB
:1031E000082000E0092070470C3C024003480068BA
:1031F00040F000400149086070470000103C024068
:1032000030B502460C46092500F034F80546092D74
:1032100019D10E48006820F440700C490860084637
:10322000006840F4007008600846006840F0010043
:103230000860146000F01EF805460448006820F09D
:10324000010002490860284630BD0000103C0240E1
:103250000548006800F0004028B1044802490C39D4
:103260000860034808607047103C0240230167452E
:10327000AB89EFCD08B509200090FFF78DFF0090D6
:1032800002E0FFF789FF00909DF800000128F8D0C8
:103290009DF8000008BD000000B52DED040B2DEDDC
:1032A000108B83B0B0EE40DAF0EE60DA9DED150AD7
:1032B00008F0ECFAB0EE40EA9DED150A08F038FB94
:1032C000F0EE40EA784890ED000A20EE0E0AD0EDCC
:1032D000010A0EEEA00AB0EE409A90ED010A20EE2F
:1032E0000E0AD0ED000A0EEEE00AF0EE409A6F48AA
:1032F00090ED000A79EEC00A90ED000A6C4890ED5E
:10330000001A01EE200A694880ED000A694890ED34
:10331000000A79EE400A90ED000A654890ED001A27
:1033200001EE200A634880ED000A3DEE490AB0EE46
:1033300040FA3DEEE90AF0EE40FA5F48D0ED000AAF
:103340005E4890ED000A0FEE200A8DED020A5A4801
:10335000D0ED000A5A4890ED000A0FEEA00A8DED5C
:10336000010A584890ED000ADFED570A20EE200AC6
:10337000B0EE40AAB7EE000AC0EE0A0ACDED000A90
:103380009DED000ADDED020A20EE200AF0EE408AF3
:103390009DED000ADDED010A20EE200AB0EE408A24
:1033A00068EEA80A48EE080AB0EE600A05F05FF879
:1033B000DFED460A80EE801AF0EE41AAB7EE000A71
:1033C000F4EEC0AAF1EE10FA1AD228EEAA0AF0EE34
:1033D000408A28EE2A0AB0EE408A384890ED000A6A
:1033E000DFED3B0A20EE200A80ED000A344890ED24
:1033F000000ADFED370A20EE200A80ED000A1BE00C
:103400002D4890ED010ADFED330A60EE200A2B48CB
:1034100090ED000A0FEE200A80ED000A264890ED9C
:10342000010ADFED2C0A60EE200A254890ED000A23
:103430000FEEA00A80ED000A28EE890A08EE290A9C
:10344000254880ED000A9DED160A08F01FFAB0EE3F
:1034500040BA9DED160A08F06BFAF0EE40BA2BEE7A
:10346000280AB0EE40CA0BEEC8CA2BEE080AF0EEEE
:1034700040CA4BEEA8CA2AEE0C0A184880ED000A92
:103480002AEE2C0A164880ED000AF0EE6C0AB0EE27
:103490004C0A07F0FBF828B9002003B0BDEC108BF4
:1034A00004B000BD0120F8E79C020020D0020020FB
:1034B000D4020020CC020020D8020020E00200202C
:1034C000E4020020F4020020ABAA2A3FD7B35D3FFC
:1034D000A4707D3F6F120339F0020020E802002043
:1034E000EC02002010B52DED088BB0EE408AF0EE16
:1034F000608AB0EE419AB0EE490A08F0C7F9F0EEE2
:10350000409AB0EE490A08F013FAB0EE40AA29EE4C
:10351000880A0AEE680AF0EE40AA29EEA80A0AEE26
:10352000080AB0EE40BAF0EE4B0AB0EE6A0A07F0B5
:10353000F9F8BDEC088B10BD1CB50121082000F086
:1035400055FB0420009001208DF804008DF8070041
:1035500000208DF805008DF806006946034800F04C
:1035600007F80421014800F070F81CBD000C02406F
:10357000F0B50A4600210023002400BF3DE00125EC
:1035800005FA01F3156805EA03049C4234D1056885
:103590004F000326BE40B543056015794E00B54087
:1035A0000668354305601579012D02D01579022D85
:1035B00016D185684F000326BE40B5438560557916
:1035C0004E00B540866835438560456801268E40CB
:1035D000B5434560456896798E40B6B2354345603F
:1035E000C5684F000326BE40B543C560D5794E007F
:1035F000B540C6683543C560491C1029BFD3F0BD2E
:10360000F0B5002300244D07ED0E02FA05F3CE10AD
:1036100000F1200555F826504E07F70E0F26BE4044
:10362000B543CF1000F1200646F82750CE1000F128
:10363000200555F8265045EA0304CE1000F1200578
:1036400045F82640F0BD4183704701837047000074
:1036500070B506462C480078012852D02B480068E7
:10366000B0F5006F02D100202849086027480068A3
:1036700027490968884203D100202349087070BD9A
:103680002248006822490968884206D91F48006814
:10369000C0F500601F49086006E01D4800681B492E
:1036A0000968401A1B4908601A48006840280ED96A
:1036B0001648008884B240251448006840301349F9
:1036C0000860144800684038124908600FE00F484D
:1036D000008884B20F48008885B20C4800680D4904
:1036E000096808440949086000200A490860012067
:1036F00005490870084802192B4681213046FEF71B
:10370000CFFF00BFBBE70000C8010020C0010020C0
:10371000BC010020C40100201B07002000BFFEE701
:103720004CF6CC4001490860704700000030004072
:1037300010B545F2555000F021F8032000F012F8C2
:103740004FF4FA7000F014F800F004F8FFF7E8FF07
:1037500010BD00004AF6AA20014908607047000029
:1037600000300040014948607047000000300040D0
:10377000014988607047000000300040014908603E
:10378000704700000030004010B52DED048B154847
:1037900090ED000AFFEE000A20EE200A80ED000AFC
:1037A000114890ED000ADFED110A20EE200AF7EE35
:1037B000000A80EE801AB0EE419A0A4890ED000AA5
:1037C00020EE090AB0EE408A9FED090AF0EE408A29
:1037D000F0EE680AB0EE480A06F058FFBDEC048B24
:1037E00010BD000044030020F4020020ABAA2A3FD1
:1037F000000000001849097801B31849D1ED000A0A
:10380000F5EEC00AF1EE10FA02DBF7EE000A01E075
:10381000FFEE000AB0EE600A1149D1ED000A11492D
:1038200091ED001A30EEC11A0F49D1ED000AF1EE08
:10383000401A41EE810AC1ED000A04E00B4908601C
:103840000121054A1170064991ED000A054981EDF3
:10385000000A074908607047600300204403002005
:103860009C020020580300205C030020500300202D
:10387000540300200020064908709FED060A064800
:1038800080ED000A9FED030A044880ED000A7047AE
:103890006003002000000000580300205C030020AB
:1038A00010B502202A4908704003C8619FED290A1B
:1038B000084680ED040A9FED280A80ED010A9FED7D
:1038C000270A80ED020A9FED260A80ED030A0020F8
:1038D00048619FED240A084680ED060A9FED210A03
:1038E00080ED080A002081F8240081F82500886214
:1038F000012081F82C0081F82D00002081F82E0095
:1039000008F042FF1248007807281FD2DFE800F0D5
:1039100004070A0E12161A0001F0A2F816E001F0D0
:10392000FBF813E0002000F0E7FA0FE0002000F0C1
:10393000E3FA0BE0022000F0DFFA07E0002000F0DD
:10394000DBFA03E0022000F0D7FA00BF00BF10BD91
:10395000BC10002000007A440AD7A33CDB0F494288
:10396000DB0F49410000000000BFFEE77047000088
:1039700070B5002100230F22C4781CB3174C2468B3
:1039800004F4E064C4F5E064C4F30721C1F1040465
:10399000E3B20A4144789C40E1B284781440214368
:1039A0000C07210E0E4C05786155047804F01F05B4
:1039B0000124AC4005786D11AD0005F1E025C5F896
:1039C000004109E0047804F01F050124AC40054DD6
:1039D0000678761145F8264070BD00000CED00E039
:1039E00000E400E080E100E002490143024A116086
:1039F000704700000000FA050CED00E008B5D0F8B3
:103A00000B1000919DED000AB5EEC00AF1EE10FA20
:103A100000D300BF9DED000A014981ED010A08BDF8
:103A2000441100200CB5C17A8DF80410017B8DF88B
:103A30000510417B8DF80610817B8DF80710C17B46
:103A40008DF80010017C8DF80110417C8DF802107A
:103A5000817C8DF803109DED010A044981ED020A75
:103A60009DED000A81ED030A0CBD00004411002009
:103A70002DE9F0412DED028B84B005460E46174628
:103A80009846B0EE408AF0EE608A0C9C8DED038A79
:103A9000CDED028A039860700398010AA170039823
:103AA000010CE1700398010E217102986071029877
:103AB000010AA1710298010CE1710298010E2172B4
:103AC00043463A4631462846009400F04FF804B089
:103AD000BDEC028BBDE8F08108B5D0F80B10009169
:103AE0009DED000A014981ED000A08BDE8030020B0
:103AF00008B5D0F80B1000919DED000A034981ED47
:103B0000000A0121024A117008BD0000E0030020F4
:103B1000F803002008B5D0F80B1000919DED000AC5
:103B2000014981ED000A08BDE403002010B50248F8
:103B300002F0FCF910BD0000EC4B002010B5094864
:103B4000807A50B10848006820F0060006490860F5
:103B500000F0A2FD034803F0A8FC4FF48020FFF71B
:103B6000BFFA10BDEC4B002010ED00E02DE9F84F3E
:103B700082460F4690461E46DDF828B04FF00009F9
:103B80001421082005F028FB044608EB47102060AC
:103B9000002020726072A672002507E00BF1010080
:103BA000415D04F10B004155681CC5B2B542F5DB1F
:103BB00021465046FEF782FB009008E009F1010023
:103BC0001FFA80F940F6FF70814500DB05E05046A2
:103BD0000099FEF707FC0028F0D000BF142208214E
:103BE000204605F01BFBBDE8F88F704729B1064A57
:103BF00012680243044B1A6004E0034A12688243CD
:103C0000014B1A60704700003038024029B1064A63
:103C100012680243044B1A6004E0034A12688243AC
:103C2000014B1A60704700003438024029B1064A3F
:103C300012680243044B1A6004E0034A126882438C
:103C4000014B1A60704700004038024029B1064A13
:103C500012680243044B1A6004E0034A126882436C
:103C6000014B1A60704700002038024029B1064A13
:103C700012680243044B1A6004E0034A126882434C
:103C8000014B1A60704700004438024029B1064ACF
:103C900012680243044B1A6004E0034A126882432C
:103CA000014B1A607047000024380240F0B5002133
:103CB00000220024022500260223324F3F6807F02D
:103CC0000C0121B1042905D0082937D105E02E4F78
:103CD000076036E02D4F076033E02A4F3F1F3F68F3
:103CE000C7F38056274F3F1F3F6807F03F036EB171
:103CF000264FB7FBF3F7DFF88CC0ACF1040CDCF80F
:103D000000C0CCF3881C07FB0CF40CE01E4FB7FB83
:103D1000F3F7DFF870C0ACF1040CDCF800C0CCF3B2
:103D2000881C07FB0CF4174F3F1F3F68C7F3014780
:103D30007F1C7D00B4FBF5F7076002E0124F0760BF
:103D400000BF00BF0F4F3F6807F0F0010909104F97
:103D50007A5C0768D74047600A4F3F6807F4E05134
:103D6000890A0B4F7A5C4768D7408760054F3F68E8
:103D700007F46041490B064F7A5C4768D740C7603B
:103D8000F0BD0000083802400024F40000127A0060
:103D90000000002010B52DED028B094890ED000ABF
:103DA000B0EE408A9FED070AF0EE408AF0EE680A16
:103DB000B0EE480A06F06AFCBDEC028B10BD0000B4
:103DC0004C0300200000000010B52DED028BB7EE73
:103DD000000AB0EE408A9FED330AF0EE408A324886
:103DE00090ED000A314880ED000A314890ED000A5C
:103DF0002E48D0ED000A70EE600A2E4890ED000AC1
:103E00009FED2D1A01EE200A80ED000A264890ED64
:103E1000010A2A48D0ED000A70EE600A90ED000A0F
:103E20009FED271A01EE200A80ED000A214890ED4F
:103E3000000AB0EEC00A2348D0ED000AB4EEE00A52
:103E4000F1EE10FA05DD06F0BFF9082008F004FBDA
:103E500025E01D4890ED000AF1EE080AB4EEE00AF4
:103E6000F1EE10FA05D806F0AFF9102008F0F4FAD8
:103E700015E01548D0ED000A9FED141A60EE810A96
:103E8000B7EE001AC1EE201AB0EE610A0948D0ED73
:103E9000000A60EE800A0E48C0ED000A00BFBDECCB
:103EA000028B10BD0000A0429C02002040030020B5
:103EB00038030020440300206F1203394803002018
:103EC0000BD7233C3C030020F4020020ABAA2A3F7E
:103ED0004C0300209FED050A054880ED000A9FED88
:103EE000030A044880ED000A70470000000000004B
:103EF000440300204803002010B588B00446012187
:103F00000720FFF773FE0121C803FFF78FFE08208B
:103F1000069001208DF81C0000208DF81E00012065
:103F20008DF81D008DF81F0006A92B48FFF720FB18
:103F300008212948FFF789FB4FF4E0500690022042
:103F40008DF81C0000208DF81E0001208DF81D004A
:103F50008DF81F0006A92148FFF70AFB06220A2157
:103F60001E48FFF74DFB06220B211C48FFF748FBBC
:103F700006220C211948FFF743FB0121C803FFF774
:103F800065FE00214FF40040FFF760FE0020ADF811
:103F900004004FF48270ADF806004FF40060ADF8F5
:103FA0000800ADF80A400120ADF80C004002ADF861
:103FB0000E002020ADF810000020ADF81200072000
:103FC000ADF8140001A9064800F026F801210448C4
:103FD00000F008F808B010BD0004024000080240DC
:103FE000003C004021B1028842F04002028004E01F
:103FF00002884FF6BF731A400280704702460020C5
:1040000013890B400BB1012000E0002070470146EE
:10401000888970478181704710B50022028802F4B8
:1040200041520B884C8823438C882343CC882343FC
:104030000C8923434C8923438C892343CC89234314
:104040001A430280838B4FF2FF74234083830B8AD1
:10405000038210BD10B5044600BF02210948FFF7D6
:10406000CDFF0028F9D021460648FFF7D3FF00BF57
:1040700001210448FFF7C2FF0028F9D00148FFF7EB
:10408000C6FF10BD003C0040F0EE400A20EEA00A42
:104090007047704730B50346F5EEC00AF1EE10FAEE
:1040A0001EDBB5EEC00AF1EE10FA0CDB9FEDB41A80
:1040B00020EE811AB4EEC01AF1EE10FA01DD0224EE
:1040C0002CE001242AE09FEDAF1A20EE811AB4EE15
:1040D000C01AF1EE10FA01DD03241FE002241DE0F6
:1040E000B5EEC00AF1EE10FA0CDB9FEDA61A20EE39
:1040F000811AB4EEC01AF1EE10FA01DD05240DE0CC
:1041000006240BE09FED9E1A20EE811AB4EEC01A31
:10411000F1EE10FA01DD042400E00524072C2BD277
:10412000DFE804F0F2042B547BA2CB00DFED942AED
:10413000B0EE402A02EEE02AB0EE421A9FED922A3B
:1041400020EE822AF0EE421AB7EE002A32EE412A21
:1041500032EE612AF6EE002A22EE222A83ED002AB0
:1041600093ED002A32EE012A81ED002A91ED002A1A
:1041700032EE212A82ED002AC6E0DFED812AB0EE80
:10418000402A02EEA02AB0EE421AB1EE402ADFED3C
:104190007C2A02EEA02AF0EE421AB7EE002A32EE96
:1041A000412A32EE612AF6EE002A22EE222A81ED21
:1041B000002A91ED002A32EE212A83ED002A93EDA8
:1041C000002A32EE012A82ED002A9DE09FED6E2A40
:1041D00020EE822AB0EE421AB1EE402ADFED682AC4
:1041E00002EEE02AF0EE421AB7EE002A32EE412A41
:1041F00032EE612AF6EE002A22EE222A81ED002A12
:1042000091ED002A32EE012A82ED002A92ED002A79
:1042100032EE212A83ED002A76E0B1EE402ADFED6E
:10422000582A02EEA02AB0EE421A9FED582A20EE3C
:10423000822AF0EE421AB7EE002A32EE412A32EE1E
:10424000612AF6EE002A22EE222A82ED002A92ED61
:10425000002A32EE212A81ED002A91ED002A32EE69
:10426000012A83ED002A4FE0B1EE402ADFED442A17
:1042700002EEE02AF0EE421ADFED412AB0EE402ACB
:1042800002EEE02AB0EE421AB7EE002A32EE612AC0
:1042900032EE412AF6EE002A22EE222A82ED002A90
:1042A00092ED002A32EE212A83ED002A93ED002AB6
:1042B00032EE012A81ED002A26E09FED342A20EE1D
:1042C000822AB0EE421ADFED2E2AB0EE402A02EE2C
:1042D000A02AF0EE421AB7EE002A32EE412A32EE60
:1042E000612AF6EE002A22EE222A83ED002A93EDBF
:1042F000002A32EE212A82ED002A92ED002A32EEC7
:10430000012A81ED002A00BF00BF93ED001AB5EE2F
:10431000C01AF1EE10FA2ADB93ED001AF7EE001A3C
:10432000B4EEE11AF1EE10FA21D891ED001AB5EED3
:10433000C01AF1EE10FA1ADB91ED001AF7EE001A2E
:10434000B4EEE11AF1EE10FA11D892ED001AB5EEC2
:10435000C01AF1EE10FA0ADB92ED001AF7EE001A1D
:10436000B4EEE11AF1EE10FA01D8012000E00020CD
:1043700005460DB1002030BD4FF0FF30FBE70000D7
:104380003ACD133F3ACD13BF3ACD933F3ACD93BFC9
:1043900010B57B48007800EE100AB8EE400A794864
:1043A00080ED000A7848007800EE100AB8EE400A66
:1043B000744880ED010A7548007800EE100AB8EEE6
:1043C000400A704880ED020A7148007800EE100A39
:1043D000B8EE400A6B4880ED030A6D48407800EE65
:1043E000100AB8EE400A674880ED040A684890ED6C
:1043F000080A644880ED050A654890ED070A61489F
:1044000080ED060A624890ED010A5E4880ED070AD9
:104410005F4890ED020A5B4880ED080A5C4890ED29
:10442000030A584880ED090A594890ED040A554896
:1044300080ED0A0A564890ED0C0A524880ED0B0AAE
:10444000544890ED000A4F4880ED0C0A514890ED19
:10445000010A4C4880ED0D0A4E4890ED020A494889
:1044600080ED0E0A4C4890ED010AB8EEC00A4548AE
:1044700080ED0F0A484890ED020A424880ED100A8C
:10448000454890ED030A3F4880ED110A424890EDFF
:10449000050A3C4880ED120A3F4890ED040A39486D
:1044A00080ED130A3C4890ED060A364880ED140A68
:1044B000394890ED070AB8EEC00A324880ED150A77
:1044C000354890ED080A2F4880ED160A324890EDE5
:1044D000090A2C4880ED170A2F4890ED0A0A29484E
:1044E00080ED180A2D48007800EE100AB8EE400A58
:1044F000244880ED190A294890ED070AB8EEC00A51
:10450000204880ED1A0A254890ED040A1D4880EDE8
:104510001B0A224890F8250000EE100AB8EE400A67
:10452000184880ED1C0A1D4890ED0A0AB8EEC00A32
:10453000144880ED1D0A194890ED050AB8EEC00A2E
:10454000104880ED1E0A154890ED060A0D4880EDD2
:104550001F0A1348C07800EE100AB8EE400A094856
:1045600080ED200A0F48007800EE100AB8EE400AED
:10457000044880ED210AA42108F068F910BD00006C
:10458000340100208400002035010020200000209C
:1045900044110020F81000205C100020BC10002006
:1045A00063030020080400200CB500200190009057
:1045B0003448006840F480303249086000BF314818
:1045C000006800F4003000900198401C01900098B1
:1045D00018B90198B0F5A04FF1D12A48006800F44D
:1045E000003010B10120009001E000200090009800
:1045F000012846D123484030006840F080502149CE
:10460000403108602048006840F440401E4908607E
:104610001C48083000681B490831086008460068DB
:1046200040F4004008600846006840F4A05008606C
:104630001648091F0860081F006840F08070091FB5
:10464000086000BF0F48006800F000700028F9D033
:1046500040F205700E4908600A480830006820F0F2
:1046600003000849083108600846006840F002006D
:10467000086000BF03480830006800F00C000828FC
:10468000F8D10CBD003802400070004008544007CB
:10469000003C02407047000010B51548006840F427
:1046A0007000134908601348006840F00100114988
:1046B000086000200F49083108600E4800680E4964
:1046C00008400C4908600D48091D0860081F006873
:1046D00020F48020091F0860002006490C31086082
:1046E000FFF762FF4FF0006001498039086010BD9C
:1046F00088ED00E000380240FFFFF6FE1030002495
:10470000F0B50C46154600210022068C4FF6FE77C8
:104710003E400684018B028C4FF60C7631407E1CA5
:1047200006EA03162E4331434FF6F576324044F045
:104730000106324301830284F0BDF0B50C461546F4
:10474000002100220026078C4FF6EF7C07EA0C07B9
:104750000784018B028C4FF6FF7707EA041640F6B8
:10476000FF4739404FF6FF7707EA033739434FF6E3
:10477000FF7707EA052739434FF65F773A4046F05F
:1047800010073A4301830284F0BDF0B50C4615468C
:10479000002100220026078C4FF6FF6C07EA0C0769
:1047A0000784818B028C4FF6FF7707EA04264FF6C9
:1047B0000C7739404FF6FF7707EA03172F43394349
:1047C0004FF2FF573A4046F480773A4381830284A0
:1047D000F0BDF0B50C461546002100220026078CDE
:1047E0004EF6FF7C07EA0C070784818B028C4FF69C
:1047F000FF7707EA043640F6FF4739404FF6FF7768
:1048000007EA052739434FF6FF7707EA03373943AD
:1048100045F6FF773A4046F480573A438183028455
:10482000F0BD000000B58FB001210320FFF7DEF9D5
:1048300001210846FFF71AFA012208215D48FEF718
:10484000DFFE012209215B48FEF7DAFE01220A2180
:104850005848FEF7D5FE01220D215748FEF7D0FE3D
:1048600001220E215448FEF7CBFE01220F215248AF
:10487000FEF7C6FE4FF4E0600C9002208DF8340085
:1048800000208DF8360003208DF8350000208DF8CB
:1048900037000CA94748FEF76BFE4FF460400C90C0
:1048A00002208DF8340000208DF8360003208DF8AA
:1048B000350000208DF837000CA93F48FEF758FE60
:1048C0003E4800F0A1FB0020ADF824006020ADF8C8
:1048D000260040F6AC500A900020ADF82C000220D3
:1048E0008DF82E0009A9354800F00AFE7020ADF8B9
:1048F00010000120ADF812000420ADF8140040F2C1
:10490000D66006900020ADF81C00ADF81E00ADF892
:104910002000ADF8220004A9284800F0B9FC04A941
:10492000264800F0FDFC04A9244800F059FD0821A8
:10493000224800F0EBFC0821204800F043FD08214C
:104940001E4800F09DFD4FF40060ADF800004010DF
:10495000ADF802000020ADF804006420ADF80600B8
:104960000020ADF808004FF40050ADF80A00002018
:10497000ADF80C006946114800F018FB19208DF8BD
:10498000380001208DF83B000EA8FEF7F1FF202132
:104990000A4800F07EFD0121084800F0FBFA0121E1
:1049A000064800F013FB01221146044800F066FCA3
:1049B0000FB000BD000002400004024000000140B2
:1049C00070B50121144800F001FB1448006842F65C
:1049D00004110844114908600F48008800F01005D0
:1049E00065B907F019FD0E4805F0CAFE0C490B48E1
:1049F000006805F0F9FA04F0FDFD0CE0002400E089
:104A0000641C142CFCD3064805F0BAFE044805F0DB
:104A100089FB07F057F970BD000001400403002036
:104A2000501000200EB501210846FFF7FFF840F2B4
:104A3000E73001905320ADF800000020ADF80200EF
:104A4000ADF8080069464FF0804000F059FD202184
:104A5000480600F01EFD0121880700F0BAFA0EBDDD
:104A600000B589B001210220FFF7C0F80121022022
:104A7000FFF7DCF83020079002208DF8200000209E
:104A80008DF8220001208DF8210000208DF82300F0
:104A900007A91F48FEF76CFD022204211C48FEF7FF
:104AA000AFFD022205211A48FEF7AAFD4FF6FF705E
:104AB00005900020ADF81000ADF81200ADF8180018
:104AC00004A9144800F01CFD00231A4603211148D4
:104AD00000F062FB01A800F0C8FB0020ADF8040064
:104AE0000420ADF80C0001A90A4800F087FB04205F
:104AF000ADF8040001A9074800F080FB002105483B
:104B000000F0D0FC0121034800F063FA09B000BDB9
:104B1000000402400004004000B589B001210220D9
:104B2000FFF784F801210620FFF760F810200190BC
:104B300002208DF8080003208DF8090000208DF870
:104B40000A0001208DF80B0001A93448FEF710FD82
:104B5000022204213148FEF753FD2020019001A9D3
:104B60002E48FEF705FD022205212C48FEF748FDE0
:104B70004FF40070019001A92948FEF7F9FC0222C8
:104B800009212748FEF73CFD0020ADF80C00ADF8E8
:104B90000E004FF6FF7004900020ADF8140003A93A
:104BA000204800F0ADFC0020ADF81800ADF81A0068
:104BB0000120ADF81C000020ADF81E00ADF820006B
:104BC00006A9184800F01AFB0420ADF818000020D0
:104BD000ADF81A000120ADF81C000020ADF81E0051
:104BE000ADF8200006A90F4800F008FB0C20ADF836
:104BF00018000020ADF81A000120ADF81C000020BC
:104C0000ADF81E00ADF8200006A9064800F0F6FA3F
:104C10000121044800F0DDF909B000BD00040240A4
:104C2000000802400004004030B52DED108B8DB01F
:104C30000121994800F0D1FA00287CD097480078EB
:104C400010B90120954908709FED950A8DED090A6C
:104C50009FED948ADFED948A9FED949ADFED949A0C
:104C60009FED8F0A10EE104A9FED8D0A8DED080A18
:104C70009048008840F6FF7190FBF1F52846FBF75D
:104C8000FEFE41EC1B0B9FED8C0B53EC102BFBF746
:104C900015FE41EC1A0BFBF716FF04462046FBF706
:104CA000FFFE41EC1B0B2046FBF7FAFE41EC1E0B0E
:104CB0009FED810B53EC102BFBF7FDFD41EC1D0B21
:104CC0009FED7F0B53EC102BFBF7F8FD41EC1C0B19
:104CD00053EC1B2BFBF764FE41EC1A0BFBF7F3FEC6
:104CE000099019EE900AFBF7DBFE41EC1A0B19EE66
:104CF000100AFBF7D5FE41EC1C0B9DED090AC0EE36
:104D0000080A10EE905A2846FBF7CAFECDE90001CA
:104D10009DED000B03F070F9B0EE40DAF0EE60DAD2
:104D200053EC1C2B51EC1D0BFBF73AFE41EC1B0B1B
:104D3000B7EE000A00E0ABE0C0EE280A10EE905A91
:104D40002846FBF7ADFE53EC1B2BCDE902019DED90
:104D5000020B51EC100BFBF70AFDCDE904019DEDB0
:104D6000040B53EC102B9FED580B51EC100BFBF781
:104D700017FE41EC1E0B53EC1A2BFBF799FD9FED30
:104D8000540B53EC102BCDE906019DED060B51ECB5
:104D9000100BFBF7ECFC41EC1F0BFBF794FE0890AB
:104DA0000A9808300A900B98001D0B904A4800683A
:104DB000401C49490860494800904948D0ED000A24
:104DC000484890ED000A08230922474801784748DF
:104DD000FEF74EFE40480068142854DD00203E498E
:104DE00008604348007808284DD13D4890ED000AFE
:104DF000404880ED000A404890ED000A3D4880EDB3
:104E0000010A384890ED000A3A4880ED020A3B4812
:104E100090ED000A374880ED030A394890F82500E4
:104E200000EE100AB8EE400A324880ED040A354818
:104E300090ED000A2F4880ED050A324890ED010AF6
:104E40002C4880ED060A2F4890ED020A294880ED93
:104E5000070A2D4890ED000A264880ED080A2B48E5
:104E600090ED000A234880ED090A294890ED000AD8
:104E7000204880ED0A0A274890ED000A1D4880ED81
:104E80000B0A07F04DFE0121034800F09FF800BF18
:104E90000DB0BDEC108B30BD001400401D00002093
:104EA0000000000000401C463313954300A0574506
:104EB00033938843280400206666666666660A4067
:104EC000000000000088C340000000000000F03F28
:104ED000000000000000E03F1400002068060020F1
:104EE000AC030020A803002034010020006400402F
:104EF0006203002030000020E4030020E0030020D3
:104F0000BC100020A4100020F0020020F4020020B9
:104F1000D0020020E80300201FB501212020FEF769
:104F200085FE37208DF8000001208DF803006846CB
:104F3000FEF71EFD40F2E73002905320ADF804006A
:104F40000020ADF80600ADF80C0001A9064800F0FD
:104F5000D7FA01221146044800F090F901210248D5
:104F600000F037F81FBD00000014004010B501210B
:104F7000064800F032F940B10121044800F026F85B
:104F800003480068401C0249086010BD0020004032
:104F90001000002021B1028842F08002028004E06B
:104FA00002884FF67F731A40028070470A884B8848
:104FB0001A438B881A43CB881A430B891A434B89AF
:104FC0001A438B891A43A0F844207047CA430282CF
:104FD000704721B1028842F00102028004E0028899
:104FE0004FF6FE731A400280704731B1B0F844208A
:104FF00042F40042A0F8442005E0B0F84420C2F397
:105000000E02A0F84420704710B50446554884426B
:1050100008D101210846FEF739FE00210120FEF7E4
:1050200035FE9DE0B4F1804F08D101210846FEF71E
:105030000DFE00210120FEF709FE91E04A4884425E
:1050400008D101210220FEF701FE00210220FEF717
:10505000FDFD85E04548844208D101210420FEF78A
:10506000F5FD00210420FEF7F1FD79E0404884427F
:1050700008D101210820FEF7E9FD00210820FEF7F4
:10508000E5FD6DE03B48844208D101211020FEF788
:10509000DDFD00211020FEF7D9FD61E03648844295
:1050A00008D101212020FEF7D1FD00212020FEF7AC
:1050B000CDFD55E03148844208D101210220FEF7A0
:1050C000E5FD00210220FEF7E1FD49E02C48844285
:1050D00009D101210804FEF7D9FD00214FF48030E9
:1050E000FEF7D4FD3CE02748844209D10121480461
:1050F000FEF7CCFD00214FF40030FEF7C7FD2FE096
:105100002148844209D101218804FEF7BFFD002116
:105110004FF48020FEF7BAFD22E01C48844208D1FB
:1051200001214020FEF792FD00214020FEF78EFD78
:1051300016E01748844208D101218020FEF786FD41
:1051400000218020FEF782FD0AE01248844207D148
:1051500001218015FEF77AFD0021A015FEF776FDEE
:1051600010BD0000000001400004004000080040A5
:10517000000C0040001000400014004000040140FA
:105180000040014000440140004801400018004038
:10519000001C004000200040F0B50C4615461E469D
:1051A0000021002200230189028B038C4FF6F8773F
:1051B000394021434FF6FC473A4040F201173A4349
:1051C0004FF6DD773B404FF6FF7707EA06172F4390
:1051D0003B43018102830384F0BD30B502460020C9
:1051E00000230024158A05EA0103958905EA0104D4
:1051F00013B10CB1012000E0002030BD70B50546B0
:105200000C46208850B92389A28861882846FFF778
:1052100077FAE188284600F047F925E0208804283D
:105220000AD12389A28861882846FFF786FAE18897
:10523000284600F042F917E0208808280AD123897F
:10524000A28861882846FFF7A0FAE188284600F086
:1052500041F909E02389A28861882846FFF7B9FA55
:10526000E188284600F03FF970BD002101804180AF
:10527000012181800021C180018170471AB1838999
:105280000B43838102E083898B4383817047000055
:1052900070B5002400220023058C4FF6FE763540C1
:1052A0000584028C8388048B4FF68F752C40B51EC5
:1052B0002C400D882C43751E2A408D892A434D8829
:1052C0002A43104DA84202D00F4DA84213D14FF6E9
:1052D000F7752A40CD892A434FF6FB752A408D8801
:1052E0002A434FF6FF652B404FF6FF552B400D8AA2
:1052F0002B434D8A2B43838004838D68456302844E
:1053000070BD000000000140000401400A46002179
:10531000018B4FF6F773194011430183704700006A
:1053200070B5002400220023058C4FF6EF7635403F
:105330000584028C8388048B48F6FF752C404FF659
:10534000FF452C400D884FF6FF7606EA05252C43D5
:105350004FF6DF752A408D8906EA05152A434D88E8
:1053600006EA05152A43154DA84202D0144DA8425D
:105370001DD14FF67F752A40CD894FF6FF7606EA9C
:1053800005152A434FF6BF752A408D8806EA051594
:105390002A434FF6FF352B404FF2FF752B400D8A05
:1053A00006EA85052B434D8A06EA85052B43838053
:1053B00004838D688563028470BD00000000014095
:1053C000000401400A460021018B4FF2FF7319408F
:1053D0004FF6FF7303EA022319430183704700006D
:1053E00070B5002400220023058C4FF6FF6635407F
:1053F0000584028C8388848B4FF68F752C404FF682
:10540000FC752C400D882C434FF6FF552A408D89A2
:105410004FF6FF7606EA05252A434D8806EA05255C
:105420002A43154DA84202D0144DA8421DD14FF277
:10543000FF752A40CD894FF6FF7606EA05252A43F7
:105440004FF6FF352A408D8806EA05252A434EF699
:10545000FF752B404DF6FF752B400D8A06EA0515AA
:105460002B434D8A06EA05152B43838084838D6880
:10547000C563028470BD00000000014000040140CB
:105480000A460021818B4FF6F7731940114381833F
:10549000704782884FF68F731A40828082880A4351
:1054A0008280704741627047028B4FF6F3731A4057
:1054B0000283028B0A4302837047028B4FF2FF3351
:1054C0001A400283028B4FF6FF7303EA01231A434B
:1054D00002837047828B4FF6F3731A408283828B6C
:1054E0000A4382837047828B4FF2FF331A408283D4
:1054F000828B4FF6FF7303EA01231A4382837047BE
:1055000000220288184B98420ED0184B98420BD0BC
:10551000B0F1804F08D0164B984205D0154B9842F9
:1055200002D0154B984204D14FF68F731A404B8826
:105530001A43124B984207D0114B984204D04FF6B1
:10554000FF431A400B891A4302804B68C3620B88E1
:105550000385054B984202D0044B984201D18B7AC7
:10556000038601238382704700000140000401404C
:105570000004004000080040000C00400010004003
:105580000014004010B540F22441154800F066F9BF
:10559000012823D112480088124908601048001DD4
:1055A000008808601048FDF735FDC0F580700D4992
:1055B000086000210C48FDF76BFC00BF0A48FDF7AE
:1055C0001FFD0028FAD14FF480710748FDF784FDD4
:1055D00001210548FDF75CFC03F048FE10BD00000A
:1055E00000440040240000208860024010B596B0BE
:1055F000044601214148FEF7F9FA01214804FEF76B
:1056000015FB072202213E48FDF7FAFF072203217E
:105610003B48FDF7F5FF0C20149002208DF8540054
:1056200000208DF8560001208DF8570002208DF8DB
:10563000550014A93248FDF79BFF26208DF83C0049
:1056400002208DF83D0000208DF83E0001208DF8ED
:105650003F000FA8FEF78CF92A4800F087F8109455
:105660000020ADF84C000C20ADF84A000020ADF849
:105670004800ADF84600ADF8440010A9214800F0FC
:105680003DF9012240211F4800F066F801211D4824
:1056900000F056F8012240F224411A4800F008F9BF
:1056A0001948FDF701FC4FF0006000901548001DFF
:1056B000019016480290002003904FF480700490EF
:1056C000002005904FF4806006900020079008901D
:1056D0004FF48070099040020A9000200B90032044
:1056E0000C9000200D900E9069460748FDF7C8FC0D
:1056F00001210548FDF7CCFB16B010BD01002000CC
:10570000000002400044004088600240680500201C
:1057100010B5044600210848FDF7BAFBA1B20648BF
:10572000FDF7DAFC01210448FDF7B2FB01228021DC
:10573000024800F011F810BDA06002400044004093
:1057400021B1828942F40052828104E082894DF6BF
:10575000FF731A40828170471AB1838A0B43838298
:1057600002E0838A8B4383827047000010B50446B1
:105770003248844208D101211020FEF787FA002127
:105780001020FEF783FA57E02D48844209D1012109
:105790004804FEF75BFA00214FF40030FEF756FA9A
:1057A0004AE02848844209D101218804FEF74EFAD4
:1057B00000214FF48020FEF749FA3DE02248844260
:1057C00009D10121C804FEF741FA00214FF400205D
:1057D000FEF73CFA30E01D48844209D1012108055A
:1057E000FEF734FA00214FF48010FEF72FFA23E081
:1057F0001748844208D101212020FEF747FA0021F2
:105800002020FEF743FA17E01248844209D1012113
:105810008807FEF71BFA00214FF08040FEF716FACA
:105820000AE00D48844207D101214005FEF70EFA37
:1058300000216005FEF70AFA10BD000000100140CB
:105840000044004000480040004C00400050004030
:105850000014014000780040007C004070B5024612
:10586000002400230025002040F66A16B14200D132
:1058700000BFC1F3421501F01F03012606FA03F32E
:10588000012D02D19689334006E0022D02D1168AFD
:10589000334001E0968A33400C12012606FA04F4E4
:1058A0001688344013B10CB1012000E0002070BD17
:1058B000F0B50346002400260025002040F66A17B4
:1058C000B94200D100BF1846C1F3421401F01F06CF
:1058D000012707FA06F5012C01D10C3004E0022C57
:1058E00001D1103000E014301AB107682F4307606F
:1058F00002E00768AF430760F0BD00002DE9FF47F5
:1059000005460E460024A14600BFA046B08900B15E
:1059100000BF2C8A24F44054F08804432C82AC89C4
:1059200041F20C608443B08831890843718908438F
:105930000443AC81AC8A24F44074B0890443AC8243
:105940006846FEF7B3F92048854202D01F488542D9
:1059500002D1DDF80C9001E0DDF80890A88900F490
:10596000004040B109EBC90000EB09103168490063
:10597000B0FBF1F707E009EBC90000EB0910316853
:105980008900B0FBF1F76420B7FBF0F004012009B7
:10599000642101FB1078A88900F4004040B1322056
:1059A00000EBC800B0FBF1F000F00700044308E092
:1059B000322000EB08106421B0FBF1F000F00F0082
:1059C00004432C81BDE8FF87001001400014014012
:1059D00070B504460D46D4F8E405294642682046D1
:1059E0009047002070BD70B504460D464FF4897095
:1059F000005D022802D0032812D100E000BF6888B1
:105A000001280CD100214FF48C700151D4F8E40529
:105A10002946826820469047204600F075F804E049
:105A20002946204600F021F800BF00BF70BD2DE9D7
:105A3000F04106460C46154600272B46224600211B
:105A40003046FCF7D2FD3846BDE8F0812DE9F04143
:105A500006460C46154600272B46224600213046B6
:105A6000FCF71EFE3846BDE8F08170B504460D46D1
:105A700080212046FCF7F0FD00212046FCF7ECFDDC
:105A8000204601F04CF970BD2DE9F04104460E4668
:105A900015460027C4F89453C4F89053032140F2EC
:105AA000111001552B46324600212046FCF79DFD82
:105AB0003846BDE8F08170B504460025052140F266
:105AC0001110015500231A4619462046FCF78DFD9A
:105AD000204601F024F9284670BD2DE9F041044626
