:020000040800F2
:1000000090550020A1010008E12C0008992A000861
:10001000DD2C0008CD140008D964000800000000A1
:100020000000000000000000000000005B3200083B
:100030005924000800000000B12D000845360008D2
:10004000BB010008BB010008BB010008BB010008A0
:10005000BB010008BB010008BB010008BB01000890
:10006000BB010008BB010008BB010008BB01000880
:10007000BB010008BB010008BB010008BB01000870
:10008000BB010008B1210008BB010008BB0100084A
:10009000D1140008BB010008BB010008BB01000827
:1000A000BB01000871390008BB010008BB01000852
:1000B000BB010008BB010008BB010008BB01000830
:1000C000BB010008BB010008BB010008BB01000820
:1000D000BB010008BB01000869410008BB01000822
:1000E000BB010008BB010008812D0008BB0100080E
:1000F000BB010008513B0008BB010008BB01000820
:10010000BB010008BB010008BB010008BB010008DF
:10011000BB010008BB010008BB010008C93A000888
:10012000BB010008BB010008BB010008BB010008BF
:10013000BB010008BB010008BB010008BB010008AF
:10014000BB010008BB010008BB010008712D0008BD
:10015000BB010008BB010008BB010008BB0100088F
:10016000BB010008BB010008BB010008BB0100087F
:10017000BB010008BB010008BB010008BB0100086F
:10018000BB010008BB010008DFF810D000F0C6FB7F
:1001900000480047F98E0008AFF30080905500201A
:1001A0000648804706480047FEE7FEE7FEE7FEE711
:1001B000FEE7FEE7FEE7FEE7FEE7FEE7493600085A
:1001C000890100082DE9F0410024061B254671F144
:1001D000000605DA01240027D0EB070067EB0101D8
:1001E000161E73F1000605DA0027D2EB070201257F
:1001F00067EB030300F07BF886460E4617469C46E5
:10020000AC4204D00025D0EB050E65EB010624B10D
:100210000020D2EB000760EB030C704631463A46F3
:100220006346BDE8F081D2B201E000F8012B491E1F
:10023000FBD270470022F6E710B513460A46044683
:100240001946FFF7F0FF204610BD70B5064606F0D0
:1002500071FA046805460A220021304600F0C6F80B
:100260002C6070BD00F0004230F000400AD0C10D9B
:1002700001F56071C0F3160042EA0151C20840075F
:100280001143704700200146704701F0004330B42D
:1002900021F0004150EA010206D00A0DA2F5607279
:1002A000C1F31301002A02DC30BC00207047440F68
:1002B00044EAC104C100E01830BC00EBC25000F0B9
:1002C000CDB830B50B46014600202022012409E0BC
:1002D00021FA02F59D4205D303FA02F5491B04FAFF
:1002E00002F52844151EA2F10102F1DC30BD2DE912
:1002F000F05F0546002092469B46884606468146AA
:1003000040241BE0284641464746224600F027FB92
:1003100053465A46C01A914110D3114618462246F8
:1003200000F00EFB2D1A67EB01084F462246012014
:10033000002100F005FB17EB00094E41201EA4F13F
:100340000104DFDC484631462A464346BDE8F09FBB
:100350000FB4002300B589B00CA900910B996FF080
:100360000042CB601E4B06931E4B07930423CDE93E
:1003700001321D4A089202466B46002000F0B4FB91
:1003800009B05DF814FB70B586B006464FF0FF303B
:100390000091CDE90101002015460C46049032463B
:1003A000694604A8FFF7D4FF02460498211825B136
:1003B00008B1084600E020462860049800280DD0C7
:1003C000002A02DD0098884208D0081B0094CDE97D
:1003D00001043246694604A8FFF7BAFF06B070BDB3
:1003E000210D00083F0D0008AD0900082DE9F04778
:1003F00091460F4680460446002614F8015B2DB155
:1004000000F0D0FA0068405DC007F6D12B2D02D075
:100410002D2D18D0641E4A463946204600F0A0FC17
:1004200027B13968A14201D1C7F8008071054FF0AA
:1004300002040BD54042002803DD06F07BF904607E
:10044000A007BDE8F08746F48066E4E70028F8DA04
:1004500006F070F904606FF00040F2E70029A8BFD1
:100460007047401C490008BF20F00100704710B4DD
:10047000B0FA80FC00FA0CF050EA010404BF10BC92
:10048000704749B1CCF1200421FA04F411FA0CF1BF
:1004900018BF012121430843A3EB0C01CB1D4FEAF8
:1004A00000614FEA102042BF002010BC704700EBF3
:1004B000C35010440029A4BF10BC7047401C490021
:1004C00008BF20F0010010BC704710B541000CD0EF
:1004D000C0F3C751962908DC7E2909DC06DB4102FE
:1004E00004D000F0004040F07E5010BD002010BD50
:1004F000C1F19604C4F1200100FA01F1E040FFF7D8
:10050000ADFFA04010BD2DE9FE4F804681EA0300FB
:10051000C00F0C46009021F0004123F00045B8EBDD
:100520000200A94105D24046214690461C460B4692
:10053000024623F00040104347D0270DC7F30A00BE
:10054000C3F30A510290401A019040286BDAC3F3BA
:10055000130040F4801B0098924620B10023D2EB98
:10056000030A63EB0B0B01985946C0F14002504659
:1005700000F0E6F906460D4650465946019A00F04D
:10058000FEF910EB08006141002487EA115284EA69
:10059000E7731A4340D0009A62B3019A012A4FEAE6
:1005A000075215DC001B61EB02014FF0004202EA2A
:1005B0000752CDE90042001C41F5801132462B461E
:1005C00000F02CFC03B0BDE8F08F40462146F9E76F
:1005D000001B61EB0201001C41F5801300185B4118
:1005E0002018A2F5001747EB030140EAD570B619B1
:1005F0006D4111E06D084FEA360645EAC0754FEAD5
:100600000752001B61EB0201001C41F580114908F3
:100610004FEA30000019514132462B4603B0BDE885
:10062000F04F00F0ECBB0098012240000023D0EB1B
:10063000020263EBE073009821464FEAE074B8EBE6
:10064000000061EB0401E9E783F000435BE781F020
:10065000004158E72DE9FE4F81EA030404F000440D
:1006600021F0004100944FF0000B23F0004350EACA
:1006700001045ED052EA03045BD0C3F30A54C1F311
:100680000A552C44A4F2F3340194A0FB0254C1F3A4
:10069000130141F48011C3F3130343F4801301FBEE
:1006A000024400FB034E840A970A44EA815447EA55
:1006B0008357A4FB076802958D0A05FB07854FEA5F
:1006C000932C04FB0C542705029D4FEA065847EA79
:1006D0001637B5EB08056EEB070C870E920E47EA4E
:1006E000811742EA8312A7FB0201B6EB0B0164EB10
:1006F00000042B0D43EA0C335E1844EB1C50DA4621
:100700005146E7FB0201C5F313044FEA0B3343EAFA
:1007100014534FEA0432019C43EA0603A4F10C048B
:100720000294009CCDE900B400F078FB03B0BDE872
:10073000F08F00200146F9E72DE9F04D81EA03042E
:1007400004F0004B21F0004514464FF0000A23F05E
:10075000004150EA050220D054EA01021DD0C5F341
:100760000A570246C5F31303C1F31300C1F30A5637
:1007700040F4801543F48013A7EB0608101BD646FF
:1007800008F2FD3873EB050002D308F1010801E01F
:1007900092185B41B8F1000F03DA00200146BDE872
:1007A000F08D00204FF48011064684460EE0171BA2
:1007B00073EB050705D3121B63EB050306434CEAF5
:1007C000010C49084FEA300092185B4150EA0107DA
:1007D000EDD152EA030012D082EA040083EA050157
:1007E000084305D0101BAB4106D20122002306E0CE
:1007F00000224FF0004302E06FF0010253101AEBA9
:1008000006004CEB085110EB0A0041EB0B01BDE870
:10081000F04D00F0F4BA2DE9F04D00231A461B1AF2
:100820008A4103DB00200146BDE8F08DC1F30A5286
:10083000C1F3130141F480154FF0000BD10702D131
:1008400000186D41521E0027044640F2FF11384641
:1008500001EB620A3E468046024600204FF48011BA
:1008600000F07DF8C2197141BB1846EB0100B4EBF2
:10087000030C75EB000C04D3E41A65EB0005174676
:100880000E46241908F101006D4180463428E3DD4D
:10089000F91946EB0600091BA84103D24FF0FF32BD
:1008A000134601E0002213461BEB070046EB0A51FA
:1008B000BDE8F04D00F0A3BAC1F30A52C1F3130131
:1008C00040F2FF3341F480119A4202DA00200146DF
:1008D000704740F233439A42A2F2334202DC524262
:1008E00000F03DB800F02CB830B5041E71F10004E2
:1008F00004DB4FF00044404264EB0101141E73F12D
:10090000000405DB1C464FF00043524263EB040336
:10091000994208BF904230BD00207047064C074DF9
:1009200006E0E06840F0010394E8070098471034BF
:10093000AC42F6D3FFF72CFC84B30008A4B3000844
:10094000202A04DB203A00FA02F10020704791408F
:10095000C2F1200320FA03F3194390407047202A84
:1009600004DB203A21FA02F00021704721FA02F359
:10097000D040C2F120029140084319467047202A16
:1009800006DBCB17203A41FA02F043EAE07306E0B7
:1009900041FA02F3D040C2F12002914008431946C7
:1009A000704700000048704780B3000810B5044647
:1009B000FFF7F8FF0068005D00F0010010BD0000C7
:1009C0002DE9FF4F087883B09946FF2805D0491CD0
:1009D0002D2804D00024002008E000200BE0012492
:1009E000F9E700EB800003EB4000491C0B78FF2B7C
:1009F000F7D104B1404200230293147819461D46F2
:100A00002D2C01D02B2C04D1521C2D2C13D00024C2
:100A10000294AA461478FF2C0FD00A25A3FB057870
:100A200001FB05814FF0000C03FB0C11521CE31974
:100A30004AEB0101EEE70124EAE7814453EA0100B1
:100A400002D019F5C87F06DA03980021C0E9001129
:100A500007B0BDE8F08F0025AE4E2F46DFF8B88214
:100A6000184600F037FACDE90001B9F1000002DACA
:100A7000C9F1000400E004460023A74A1AEB030B67
:100A800042EB045A12E0E00707D02A4633463846C4
:100A90004146FFF7DFFD074688462A4633461046A3
:100AA0001946FFF7D7FD05460E466410002CEAD123
:100AB000DDE90001B9F1000F5A46534606DAFFF7A7
:100AC0003BFE3A464346FFF737FE05E0FFF7C2FD1F
:100AD0003A464346FFF7BEFD029A0AB181F0004153
:100AE000039AC2E90001B3E72DE9FF4F1F468DB01D
:100AF000D7E901464FF0FF382E2045464FF0000958
:100B00000B90B9696D1C0E988847396A82468847F0
:100B10000028F6D1BAF1FF3F0AD024F4D064002EA9
:100B200011DDBAF12B0F08D0BAF12D0F0BD102E075
:100B3000404611B08DE744F48064B9696D1C0E988D
:100B400088478246761E6946600501D52D2000E063
:100B50002B208DF8000001F1010B0DF1200809E0B8
:100B6000B9696D1C0E98884782460F9844F400744A
:100B7000761E0560002E02DDBAF1300FF0D00B9921
:100B80008A453ED144F0800406E00F99681CA9F123
:100B9000010944F400740860B9696D1C761E0E9852
:100BA000884782463028F0D02BE00B998A4505D142
:100BB000200603D444F08004761E18E0504605F069
:100BC0002FFF08B30DF11301761E44F400748B451A
:100BD00008D2AAF130000BF8010B200607D5A9F1C5
:100BE000010003E0200602D409F101008146A005BE
:100BF00002D50F99681C0860B9696D1C0E9888476A
:100C00008246002ED1DC53E0002E51DDBAF1650F93
:100C100002D0BAF1450F4BD1A00549D5B9696D1C79
:100C200024F44074761E0E9888478246002E0CDD10
:100C30002B2804D0BAF12D0F07D144F48074B96980
:100C40006D1C0E9888478246761EE00501D52D2141
:100C500000E02B2108F8011BCDF82C8021E00DF1DC
:100C60002901761E44F4007488450CD2AAF13000A4
:100C700010F0FF0088F8000002D10B99884509D9CF
:100C800008F1010806E0E00501D5244801E042F240
:100C90000F708146B9696D1C0E98884782460F987F
:100CA0000560002E04DD504605F0BAFE0028D6D1BE
:100CB000F9690E988847FF208BF8000088F800003B
:100CC0000020069007904B466A4608A906A8FFF741
:100CD00077FEA00502D46FF001002AE714F0240F7C
:100CE0000AD0E00714D1DDE906123868031D3B6025
:100CF0000068C0E900120BE0DDE90601FFF7C5FA64
:100D00000146E00704D13868021D3A6000680160BE
:100D100028460EE7000014400000F03FF1D8FFFF26
:100D2000426842B1016811F8013B23B1521EC0E98B
:100D30000012184670470121C160881E7047426842
:100D40005AB1C368016843B983688B4205D0491E14
:100D5000521CC0E90012002070474FF0FF3070476E
:100D60002DE9F05F82460078002715468B460AF190
:100D70000104B946302801D09DB113E014F8010BED
:100D80000127782803D0582801D045B10AE00DB1D9
:100D9000102D07D10027102514F8010B02E00825BB
:100DA00000E00A250026B0460EE005FB080005FB22
:100DB00006F1012701EB10461FFA80F8B6F5803FD7
:100DC00000D3B94614F8010B294600F075F8002845
:100DD000EBDABBF1000F05D00FB1641E00E0544602
:100DE000CBF80040B9F1000F06D005F0A3FC0221BA
:100DF0000160C81EBDE8F09F48EA0640FAE710B55A
:100E0000141E73F1000408DA401C41F1000192182D
:100E10005B411A4301D120F0010010BD2DE9F04DD6
:100E200092469B4611B1B1FA81F202E0B0FA80F22B
:100E300020329046FFF784FD04460F4640EA0A0040
:100E400041EA0B0153465A46084313D0114653EA70
:100E5000010019D0C8F140025046FFF780FD054659
:100E60000E46504659464246FFF76AFD084305D0F4
:100E7000012004E020463946BDE8F08D00200543FE
:100E800046EAE0762C4337430A986305E40AA0EB70
:100E900008000022FD0A44EA47540A3002D5002027
:100EA0000146E9E7010510196941DDE90845001926
:100EB0006941BDE8F04DA2E73A2800D2303820F071
:100EC0002002412A01D3A2F13700884201D34FF01A
:100ED000FF3070470EB540F2334202920022CDE956
:100EE00000221346FFF79AFF03B000BD70B58C18BF
:100EF00010F8015B15F0070301D110F8013B2A112E
:100F000006D110F8012B03E010F8016B01F8016B1A
:100F10005B1EF9D12B0705D40023521E0DD401F816
:100F2000013BFAE710F8013BCB1A921C03E013F8DF
:100F3000015B01F8015B521EF9D5A142D8D3002014
:100F400070BD000000B595B00121880501F032FFA9
:100F50000121080201F06EFF00200690484807902A
:100F6000484808900020099004200A9000200B9027
:100F70004FF480600C9040000D9080000E90401166
:100F80000F9040021090002011900120129000203C
:100F90001390149006A93C4801F030FA01213A4818
:100FA00001F034F90020009001208DF804000020A9
:100FB0008DF805004FF0805002904FF0C060039014
:100FC0000020049004208DF8140069462C484C3809
:100FD00000F094F9042301220F2129484C3800F035
:100FE0000FFA04230222194625484C3800F008FA6B
:100FF00004230322052122484C3800F001FA04237F
:101000001A4606211E484C3800F0FAF901211C4806
:101010004C3800F0E9F900230122062118484C3829
:1010200000F096F90022142115484C3800F044FADB
:101030004FF4801112484C3800F057F94FF48031CA
:101040000F484C3800F049F900210D484C3800F0A9
:10105000C1F800210A484C3800F0BBF901210848CA
:101060004C3800F024F9012105484C3800F014F9FF
:10107000012103484C3800F0B8F815B000BD00005D
:101080004C200140E80200201064024000B587B007
:101090000121480201F0CEFE002001908DF80800E9
:1010A0008DF809004FF0805003904FF0606004907D
:1010B0000020059001208DF8180001A91B4800F0C0
:1010C0001DF90021194800F0F2F80021174800F03E
:1010D000F9F8002301220D21144800F091F90121B3
:1010E000124800F081F9002301220A210F4800F084
:1010F0002FF9002214210D4800F0DEF94FF4801181
:101100000A4800F0F2F84FF48031084800F0E5F8A2
:101110000021064800F05EF80021044800F059F96B
:101120000121024800F061F807B000BD0021014034
:1011300000B587B00121880201F07CFE00200190FB
:101140008DF808008DF809004FF0805003904FF0A3
:10115000606004900020059001208DF8180001A91E
:101160001B4800F0CBF80021194800F0A0F800213E
:10117000174800F0A7F8002301220C21144800F0C2
:101180003FF90121124800F02FF9002301220B2121
:101190000F4800F0DDF8002214210D4800F08CF912
:1011A0004FF480110A4800F0A0F84FF4803108484D
:1011B00000F093F80021064800F00CF800210448E4
:1011C00000F007F90121024800F00FF807B000BD58
:1011D0000022014021B1426842F48062426003E093
:1011E000426822F480624260704721B1826842F016
:1011F0000102826003E0826822F00102826070478F
:101200000021084A1168084A1140D0E900231A4316
:1012100083681A43C3681A431143044AC2F804138B
:101220007047000004230140E030FCFF0020014033
:1012300000B587B00121052001F0BCFD01210802A5
:1012400001F0F8FD7020059003208DF818000020B3
:101250008DF81B0005A90E4801F048FB2F200590D2
:1012600003208DF8180000208DF81B0005A90948FF
:1012700001F03CFB002001904FF4803002900020F0
:101280000390049001A8FFF7BBFF07B000BD00006A
:10129000000002400008024021B1826842F48072DE
:1012A000826003E0826822F480728260704721B11C
:1012B000826842F40072826003E0826822F4007265
:1012C0008260704721B1826842F48062826003E0EC
:1012D000826822F48062826070470A460021816839
:1012E00021F470211143816070470A460021816812
:1012F00021F44011114381607047000030B502466F
:10130000002000235068104C20400D790C6844EAFE
:1013100005242043506090680C4C2040D1E90354D0
:101320002C438D682C434D7944EA4504204390605A
:10133000D06A20F470000C7D641EE4B2234340EABE
:101340000350D06230BD0000FFFEFFFCFDF7FFC080
:10135000F0B504461546002000220026092911DDBB
:10136000E068A1F10A0707EB470C072707FA0CF220
:101370009043A1F10A0707EB470703FA07F210436E
:10138000E0600CE0206901EB410C072707FA0CF242
:10139000904301EB410703FA07F210432061A06B71
:1013A000C0F30156EF1C06F1010CA7EB0C0707EB8D
:1013B000870C1F2707FA0CF29043EF1C06F1010C73
:1013C000A7EB0C0707EB870701FA07F21043A063AE
:1013D000F0BD21B1426842F48052426003E04268AD
:1013E00022F480524260704710B50A460021002363
:1013F000816B21F44011531E41EA0351816310BDFA
:10140000F0B504460D4600200021092D11DDE068ED
:10141000A5F10A0606EB4607072606FA07F18843F8
:10142000A5F10A0606EB460603FA06F10843E0605A
:101430000CE0206905EB4507072606FA07F188430B
:1014400005EB450603FA06F108432061072A0FDA87
:10145000606B561E06EB86071F2606FA07F18843C7
:10146000561E06EB860605FA06F10843606322E085
:101470000D2A0FDA206BD61F06EB86071F2606FA09
:1014800007F18843D61F06EB860605FA06F10843E6
:10149000206310E0E06AA2F10D0606EB86071F2626
:1014A00006FA07F18843A2F10D0606EB860605FA57
:1014B00006F10843E062F0BD08B5002300930090F8
:1014C000009B0B440093009B1A6008BD00BFFEE721
:1014D00010B502210A4800F08BF880B104210848B9
:1014E00000F032F80749064800F012F8064A0021D9
:1014F000034800F00DF9044800680449086010BD75
:10150000006400400800003228050020240000206C
:1015100000220C4B994202D10023836111E0C1F3F8
:10152000130201F000730BB1C2600AE001F08063A6
:101530000BB1026105E001F000630BB1826000E0D5
:10154000426070477000F030B1F5007F3AD00FDC98
:10155000202928D006DC01291CD004291DD0082907
:1015600040D11DE0402921D0B1F5807F3AD126E05D
:10157000B1F5004F31D006DCB1F5806F25D0B1F563
:10158000006F2FD124E0B1F5803F12D0B1F5003FBC
:1015900028D111E0154A826025E00822C26022E0CD
:1015A0001022C2601FE0082202611CE010220261CA
:1015B00019E00822426016E01022426013E0042283
:1015C000426010E0042242600DE0042242600AE022
:1015D000002282610422426005E00022826104222E
:1015E000426000E000BF00BF704700000101010041
:1015F00070B504460D46002660692840002871D069
:10160000B5F5807F5CD010DC082D35D006DC012DCF
:1016100020D0022D24D0042D72D127E0102D31D0FE
:10162000202D35D0402D6BD138E0B5F5004F60D07E
:1016300009DCB5F5007F49D0B5F5806F4CD0B5F524
:10164000006F5DD14FE0B5F5803F2DD0B5F5003F7F
:1016500056D12FE0A0682D4900F0D2F8064651E09F
:10166000E068032100F0CCF806464BE0E068082172
:1016700000F0C6F8064645E0E068102100F0C0F82A
:1016800006463FE02069032100F0BAF8064639E03B
:101690002069082100F0B4F8064633E020691021E3
:1016A00000F0AEF806462DE06068082100F0A8F8CA
:1016B000064627E06068102100F0A2F8064621E007
:1016C000A069012100F09CF806461BE0A0690221F8
:1016D00000F096F8064615E0A069042100F090F8A5
:1016E00006460FE00FE0A069702100F089F8064679
:1016F00008E06068042100F083F8064602E0FFE796
:10170000002600BF00E00026304670BD0101010048
:1017100010B500F5D87303EB01131B6803F0040345
:101720001372137A53B900F5D87303EB01131B68D6
:1017300040F2FF7404EA5353136009E000F5D873D4
:1017400003EB01131B686FF0604404EAD30353609A
:1017500000F5D87303EB01131B6803F00203537207
:1017600000F5D87303EB01135B6803F00F0393726A
:1017700000F5D87303EB01135B681B0AD37400F503
:10178000D87303EB01139B68D37200F5D87303EB96
:1017900001139B681C0A147300F5D87303EB011343
:1017A0009B681C0C547300F5D87303EB01139B6802
:1017B0001B0E937300F5D87303EB0113DB68D3732F
:1017C00000F5D87303EB0113DB681C0A147400F5F1
:1017D000D87303EB0113DB681C0C547400F5D87349
:1017E00003EB0113DB681B0E937421B9C36843F04C
:1017F0002003C36003E0036943F02003036110BDCD
:101800000246002002EA01030BB1012000E00020A3
:10181000704700001148D0ED0C0A9FED111AF4EE4C
:10182000C10AF1EE10FA02D2D0ED0C0A01E0DFEDB0
:101830000C0AB0EE600AF0EE000A60EE200A0948D9
:10184000C0ED000AD0ED000A60EEA00AB5EE001A65
:1018500060EE810A0448C0ED000A7047F40F0020D2
:101860000000FA44B8020020B402002070B5064619
:101870000C4604F08000802808D104F07F0000EBC3
:10188000800106F58E7000EBC10507E004F07F00D3
:1018900000EB800106F55D7000EBC10504F07F00F0
:1018A000287004F08000C00968702946304604F0B2
:1018B000CDF8002070BD70B506460C4604F08000DF
:1018C000802808D104F07F0000EB800106F58E70BF
:1018D00000EBC10505E004EB840106F55D7000EB4B
:1018E000C1050020A87004F07F002870C4F3C01068
:1018F00068702946304604F081F8002070BD2DE95B
:10190000F04106460D4690461F4605F080008028AF
:1019100008D105F07F0000EB800106F58E7000EB2A
:10192000C10407E005F07F0000EB800106F55D7063
:1019300000EBC10405F07F00207005F08000C009B5
:101940006070C4F80880E770607808B12078E080A3
:10195000022F01D1002020712146304604F002F808
:101960000020BDE8F0812DE9F04105460E461746FE
:10197000984606F07F0000EB800105F55D7000EBF6
:10198000C104E760C4F814800020A061607006F014
:101990007F002070E878012800D12761207820B9E5
:1019A0002146284603F002FF03E02146284604F0C2
:1019B000AEF80020BDE8F08108B500220092009A40
:1019C00061F30A12009202691268009B1A430369CC
:1019D0001A6008BD70B506460C4604F080008028E9
:1019E00008D104F07F0000EB800106F58E7000EB5B
:1019F000C10505E004EB840106F55D7000EBC1054F
:101A00000120A87004F07F002870C4F3C010687033
:101A10002946304604F049F8002070BD2DE9F04118
:101A200007460D461646984605F07F0000EB8001FC
:101A300007F58E7000EBC1040120607005F07F0097
:101A40002070E66026610020A061C4F81480207830
:101A500020B92146384603F0A9FE03E02146384666
:101A600004F055F80020BDE8F0811CB5044620467E
:101A700003F067FEE068C0680090204604F00AFAB0
:101A800003280BD10020A0704FF40070A0800098B4
:101A900020F4705000F51050009009E00120A07073
:101AA0004020A080009820F4705000F5A0500090D5
:101AB0000098E168C86000200190019820F400506F
:101AC00000F5005001900198E168486101201CBDBB
:101AD000F8B50546002400200090284604F019FAC5
:101AE000064690E006F0010000287DD0E1B22846CD
:101AF00000F002FB0090009800F0010030B30120DC
:101B000000FA04F72869406BB8432969486300204C
:101B10000090009820F00100401C009005F1180092
:101B200050F8240000998160E1B2394800684268A9
:101B300028469047E878012808D13CB940F21110B6
:101B4000405D042802D1284603F0DBFE0098C0F374
:101B5000C00060B100200090009820F0080008301C
:101B6000009005F1180050F8240000998160009859
:101B7000C0F3001060B100200090009820F0100029
:101B80001030009005F1180050F824000099816091
:101B90000098C0F3801060B100200090009820F001
:101BA00040004030009005F1180050F824000099E2
:101BB00081600098C0F3400060B100200090009860
:101BC00020F00200801C009005F1180050F824005D
:101BD000009981600098C0F3C01028B121462846C2
:101BE00000F09EFA002000E00BE00090009820F04A
:101BF00080008030009005F1180050F82400009912
:101C00008160641C7608002E7FF46CAF0120F8BD63
:101C1000640100207CB50446002500200190204688
:101C200004F07FF906466FE006F00100002869D055
:101C3000E9B2204604F07DF90190019800F001001E
:101C4000C8B300200190019820F00100401C0190D1
:101C500004F1540050F8250001998160E0780128D2
:101C600017D104F1540050F825000069009005EBED
:101C7000850104F55D7000EBC10080680099C1F337
:101C80001201411A05EB850204F55D7000EBC200FC
:101C90008161E9B21E480068026820469047E078FA
:101CA000012808D13DB940F21110005D052802D18C
:101CB000204603F026FE0198C0F3400060B10020EA
:101CC0000190019820F00200801C019004F1540062
:101CD00050F82500019981600198C0F3C00088B1D7
:101CE0000B480068816820468847002001900198D1
:101CF00020F008000830019004F1540050F825004D
:101D0000019981606D1C7608002E8DD101207CBD6B
:101D1000640100203EB50446A07A70B1D4F80C01ED
:101D20000090009820F002000090009820F0010040
:101D300000900099D4F80C010160002001900198F6
:101D400020F00100401C01902069406801998843FF
:101D5000216948600848006881692046884700205A
:101D60000290029820F0004000F10040029002989A
:101D7000E168486101203EBD640100207CB5044655
:101D800000200190019820F0100010300190E068D0
:101D9000806901998843E1688861E068006A009081
:101DA000009800F00F0000EB800104F55D7000EB7F
:101DB000C1050098C0F3434007282DD2DFE800F0AA
:101DC0002C04051D1E2C1F0027E00098C0F30A10EC
:101DD00090B10098C0F30A122046E96804F0B3F805
:101DE000E8680099C1F30A110844E860A8690099FD
:101DF000C1F30A110844A8610FE00EE00DE00822CB
:101E000004F2CC51204604F09EF8A8690099C1F371
:101E10000A110844A86100E000BF00BFE0688069C3
:101E200001990843E168886101207CBD38B504460A
:101E300008480068C1682046884700200090009844
:101E400020F00800083000900098E1684861012007
:101E500038BD0000640100201FB50446002000903A
:101E60004FF48970005D0090234800684169204666
:101E7000884720698068019000200390039820F42F
:101E8000006000F5006003900398E1684861A07A63
:101E900070B3019800F0010050B340F21510005DDE
:101EA000012825D19DF80000032821D100200290AF
:101EB000029820F00100401C0290D4F80C01006848
:101EC00002990843D4F80C110860029820F002002F
:101ED000801C0290D4F80C01006802990843D4F8E1
:101EE0000C1108600548006840F0060003490860CE
:101EF000012004B010BD00006401002010ED00E0DE
:101F000030B587B0044600200290069005900490FA
:101F100003900190029820F00100401C029020697B
:101F2000406802998843216948600021204603F0F7
:101F300087FF00250BE0FF2104F1180050F8250071
:101F4000816004F1540050F8250081606D1C6078B8
:101F5000A842F0D84FF0FF312069816106986FF3F5
:101F60000F00401C0690069880B200F58030069065
:101F700006992069C161059820F008000830059095
:101F8000059820F00100401C0590059820F0020003
:101F9000801C0590059920694161049820F001009A
:101FA000401C0490049820F0080008300490049825
:101FB00020F00200801C04900499206901612069CE
:101FC00000680390039820F4FE6003900399206951
:101FD0000160204603F095FC00200190019820F458
:101FE000805000F5805001900198E16848610448F4
:101FF0000068016920468847012007B030BD000015
:10200000640100202DE9F04106460F46394630466E
:1020100003F0AEFF01214FF4897081550021801C2F
:102020008155002511E005EB850106F58E7000EB6A
:10203000C104012060702570E5800020E070402020
:10204000A0600020E06060616D1C7078A842EAD852
:10205000002510E005EB850106F55D7000EBC1047D
:10206000002060702570E580E0704020A0600020B6
:10207000E06060616D1C7078A842EBD8304603F0D8
:102080004FFB304603F07AF90021304603F0D8FFC9
:10209000304603F006FA304603F09BFEBDE8F081BF
:1020A00038B504460020009007480068C169204602
:1020B0008847009820F4801000F580100090009868
:1020C000E1684861012038BD6401002038B504464C
:1020D0000020009007480068016A20468847009861
:1020E00020F4001000F5001000900098E1684861AD
:1020F000012038BD6401002030B5024615692B6906
:1021000015696C6B24FA01F505F0010543EAC51366
:1021100002F1180555F82150AD6805EA030030BDFD
:102120002DE9F84307460E4600250020009006EBF7
:10213000860107F58E7000EBC104D4E90501451A4C
:10214000A068A84200D2A568E81C4FEA900807F1F1
:10215000180050F82600806900901BE0D4E90501C2
:10216000451AA068A84200D2A568E81C4FEA90086A
:10217000ABB2F2B23846E16803F0A4FFE06828444D
:10218000E060A0692844A06107F1180050F826001B
:1021900080690090009880B2404506D9D4E90510C6
:1021A000884202D260690028D8D10120BDE8F883B6
:1021B00010B50749074800F0EFF8012807D1044996
:1021C000044800F009F80021024800F01FF810BD93
:1021D00000802020A06002400246094B9A4201D2B2
:1021E000084801E00648103801F000531BB1064BC7
:1021F0000B40C36002E0044B0B408360704700005B
:1022000010640240006002407D0F7D0F21B1026822
:1022100042F00102026003E0026822F00102026063
:1022200070470000016821F0010101600021016098
:1022300041608160C1600161212141614A49884258
:1022400004D13D21484A103A91608CE0464918314A
:10225000884205D14FF47461434A103A916082E09C
:1022600041493031884205D14FF474113E4A103A49
:10227000916078E03C494831884205D14FF0746163
:10228000394A103A91606EE037496031884204D192
:102290003649354A103AD16065E033497831884291
:1022A00004D13349304A103AD1605CE02E49903174
:1022B000884204D12F492C4A103AD16053E02A4970
:1022C000A831884205D14FF03D51274A103AD160DC
:1022D00049E02949884204D13D21274A083A116042
:1022E00041E025491831884205D14FF47461224AF2
:1022F000083A116037E020493031884205D14FF467
:1023000074111D4A083A11602DE01B49483188427A
:1023100005D14FF07461184A083A116023E016495C
:102320006031884204D11149134A121F11601AE02A
:1023300011497831884204D10D490F4A121F1160AA
:1023400011E00D499031884204D10A490A4A121F0E
:10235000116008E00849A831884204D14FF03D518E
:10236000054A121F11607047106002403D000020B6
:10237000400F002000003D20106402400146002074
:102380000A6802F001020AB1012000E00020704753
:102390000146486880B2704770B5024600200024AC
:1023A0000025124EB24201D2114B01E00F4B103BFF
:1023B000104E0E4036B11E2606EAD124166806EAF3
:1023C000040502E0566906F0800501F000560EB1E2
:1023D0005C6800E01C68084E344004EA010616B14F
:1023E0000DB1012000E0002070BD0000106402402B
:1023F000006002403C0F3C0F7D0F7D0F10B50022A6
:102400000268134B1A40CC680B6823434C69234382
:102410008C692343CC6923430C6A23434C6A2343CE
:102420008C6A23434C6B23438C6B23431A43026017
:10243000426922F00702D1E90B3423431A43426177
:102440000B6943604B6883608B68C36010BD0000FC
:102450003F801CF0416070477047000001490860F0
:1024600070470000143C014030B10749096841F44D
:102470008061054A116005E00349096821F4806123
:10248000014A116070470000003C024070B50446EC
:102490000A460026092502B909E0012A01D11602DF
:1024A00005E0022A01D1160201E04FF4407600F067
:1024B0009FF80546092D28D11548006820F4407082
:1024C0001349086008460068304308600846006801
:1024D00020F0F80008600846006844F00201084354
:1024E0000B4908600846006840F48030086000F03E
:1024F0007FF805460648006820F00200044908609D
:102500000846006820F0F8000860284670BD00000A
:10251000103C024009201349096801F48031B1F5EB
:10252000803F01D101201CE00E49096801F0100133
:1025300009B1062015E00B49096801F4807109B161
:1025400002200EE00749096801F0EF0109B10720F8
:1025500007E00449096801F0020109B1082000E020
:10256000092070470C3C02400348006840F00040DE
:102570000149086070470000103C024030B5024637
:102580000C46092500F034F80546092D19D10E48EE
:10259000006820F440700C4908600846006840F468
:1025A000007008600846006840F001000860146090
:1025B00000F01EF805460448006820F001000249BA
:1025C0000860284630BD0000103C02400548006805
:1025D00000F0004028B1044802490C390860034863
:1025E00008607047103C024023016745AB89EFCD7E
:1025F00008B509200090FFF78DFF009002E0FFF77B
:1026000089FF00909DF800000128F8D09DF8000097
:1026100008BD000000B52DED040B2DED108B83B02F
:10262000B0EE40DAF0EE60DA9DED150A07F00EF933
:10263000B0EE40EA9DED150A07F05AF9F0EE40EAD7
:10264000784890ED000A20EE0E0AD0ED010A0EEE59
:10265000A00AB0EE409A90ED010A20EE0E0AD0EDED
:10266000000A0EEEE00AF0EE409A6F4890ED000A84
:1026700079EEC00A90ED000A6C4890ED001A01EE68
:10268000200A694880ED000A694890ED000A79EE59
:10269000400A90ED000A654890ED001A01EE200A0C
:1026A000634880ED000A3DEE490AB0EE40FA3DEE87
:1026B000E90AF0EE40FA5F48D0ED000A5E4890ED7E
:1026C000000A0FEE200A8DED020A5A48D0ED000AEA
:1026D0005A4890ED000A0FEEA00A8DED010A584805
:1026E00090ED000ADFED570A20EE200AB0EE40AA76
:1026F000B7EE000AC0EE0A0ACDED000A9DED000A11
:10270000DDED020A20EE200AF0EE408A9DED000A7F
:10271000DDED010A20EE200AB0EE408A68EEA80A3C
:1027200048EE080AB0EE600A04F07FF8DFED460AD2
:1027300080EE801AF0EE41AAB7EE000AF4EEC0AACD
:10274000F1EE10FA1AD228EEAA0AF0EE408A28EE2C
:102750002A0AB0EE408A384890ED000ADFED3B0AC5
:1027600020EE200A80ED000A344890ED000ADFEDEB
:10277000370A20EE200A80ED000A1BE02D4890ED7C
:10278000010ADFED330A60EE200A2B4890ED000AC3
:102790000FEE200A80ED000A264890ED010ADFEDD9
:1027A0002C0A60EE200A254890ED000A0FEEA00AE0
:1027B00080ED000A28EE890A08EE290A254880EDF6
:1027C000000A9DED160A07F041F8B0EE40BA9DED03
:1027D000160A07F08DF8F0EE40BA2BEE280AB0EE9C
:1027E00040CA0BEEC8CA2BEE080AF0EE40CA4BEE08
:1027F000A8CA2AEE0C0A184880ED000A2AEE2C0A14
:10280000164880ED000AF0EE6C0AB0EE4C0A06F0B5
:102810004DF828B9002003B0BDEC108B04B000BD0A
:102820000120F8E77C010020B0010020B401002065
:10283000AC010020B8010020C0010020C40100202C
:10284000D4010020ABAA2A3FAC5C313FA4707D3F8D
:102850006F120339D0010020C8010020CC010020F4
:1028600010B52DED088BB0EE408AF0EE608AB0EE28
:10287000419AB0EE490A06F0E9FFF0EE409AB0EE58
:10288000490A07F035F8B0EE40AA29EE880A0AEEA8
:10289000680AF0EE40AA29EEA80A0AEE080AB0EE8D
:1028A00040BAF0EE4B0AB0EE6A0A06F04BF8BDEC07
:1028B000088B10BD1CB50121082000F07BFA042014
:1028C000009001208DF804008DF8070000208DF89D
:1028D00005008DF806006946034800F007F804215A
:1028E000014800F070F81CBD000C0240F0B50A462B
:1028F00000210023002400BF3DE0012505FA01F37B
:10290000156805EA03049C4234D105684F0003268C
:10291000BE40B543056015794E00B54006683543A5
:1029200005601579012D02D01579022D16D1856823
:102930004F000326BE40B543856055794E00B54033
:10294000866835438560456801268E40B5434560FD
:10295000456896798E40B6B235434560C5684F00EC
:102960000326BE40B543C560D5794E00B540C66864
:102970003543C560491C1029BFD3F0BDF0B5002315
:1029800000244D07ED0E02FA05F3CE1000F12005EC
:1029900055F826504E07F70E0F26BE40B543CF1010
:1029A00000F1200646F82750CE1000F1200555F81A
:1029B000265045EA0304CE1000F1200545F82640D4
:1029C000F0BD4183704701837047000070B5064633
:1029D0002C480078012852D02B480068B0F5006FD1
:1029E00002D1002028490860274800682749096863
:1029F000884203D100202349087070BD2248006836
:102A000022490968884206D91F480068C0F500605D
:102A10001F49086006E01D4800681B490968401A04
:102A20001B4908601A48006840280ED916480088DB
:102A300084B24025144800684030134908601448A7
:102A400000684038124908600FE00F48008884B2DF
:102A50000F48008885B20C4800680D490968084491
:102A60000949086000200A490860012005490870EA
:102A7000084802192B4681213046FEF7CFFF00BFE0
:102A8000BBE70000B4000020AC000020A80000203C
:102A9000B0000020CF05002000BFFEE74CF6CC4080
:102AA00001490860704700000030004010B545F251
:102AB000555000F021F8032000F012F84FF4FA709E
:102AC00000F014F800F004F8FFF7E8FF10BD000074
:102AD0004AF6AA2001490860704700000030004013
:102AE000014948607047000000300040014988609B
:102AF0007047000000300040014908607047000046
:102B00000030004010B52DED048B154890ED000A03
:102B1000FFEE000A20EE200A80ED000A114890ED39
:102B2000000ADFED110A20EE200AF7EE000A80EE1F
:102B3000801AB0EE419A0A4890ED000A20EE090A88
:102B4000B0EE408A9FED090AF0EE408AF0EE680A86
:102B5000B0EE480A05F0AAFEBDEC048B10BD0000E3
:102B60001C020020D4010020ABAA2A3F0000000074
:102B70001849097801B31849D1ED000AF5EEC00AE9
:102B8000F1EE10FA02DBF7EE000A01E0FFEE000AB8
:102B9000B0EE600A1149D1ED000A114991ED001A19
:102BA00030EEC11A0F49D1ED000AF1EE401A41EEA4
:102BB000810AC1ED000A04E00B4908600121054AC1
:102BC0001170064991ED000A054981ED000A074997
:102BD00008607047380200201C0200207C010020A1
:102BE0003002002034020020280200202C020020A5
:102BF0000020064908709FED060A064880ED000A8D
:102C00009FED030A044880ED000A70473802002057
:102C100000000000300200203402002010B5012026
:102C2000284908708003C8619FED270A084680ED97
:102C3000040A9FED260A80ED010A9FED250A80ED2A
:102C4000020A9FED240A80ED030A002048619FEDEF
:102C5000220A084680ED060A9FED1F0A80ED080A49
:102C6000002081F8240081F825008862012081F885
:102C70002C0081F82D00002081F82E0007F064FD63
:102C80001048007806281BD2DFE800F003060A0E81
:102C9000121600F0BDFE13E0002000F011FA0FE064
:102CA000002000F00DFA0BE0022000F009FA07E026
:102CB000002000F005FA03E0022000F001FA00BF56
:102CC00000BF10BD700F002000007A440AD7A33C5B
:102CD000DB0F4942DB0F49410000000000BFFEE767
:102CE0007047000070B5002100230F22C4781CB388
:102CF000174C246804F4E064C4F5E064C4F30721CD
:102D0000C1F10404E3B20A4144789C40E1B2847802
:102D1000144021430C07210E0E4C057861550478B0
:102D200004F01F050124AC4005786D11AD0005F1DC
:102D3000E025C5F8004109E0047804F01F050124EE
:102D4000AC40054D0678761145F8264070BD000070
:102D50000CED00E000E400E080E100E00249014306
:102D6000024A1160704700000000FA050CED00E017
:102D700010B5024801F0CCFE10BD00009C4A0020B6
:102D800010B50948807A50B10848006820F0060064
:102D90000649086000F058FC034803F078F94FF446
:102DA0008020FFF75BFB10BD9C4A002010ED00E087
:102DB0007047000029B1064A12680243044B1A60AA
:102DC00004E0034A12688243014B1A607047000016
:102DD0003038024029B1064A12680243044B1A6097
:102DE00004E0034A12688243014B1A6070470000F6
:102DF0003438024029B1064A12680243044B1A6073
:102E000004E0034A12688243014B1A6070470000D5
:102E10004038024029B1064A12680243044B1A6046
:102E200004E0034A12688243014B1A6070470000B5
:102E30002038024029B1064A12680243044B1A6046
:102E400004E0034A12688243014B1A607047000095
:102E50004438024029B1064A12680243044B1A6002
:102E600004E0034A12688243014B1A607047000075
:102E700024380240F0B5002100220024022500265B
:102E80000223324F3F6807F00C0121B1042905D01D
:102E9000082937D105E02E4F076036E02D4F076037
:102EA00033E02A4F3F1F3F68C7F38056274F3F1F2D
:102EB0003F6807F03F036EB1264FB7FBF3F7DFF82B
:102EC0008CC0ACF1040CDCF800C0CCF3881C07FB10
:102ED0000CF40CE01E4FB7FBF3F7DFF870C0ACF159
:102EE000040CDCF800C0CCF3881C07FB0CF4174F73
:102EF0003F1F3F68C7F301477F1C7D00B4FBF5F718
:102F0000076002E0124F076000BF00BF0F4F3F682D
:102F100007F0F0010909104F7A5C0768D740476055
:102F20000A4F3F6807F4E051890A0B4F7A5C476803
:102F3000D7408760054F3F6807F46041490B064F53
:102F40007A5C4768D740C760F0BD0000083802408F
:102F50000024F40000127A000000002010B52DEDCE
:102F6000028B094890ED000AB0EE408A9FED070AF7
:102F7000F0EE408AF0EE680AB0EE480A05F096FCE2
:102F8000BDEC028B10BD00002402002000000000F8
:102F900010B52DED028BB7EE000AB0EE408A9FED22
:102FA000330AF0EE408A324890ED000A314880ED55
:102FB000000A314890ED000A2E48D0ED000A70EE6C
:102FC000600A2E4890ED000A9FED2D1A01EE200AAE
:102FD00080ED000A264890ED010A2A48D0ED000A4B
:102FE00070EE600A90ED000A9FED271A01EE200AAC
:102FF00080ED000A214890ED000AB0EEC00A234897
:10300000D0ED000AB4EEE00AF1EE10FA05DD05F0AD
:10301000EBF9082007F000FA25E01D4890ED000AC2
:10302000F1EE080AB4EEE00AF1EE10FA05D805F068
:10303000DBF9102007F0F0F915E01548D0ED000A93
:103040009FED141A60EE810AB7EE001AC1EE201A45
:10305000B0EE610A0948D0ED000A60EE800A0E4821
:10306000C0ED000A00BFBDEC028B10BD0000A04205
:103070007C01002018020020100200201C02002009
:103080006F120339200200200BD7233C14020020CA
:10309000D4010020ABAA2A3F240200209FED050A9C
:1030A000054880ED000A9FED030A044880ED000A00
:1030B00070470000000000001C02002020020020D9
:1030C00010B588B0044601210720FFF773FE0121E7
:1030D000C803FFF78FFE0820069001208DF81C0022
:1030E00000208DF81E0001208DF81D008DF81F00B6
:1030F00006A92B48FFF7FAFB08212948FFF763FCD4
:103100004FF4E050069002208DF81C0000208DF84E
:103110001E0001208DF81D008DF81F0006A9214812
:10312000FFF7E4FB06220A211E48FFF727FC0622D0
:103130000B211C48FFF722FC06220C211948FFF73F
:103140001DFC0121C803FFF765FE00214FF400407C
:10315000FFF760FE0020ADF804004FF48270ADF878
:1031600006004FF40060ADF80800ADF80A400120F9
:10317000ADF80C004002ADF80E002020ADF81000B4
:103180000020ADF812000720ADF8140001A9064890
:1031900000F026F80121044800F008F808B010BD3E
:1031A0000004024000080240003C004021B10288B7
:1031B00042F04002028004E002884FF6BF731A40DA
:1031C000028070470246002013890B400BB101209A
:1031D00000E0002070470146888970478181704770
:1031E00010B50022028802F441520B884C88234318
:1031F0008C882343CC8823430C8923434C89234365
:103200008C892343CC8923431A430280838B4FF25A
:10321000FF74234083830B8A038210BD10B50446DC
:1032200000BF02210948FFF7CDFF0028F9D0214651
:103230000648FFF7D3FF00BF01210448FFF7C2FF94
:103240000028F9D00148FFF7C6FF10BD003C004040
:10325000F0EE400A20EEA00A7047704730B50346F2
:10326000F5EEC00AF1EE10FA1EDBB5EEC00AF1EE83
:1032700010FA0CDB9FEDB41A20EE811AB4EEC01ADE
:10328000F1EE10FA01DD02242CE001242AE09FED8A
:10329000AF1A20EE811AB4EEC01AF1EE10FA01DD79
:1032A00003241FE002241DE0B5EEC00AF1EE10FA7F
:1032B0000CDB9FEDA61A20EE811AB4EEC01AF1EED7
:1032C00010FA01DD05240DE006240BE09FED9E1AA7
:1032D00020EE811AB4EEC01AF1EE10FA01DD0424DA
:1032E00000E00524072C2BD2DFE804F0F2042B5475
:1032F0007BA2CB00DFED942AB0EE402A02EEE02A5A
:10330000B0EE421A9FED922A20EE822AF0EE421A87
:10331000B7EE002A32EE412A32EE612AF6EE002A9A
:1033200022EE222A83ED002A93ED002A32EE012AB2
:1033300081ED002A91ED002A32EE212A82ED002A49
:10334000C6E0DFED812AB0EE402A02EEA02AB0EE00
:10335000421AB1EE402ADFED7C2A02EEA02AF0EEFE
:10336000421AB7EE002A32EE412A32EE612AF6EE18
:10337000002A22EE222A81ED002A91ED002A32EE67
:10338000212A83ED002A93ED002A32EE012A82EDF4
:10339000002A9DE09FED6E2A20EE822AB0EE421AAE
:1033A000B1EE402ADFED682A02EEE02AF0EE421A82
:1033B000B7EE002A32EE412A32EE612AF6EE002AFA
:1033C00022EE222A81ED002A91ED002A32EE012A16
:1033D00082ED002A92ED002A32EE212A83ED002AA6
:1033E00076E0B1EE402ADFED582A02EEA02AB0EED8
:1033F000421A9FED582A20EE822AF0EE421AB7EECA
:10340000002A32EE412A32EE612AF6EE002A22EE3E
:10341000222A82ED002A92ED002A32EE212A81ED45
:10342000002A91ED002A32EE012A83ED002A4FE0B6
:10343000B1EE402ADFED442A02EEE02AF0EE421A15
:10344000DFED412AB0EE402A02EEE02AB0EE421A49
:10345000B7EE002A32EE612A32EE412AF6EE002A59
:1034600022EE222A82ED002A92ED002A32EE212A53
:1034700083ED002A93ED002A32EE012A81ED002A25
:1034800026E09FED342A20EE822AB0EE421ADFEDCC
:103490002E2AB0EE402A02EEA02AF0EE421AB7EE33
:1034A000002A32EE412A32EE612AF6EE002A22EE9E
:1034B000222A83ED002A93ED002A32EE212A82EDA2
:1034C000002A92ED002A32EE012A81ED002A00BF87
:1034D00000BF93ED001AB5EEC01AF1EE10FA2ADB28
:1034E00093ED001AF7EE001AB4EEE11AF1EE10FABD
:1034F00021D891ED001AB5EEC01AF1EE10FA1ADBE0
:1035000091ED001AF7EE001AB4EEE11AF1EE10FA9E
:1035100011D892ED001AB5EEC01AF1EE10FA0ADBDE
:1035200092ED001AF7EE001AB4EEE11AF1EE10FA7D
:1035300001D8012000E0002005460DB1002030BD7B
:103540004FF0FF30FBE700003ACD133F3ACD13BFF9
:103550003ACD933F3ACD93BF0CB500200190009037
:103560003448006840F480303249086000BF314878
:10357000006800F4003000900198401C0190009811
:1035800018B90198B0F5A04FF1D12A48006800F4AD
:10359000003010B10120009001E000200090009860
:1035A000012846D123484030006840F0805021492E
:1035B000403108602048006840F440401E490860DF
:1035C0001C48083000681B4908310860084600683C
:1035D00040F4004008600846006840F4A0500860CD
:1035E0001648091F0860081F006840F08070091F16
:1035F000086000BF0F48006800F000700028F9D094
:1036000040F205700E4908600A480830006820F052
:1036100003000849083108600846006840F00200CD
:10362000086000BF03480830006800F00C0008285C
:10363000F8D10CBD0038024000700040085440072B
:10364000003C02407047000010B51548006840F487
:103650007000134908601348006840F001001149E8
:10366000086000200F49083108600E4800680E49C4
:1036700008400C4908600D48091D0860081F0068D3
:1036800020F48020091F0860002006490C310860E2
:10369000FFF762FF4FF0006001498039086010BDFC
:1036A00088ED00E000380240FFFFF6FE10300024F5
:1036B000F0B50C46154600210022068C4FF6FE7729
:1036C0003E400684018B028C4FF60C7631407E1C06
:1036D00006EA03162E4331434FF6F576324044F0A6
:1036E0000106324301830284F0BDF0B50C46154655
:1036F000002100220026078C4FF6EF7C07EA0C071A
:103700000784018B028C4FF6FF7707EA041640F618
:10371000FF4739404FF6FF7707EA033739434FF643
:10372000FF7707EA052739434FF65F773A4046F0BF
:1037300010073A4301830284F0BDF0B50C461546EC
:10374000002100220026078C4FF6FF6C07EA0C07C9
:103750000784818B028C4FF6FF7707EA04264FF629
:103760000C7739404FF6FF7707EA03172F433943A9
:103770004FF2FF573A4046F480773A438183028400
:10378000F0BDF0B50C461546002100220026078C3E
:103790004EF6FF7C07EA0C070784818B028C4FF6FC
:1037A000FF7707EA043640F6FF4739404FF6FF77C8
:1037B00007EA052739434FF6FF7707EA033739430E
:1037C00045F6FF773A4046F480573A4381830284B6
:1037D000F0BD000000B58FB001210320FFF7EAFA29
:1037E00001210846FFF726FB012208215D48FFF76B
:1037F000C5F8012209215B48FFF7C0F801220A2120
:103800005848FFF7BBF801220D215748FFF7B6F8DB
:1038100001220E215448FFF7B1F801220F2152482E
:10382000FFF7ACF84FF4E0600C9002208DF8340004
:1038300000208DF8360003208DF8350000208DF82B
:1038400037000CA94748FFF751F84FF460400C903F
:1038500002208DF8340000208DF8360003208DF80A
:10386000350000208DF837000CA93F48FFF73EF8DF
:103870003E4800F0BBF90020ADF824006020ADF810
:10388000260040F6AC500A900020ADF82C00022033
:103890008DF82E0009A9354800F024FC7020ADF801
:1038A00010000120ADF812000420ADF8140040F221
:1038B000D66006900020ADF81C00ADF81E00ADF8F3
:1038C0002000ADF8220004A9284800F0D3FA04A98A
:1038D000264800F017FB04A9244800F073FB0821D8
:1038E000224800F005FB0821204800F05DFB08217C
:1038F0001E4800F0B7FB4FF40060ADF80000401028
:10390000ADF802000020ADF804006420ADF8060018
:103910000020ADF808004FF40050ADF80A00002078
:10392000ADF80C006946114800F032F919208DF805
:10393000380001208DF83B000EA8FFF7D3F92021B5
:103940000A4800F098FB0121084800F015F9012110
:10395000064800F02DF901221146044800F080FAD3
:103960000FB000BD00000240000402400000014012
:1039700070B50121144800F01BF91448006842F6A4
:1039800004110844114908600F48008800F0100530
:1039900065B906F021FD0E4805F002F80C490B4808
:1039A000006804F031FC03F021FF0CE0002400E08B
:1039B000641C142CFCD3064804F0F2FF044804F005
:1039C000C1FC06F05FF970BD00000140DC01002081
:1039D000040F00200EB501210846FFF70BFA40F254
:1039E000E73001905320ADF800000020ADF8020050
:1039F000ADF8080069464FF0804000F073FB2021CD
:103A0000480600F038FB0121880700F0D4F80EBD0D
:103A100000B589B001210220FFF7CCF90121022075
:103A2000FFF7E8F93020079002208DF820000020F1
:103A30008DF8220001208DF8210000208DF8230050
:103A400007A91F48FEF752FF022204211C48FEF777
:103A500095FF022205211A48FEF790FF4FF6FF70EE
:103A600005900020ADF81000ADF81200ADF8180078
:103A700004A9144800F036FB00231A46032111481C
:103A800000F07CF901A800F0E2F90020ADF8040094
:103A90000420ADF80C0001A90A4800F0A1F90420A7
:103AA000ADF8040001A9074800F09AF90021054883
:103AB00000F0EAFA0121034800F07DF809B000BDEA
:103AC000000402400004004010B50121094800F044
:103AD00076F970B108480068401C0749086008463C
:103AE0000068142801DD002008600121014800F071
:103AF0005FF810BD00140040140000201FB5012124
:103B00002020FFF777F937208DF8000001208DF88D
:103B100003006846FFF7E6F840F2E73002905320D2
:103B2000ADF804000020ADF80600ADF80C0001A9C6
:103B3000064800F0D7FA01221146044800F090F937
:103B40000121024800F037F81FBD000000140040BA
:103B500010B50121064800F032F940B101210448B6
:103B600000F026F803480068401C0249086010BDB8
:103B7000002000401000002021B1028842F08002A5
:103B8000028004E002884FF67F731A40028070477B
:103B90000A884B881A438B881A43CB881A430B89AF
:103BA0001A434B891A438B891A43A0F84420704763
:103BB000CA430282704721B1028842F001020280AA
:103BC00004E002884FF6FE731A400280704731B15C
:103BD000B0F8442042F40042A0F8442005E0B0F8D8
:103BE0004420C2F30E02A0F84420704710B50446EA
:103BF0005548844208D101210846FFF72BF90021DE
:103C00000120FFF727F99DE0B4F1804F08D1012191
:103C10000846FFF7FFF800210120FFF7FBF891E0CD
:103C20004A48844208D101210220FFF7F3F800211D
:103C30000220FFF7EFF885E04548844208D10121D2
:103C40000420FFF7E7F800210420FFF7E3F879E00C
:103C50004048844208D101210820FFF7DBF8002109
:103C60000820FFF7D7F86DE03B48844208D10121D6
:103C70001020FFF7CFF800211020FFF7CBF861E00C
:103C80003648844208D101212020FFF7C3F80021E3
:103C90002020FFF7BFF855E03148844208D10121C8
:103CA0000220FFF7D7F800210220FFF7D3F849E000
:103CB0002C48844209D101210804FFF7CBF80021E8
:103CC0004FF48030FFF7C6F83CE02748844209D122
:103CD00001214804FFF7BEF800214FF40030FFF740
:103CE000B9F82FE02148844209D101218804FFF767
:103CF000B1F800214FF48020FFF7ACF822E01C4817
:103D0000844208D101214020FFF784F8002140209F
:103D1000FFF780F816E01748844208D1012180207F
:103D2000FFF778F800218020FFF774F80AE01248C6
:103D3000844207D101218015FFF76CF80021A015FE
:103D4000FFF768F810BD00000000014000040040CB
:103D500000080040000C004000100040001400402B
:103D6000000401400040014000440140004801407F
:103D700000180040001C004000200040F0B50C4638
:103D800015461E460021002200230189028B038C68
:103D90004FF6F877394021434FF6FC473A4040F25E
:103DA00001173A434FF6DD773B404FF6FF7707EABE
:103DB00006172F433B43018102830384F0BD30B5D6
:103DC0000246002000230024158A05EA0103958994
:103DD00005EA010413B10CB1012000E0002030BD60
:103DE00070B505460C46208850B92389A2886188A1
:103DF0002846FFF75DFCE188284600F047F925E0FA
:103E0000208804280AD12389A28861882846FFF7E0
:103E10006CFCE188284600F042F917E02088082869
:103E20000AD12389A28861882846FFF786FCE188A9
:103E3000284600F041F909E02389A28861882846D4
:103E4000FFF79FFCE188284600F03FF970BD002194
:103E500001804180012181800021C1800181704762
:103E60001AB183890B43838102E083898B43838169
:103E70007047000070B5002400220023058C4FF627
:103E8000FE7635400584028C8388048B4FF68F754F
:103E90002C40B51E2C400D882C43751E2A408D8960
:103EA0002A434D882A43104DA84202D00F4DA84204
:103EB00013D14FF6F7752A40CD892A434FF6FB758B
:103EC0002A408D882A434FF6FF652B404FF6FF5559
:103ED0002B400D8A2B434D8A2B43838004838D68AE
:103EE0004563028470BD00000000014000040140F1
:103EF0000A460021018B4FF6F773194011430183E5
:103F00007047000070B5002400220023058C4FF696
:103F1000EF7635400584028C8388048B48F6FF7564
:103F20002C404FF6FF452C400D884FF6FF7606EAF1
:103F300005252C434FF6DF752A408D8906EA0515C5
:103F40002A434D8806EA05152A43154DA84202D09A
:103F5000144DA8421DD14FF67F752A40CD894FF6EA
:103F6000FF7606EA05152A434FF6BF752A408D886D
:103F700006EA05152A434FF6FF352B404FF2FF7531
:103F80002B400D8A06EA85052B434D8A06EA8505F6
:103F90002B43838004838D688563028470BD000099
:103FA00000000140000401400A460021018B4FF24D
:103FB000FF7319404FF6FF7303EA0223194301838D
:103FC0007047000070B5002400220023058C4FF6D6
:103FD000FF6635400584028C8388848B4FF68F758D
:103FE0002C404FF6FC752C400D882C434FF6FF55A6
:103FF0002A408D894FF6FF7606EA05252A434D882B
:1040000006EA05252A43154DA84202D0144DA842C0
:104010001DD14FF2FF752A40CD894FF6FF7606EA93
:1040200005252A434FF6FF352A408D8806EA0525E7
:104030002A434EF6FF752B404DF6FF752B400D8A37
:1040400006EA05152B434D8A06EA05152B438380A6
:1040500084838D68C563028470BD00000000014048
:10406000000401400A460021818B4FF6F773194086
:1040700011438183704782884FF68F731A40828084
:1040800082880A438280704741627047028B4FF6F4
:10409000F3731A400283028B0A4302837047028B38
:1040A0004FF2FF331A400283028B4FF6FF7303EA8D
:1040B00001231A4302837047828B4FF6F3731A4031
:1040C0008283828B0A4382837047828B4FF2FF3355
:1040D0001A408283828B4FF6FF7303EA01231A434F
:1040E0008283704700220288184B98420ED0184BEA
:1040F00098420BD0B0F1804F08D0164B984205D0B3
:10410000154B984202D0154B984204D14FF68F734D
:104110001A404B881A43124B984207D0114B9842D1
:1041200004D04FF6FF431A400B891A4302804B68B4
:10413000C3620B880385054B984202D0044B98421A
:1041400001D18B7A038601238382704700000140EE
:10415000000401400004004000080040000C004042
:10416000001000400014004010B540F224411548F2
:1041700000F066F9012823D112480088124908602E
:104180001048001D008808601048FEF701F9C0F5CE
:1041900080700D49086000210C48FEF737F800BF19
:1041A0000A48FEF7EBF80028FAD14FF4807107486F
:1041B000FEF750F901210548FEF728F803F050F901
:1041C00010BD00000044004018000020886002403C
:1041D00010B596B0044601214148FEF7EBFD0121E0
:1041E0004804FEF707FE072202213E48FEF7C6FB01
:1041F000072203213B48FEF7C1FB0C20149002204C
:104200008DF8540000208DF8560001208DF85700DD
:1042100002208DF8550014A93248FEF767FB2620CE
:104220008DF83C0002208DF83D0000208DF83E0006
:1042300001208DF83F000FA8FEF754FD2A4800F03A
:1042400087F810940020ADF84C000C20ADF84A001F
:104250000020ADF84800ADF84600ADF8440010A9C4
:10426000214800F03DF9012240211F4800F066F886
:1042700001211D4800F056F8012240F224411A485D
:1042800000F008F91948FDF7CDFF4FF000600090ED
:104290001548001D019016480290002003904FF42D
:1042A00080700490002005904FF4806006900020FC
:1042B000079008904FF48070099040020A90002007
:1042C0000B9003200C9000200D900E90694607483B
:1042D000FEF794F801210548FDF798FF16B010BDD0
:1042E00001002000000002400044004088600240BD
:1042F0002804002010B5044600210848FDF786FF79
:10430000A1B20648FEF7A6F801210448FDF77EFF9A
:1043100001228021024800F011F810BDA060024087
:104320000044004021B1828942F40052828104E0BD
:1043300082894DF6FF731A40828170471AB1838AD1
:104340000B43838202E0838A8B43838270470000A1
:1043500010B504463248844208D101211020FEF7EE
:1043600079FD00211020FEF775FD57E02D488442AD
:1043700009D101214804FEF74DFD00214FF4003022
:10438000FEF748FD4AE02848844209D1012188040B
:10439000FEF740FD00214FF48020FEF73BFD3DE09D
:1043A0002248844209D10121C804FEF733FD0021CF
:1043B0004FF40020FEF72EFD30E01D48844209D165
:1043C00001210805FEF726FD00214FF48010FEF7BD
:1043D00021FD23E01748844208D101212020FEF767
:1043E00039FD00212020FEF735FD17E012488442F8
:1043F00009D101218807FEF70DFD00214FF0804013
:10440000FEF708FD0AE00D48844207D1012140056E
:10441000FEF700FD00216005FEF7FCFC10BD00006A
:10442000001001400044004000480040004C0040A3
:10443000005000400014014000780040007C004023
:1044400070B50246002400230025002040F66A16BD
:10445000B14200D100BFC1F3421501F01F03012694
:1044600006FA03F3012D02D19689334006E0022DAE
:1044700002D1168A334001E0968A33400C1201269D
:1044800006FA04F41688344013B10CB1012000E0A0
:10449000002070BDF0B50346002400260025002052
:1044A00040F66A17B94200D100BF1846C1F3421462
:1044B00001F01F06012707FA06F5012C01D10C3087
:1044C00004E0022C01D1103000E014301AB107686A
:1044D0002F43076002E00768AF430760F0BD0000AC
:1044E0002DE9FF4705460E460024A14600BFA04621
:1044F000B08900B100BF2C8A24F44054F0880443F2
:104500002C82AC8941F20C608443B0883189084325
:10451000718908430443AC81AC8A24F44074B089A7
:104520000443AC826846FEF7A5FC2048854202D0D1
:104530001F48854202D1DDF80C9001E0DDF80890BB
:10454000A88900F4004040B109EBC90000EB091054
:1045500031684900B0FBF1F707E009EBC90000EB57
:10456000091031688900B0FBF1F76420B7FBF0F067
:1045700004012009642101FB1078A88900F400409F
:1045800040B1322000EBC800B0FBF1F000F00700B2
:10459000044308E0322000EB08106421B0FBF1F086
:1045A00000F00F0004432C81BDE8FF87001001409C
:1045B0000014014070B504460D46D4F8E4052946C0
:1045C000426820469047002070BD70B504460D46F5
:1045D0004FF48970005D022802D0032812D100E058
:1045E00000BF688801280CD100214FF48C70015164
:1045F000D4F8E4052946826820469047204600F01A
:1046000075F804E02946204600F021F800BF00BFFD
:1046100070BD2DE9F04106460C46154600272B4695
:10462000224600213046FDF79EF93846BDE8F0816C
:104630002DE9F04106460C46154600272B4622463A
:1046400000213046FDF7EAF93846BDE8F08170B543
:1046500004460D4680212046FDF7BCF90021204686
:10466000FDF7B8F9204601F04CF970BD2DE9F04195
:1046700004460E4615460027C4F89453C4F89053D8
:10468000032140F2111001552B46324600212046ED
:10469000FDF769F93846BDE8F08170B5044600259C
:1046A000052140F21110015500231A4619462046F3
:1046B000FDF759F9204601F024F9284670BD2DE98F
:1046C000F04104460E4615460027C4F83C51C4F894
:1046D0003851022140F2111001552B46324600217B
:1046E0002046FDF79BF93846BDE8F08170B50446D9
:1046F0000025042140F21110015500231A461946E5
:104700002046FDF78BF9204601F0FBF8284670BDE6
:1047100070B505460E46002E51D105F58E7440F257
:104720001110405D02283DD1A168E069884211D98D
:10473000A168E069401AE061E878012803D1D4E972
:1047400002100844E060A08B82B22846E168FFF7BF
:104750006FFF27E0A168206AB0FBF1F201FB1200B5
:1047600078B9A168206A88420BD3D4E9080188424D
:1047700007D2002211462846FFF75AFF0020606248
:1047800010E0D5F8E405C06848B14FF48970405D89
:10479000032804D1D5F8E405C1682846884728468F
:1047A000FFF77BFF4FF48B70405D012816D1284640
:1047B00000F06AFA00214FF48B7041550EE0D5F8F5
:1047C000E405406950B14FF48970405D032805D17C
:1047D000D5F8E4053146426928469047002070BD6F
:1047E00070B505460E46A6BB05F55D7440F2111086
:1047F000405D03283DD1A168E069884217D9A168CE
:10480000E069401AE061E878012803D1D4E9021098
:104810000844E060A368E069984201D2E06900E0E2
:10482000A06882B22846E168FFF7F3FE21E0D5F8E0
:10483000E405006948B14FF48970405D032804D154
:10484000D5F8E4050169284688472846FFF74EFF5A
:104850000FE0FFE7D5F8E405806950B14FF48970A7
:10486000405D032805D1D5F8E40531468269284624
:104870009047002070BD01460020704770B5044687
:104880000D46E888012804D029462046FFF7DFFEC0
:104890001AE04FF48970005D022802D003280DD180
:1048A00005E0012209492046FFF709FF0BE001223C
:1048B00004F588712046FFF702FF04E029462046F0
:1048C000FFF7C5FE00BF00BF70BD00006C010020F7
:1048D000F8B504460E467088001208286CD2DFE84E
:1048E00000F06B0416226B6B6166A078D4F8EC15AF
:1048F0000A68694690470546F088402804D04FF47E
:104900008970005D012801D10820009059E0A0784D
:10491000D4F8E4158A6A6946904705460221697011
:10492000C4F8F0554DE0B078062834D2DFE800F046
:10493000030B131B232BA078D4F8EC154A686946A7
:10494000904705462CE0A078D4F8EC158A686946B3
:104950009047054624E0A078D4F8EC15CA6869466B
:10496000904705461CE0A078D4F8EC150A69694622
:104970009047054614E0A078D4F8EC154A696946DA
:10498000904705460CE0A078D4F8EC158A69694692
:104990009047054604E031462046FFF758FEF8BD33
:1049A00000BF0EE031462046FFF751FEF7E73146E3
:1049B0002046FFF74CFEF2E731462046FFF747FE60
:1049C000EDE700BFBDF8000088B1F08878B1F0884D
:1049D000BDF80010884202DDBDF8000000E0F0885C
:1049E0000090BDF8002029462046FFF768FE00BF72
:1049F000D5E70146002002E0421CD0B2491C0A78EB
:104A0000002AF9D17047000070B504460D464FF4F6
:104A10008970005D022802D0032813D100E000BF96
:104A200001200C4908604FF48C70005920B10846F1
:104A3000006840F002000860022206492046FFF7A5
:104A40003EFE04E029462046FFF701FE00BF00BFFE
:104A500070BD0000700100202DE9F04104460D46B4
:104A600017460026FCB12046FFF7C3FF022101EBE9
:104A7000400038803A783046711CCEB22A54032266
:104A80003046711CCEB22A540AE014F8012B30468D
:104A9000711CCEB22A5400223046711CCEB22A5468
:104AA00020780028F1D1BDE8F0812DE9F0410446DD
:104AB0000F4615461E46DDF81880204600F018FC0B
:104AC0002046FFF7D8FEC4F8E465C4F8E885C4F8CA
:104AD000EC5539462046FDF795FAD4F8E8150868F4
:104AE0008047204600F0EEFBBDE8F08110B504469B
:104AF000D4F8E405016A20468847002010BD10B5AF
:104B00000446D4F8E405416A20468847002010BDD9
:104B10007CB505460024284601F0E8F9002865D058
:104B2000284601F0EEF90190019808B900207CBDFB
:104B30000198C0F3C04018B12846FDF76BF8044354
:104B40000198C0F3804018B12846FCF7C1FF044328
:104B50000198C0F3400050B100200090009820F070
:104B60000200801C00900098E968486100BF01982D
:104B7000C00F18B12846FDF7CDF804430198C0F3E3
:104B8000C02018B12846FDF767F904430198C0F327
:104B9000C00018B12846FDF749F904430198C0F355
:104BA000001018B12846FDF7E9F804430198C0F356
:104BB000003018B12846FDF7A3F904430198C0F36B
:104BC000403018B12846FCF750FF04430198C0F369
:104BD000005018B12846FDF763FA04430198C0F36A
:104BE000405018B12846FDF771FA044320469EE76D
:104BF00090F8CC250A7090F8CD254A7090F8CE3503
:104C000090F8CF2503EB02224A8090F8D03590F837
:104C1000D12503EB02228A8090F8D23590F8D32573
:104C200003EB0222CA80CB884FF4A07213500123F9
:104C300040F211121354704710B50446002340226D
:104C400019462046FCF75BFE0023402280212046C7
:104C5000FCF755FE01214FF489700155A078D4F876
:104C6000E82551688847002010BD10B50446D4F8E7
:104C7000E8150869804740F21310015D401E015598
:104C800003210155002010BD014603480268086950
:104C900042600020704700003401002010B5044637
:104CA000D4F8E405C06920B1D4F8E405C169204610
:104CB0008847002010BD70B504460D46A88818BB73
:104CC000E88808BBA87800F07F064FF48970005D83
:104CD000032804D129462046FFF7B9FC18E04FF419
:104CE0008A70065531462046FCF766FE2046FFF7DF
:104CF000FDFC26B102214FF48970015508E0012125
:104D00004FF48970015503E029462046FFF79FFCC8
:104D100070BD70B504460D46D4F8E4052946026816
:104D200020469047D4F8E81588688047002070BD79
:104D300070B504460D46A8783049087008460078DA
:104D4000012804DD29462046FFF781FC55E04FF499
:104D50008970005D022802D0032848D117E0274857
:104D6000007880B12548007884F8100103214FF4C1
:104D700089700155214801782046FFF7CAFF204677
:104D8000FFF7B4FC02E02046FFF7B0FC34E01B481C
:104D9000007880B902214FF48970015517480078D6
:104DA00084F81001154801782046FFF703FC2046DF
:104DB000FFF79CFC1AE094F810011049097888422A
:104DC00011D094F810112046FFF7F4FB0B4800783F
:104DD00084F81001094801782046FFF79AFF204621
:104DE000FFF784FC02E02046FFF780FC04E0294640
:104DF0002046FFF72CFC00BF00BF70BD74010020EF
:104E0000F8B504460D460026688801280DD1012119
:104E10004FF48C700151D4F8E4052946826820468D
:104E200090472046FFF762FC39E06888022836D1B7
:104E30002879A0BB206940680090A8880612062E39
:104E400022D2DFE806F02103090F151B009820F09D
:104E500070001030009017E0009820F070002030B3
:104E6000009011E0009820F07000303000900BE0CE
:104E7000009820F070004030009005E0009820F08D
:104E800070005030009000BF00BF054800990160DD
:104E900001214FF48B7001552046FFF727FCF8BD28
:104EA000340100201CB5044669462046FFF7A0FEE9
:104EB0009DF8000000F01F0020B1012807D0022853
:104EC0000FD109E06946204600F016F811E0694666
:104ED000204600F0F9F80CE06946204600F046F85C
:104EE00007E09DF8000000F080012046FCF772FD0D
:104EF00000BF00BF00201CBD70B505460C46002653
:104F000060780A2829D2DFE800F01923281E280A31
:104F10000528140F21462846FFF7DAFC22E0214637
:104F20002846FFF7C8FE1DE021462846FFF700FF90
:104F300018E021462846FFF7A1FC13E02146284649
:104F4000FFF762FD0EE021462846FFF759FF09E012
:104F500021462846FFF739FB04E021462846FFF7A3
:104F600076FB00BF00BF304670BD00002DE9F04168
:104F700005460E46002734797078002857D001285E
:104F80002BD0032875D14FF48970405D022802D0E0
:104F900003281BD107E02CB1802C03D021462846E2
:104FA000FCF718FD17E0708830B92CB1802C03D0C5
:104FB00021462846FCF70EFDD5F8E4053146826807
:104FC000284690472846FFF791FB04E031462846E3
:104FD000FFF73DFB00BF00BF70E04FF48970405DFC
:104FE000022802D003281BD107E02CB1802C03D06B
:104FF00021462846FCF7EEFC17E0708878B95CB1D2
:10500000802C09D021462846FCF755FCD5F8E4054C
:1050100031468268284690472846FFF767FB04E040
:1050200031462846FFF713FB00BF00BF46E04FF4B0
:105030008970405D022802D0032837D107E02CB1E7
:10504000802C03D021462846FCF7C4FC33E004F052
:105050008000802812D104F07F0000EB800105F56C
:105060008E7000EBC100807820B1012015490860E6
:1050700016E022E000201349086011E004F08000EF
:1050800070B904EB840105F55D7000EBC100807818
:1050900018B101200B49086002E0002009490860AE
:1050A000022208492846FFF70AFB04E03146284659
:1050B000FFF7CDFA00BF00BF00E000BF00BF3846D9
:1050C000BDE8F0816801002070B504460D46002659
:1050D0004FF48970005D032814D1287901280CDC75
:1050E000D4F8E4052946826820469047E88840B90C
:1050F0003EB92046FFF7FAFA03E029462046FFF7BB
:10510000A6FA04E029462046FFF7A1FA00BF00BF37
:10511000304670BD10B504464FF48970015D401CE7
:1051200001550421401E0155D4F8E815C868804790
:10513000002010BD70B505460C462DB92246064923
:1051400006A0FFF789FC04E02246034903A0FFF70D
:1051500083FC014870BD0000CF0D00205643502055
:10516000436F6E6669670000704770470246122001
:1051700008800148704700006000002070477047B9
:10518000704770477047000070B505460C462DB952
:105190002246064906A0FFF75FFC04E022460349C9
:1051A00003A0FFF759FC014870BD0000CF0D00209F
:1051B00056435020496E7465726661636500000055
:1051C0000246042008800148704700007C0000204F
:1051D00070B505460C462246024903A0FFF73CFC89
:1051E000004870BDCF0D002053544D6963726F6548
:1051F0006C656374726F6E696373000070B5054609
:105200000C462DB92246064906A0FFF725FC04E00E
:10521000224603490CA0FFF71FFC014870BD0000A7
:10522000CF0D002053544D3332205669727475618E
:105230006C20436F6D506F727420696E204853204C
:105240006D6F64650000000053544D333220566981
:10525000727475616C20436F6D506F727420696E4B
:10526000204653204D6F64650000000070B5054670
:105270000C462DB92246064906A0FFF7EDFB04E0D7
:105280002246034907A0FFF7E7FB014870BD000075
:10529000CF0D0020303030303030303030353042BB
:1052A00000000000303030303030303030353043A6
:1052B00000000000024643200880014870470000BB
:1052C000EC00002038B504464FF4C060FDF746FD01
:1052D00043208DF8000001208DF8010003208DF897
:1052E000020001208DF803006846FDF7FBFC38BD85
:1052F0001CB5044601210846FDF75CFD4FF4C05083
:10530000009003208DF8050002208DF80400002095
:105310008DF806008DF8070069460B48FDF7E6FAA0
:105320000A220B210848FDF729FB0A220C21064816
:10533000FDF724FB01218803FDF77CFD012180207E
:10534000FDF748FD1CBD00000000024010B50446FA
:105350004FF47A7104FB01F000F001F810BD10B5B4
:105360000022C0EB0013DB000724B3FBF4F100BF05
:10537000531C1A468B4200D910BDF9E73EB50446CE
:1053800000250020029001900090207A01283DD154
:10539000E068806B0190019820F480300190607A81
:1053A00028B1019820F4801000F580100190019838
:1053B000E168886300200290E068C068029002986B
:1053C00020F040000290029820F4800002900298A1
:1053D00020F400300290029820F4002002900298FD
:1053E000E168C860204600F063F9E078012843D105
:1053F000009820F01E000A300090009820F0200055
:10540000203000900098E168886035E0E068C0686E
:105410000290029820F04000403002900298E1682B
:10542000C860204600F044F900200190019820F463
:10543000803000F580300190019820F4802000F544
:1054400080200190019820F4002000F500200190B8
:10545000019820F4001000F500100190607A28B146
:10546000019820F4801000F5801001900198E16807
:1054700088631420FFF76AFFE07801280FD1E06805
:1054800080680090009820F01E000A30009000987C
:1054900020F02000203000900098E16888602846C5
:1054A0003EBD70B588B004460026002007900690E7
:1054B0000590049003900021D4F80C01016020694C
:1054C00000680690069820F4C0500690069920695E
:1054D0000160E07A01283FD10321204600F0FAFC68
:1054E0008020E1684862059880B200F500100590C0
:1054F00005986FF30F00803005900598E168886289
:10550000059800EB1041049861F30F000490049893
:1055100080B200F5000004900498E168C1F804012D
:10552000049800EB104161F30F000490049880B2DE
:1055300000F5001004900499E068C0F80811049880
:1055400000EB104161F30F000490049880B20490C6
:105550000499E068C0F80C111021204600F070FC9E
:10556000204600F047FC002120690161206941616B
:10557000491E2069816100212069C16100252CE05C
:1055800004F1180050F82500006807900798C00F34
:1055900070B100200790079820F0804000F1804013
:1055A0000790079820F0006000F10060079001E08C
:1055B0000020079004F1180050F8250007990160B9
:1055C000002104F1180050F825000161FF2104F1C9
:1055D000180050F8250081606D1C6078A842CFD873
:1055E00000252CE004F1540050F8250000680190DB
:1055F0000198C00F70B100200190019820F0804008
:1056000000F180400190019820F0006000F10060FE
:10561000019001E00020019004F1540050F82500B1
:1056200001990160002104F1540050F82500016146
:10563000FF2104F1540050F8250081606D1C607852
:10564000A842CFD800200390039820F4807000F582
:105650008070039020690069039988430843216999
:105660000861E07801281DD100200290029820F006
:105670000100401C0290029820F00200801C029061
:105680004021029861F38A000290029820F4803051
:1056900000F580300290029861F35940029002991F
:1056A00020690163204600F047FB304608B070BD1A
:1056B000F8B50446002600250020009000BF032016
:1056C000FFF74DFEE06800690090681C054613492D
:1056D000884201D90020F8BD0098C00F0028EED004
:1056E0000025009820F00100401C00900098E1681F
:1056F000086100BFE06800690090681C0546074922
:10570000884200D904E0009800F001000028F1D19F
:1057100000BF0320FFF723FE3046DCE7400D030007
:1057200008B50146002000220092009A22F00102F2
:10573000521C0092CA689268009B9A43CB689A6098
:1057400008BD0EB501460020002200920A69926849
:1057500002928A6912680192029AC2F3410232B13E
:10576000012A05D0022A09D0032A0DD101E000BF89
:1057700000BF019A6FF30A02019205E0019A6FF3EC
:105780000A02D21C019200BF00BF019B8A6913600C
:10579000009A22F4807202F5807200920A695268BF
:1057A000009B9A431A430B695A600EBDFEB5024630
:1057B000002000240025029500954D78012D52D13E
:1057C00093691D6802951D6900954D6955B9009D45
:1057D00025F07F050095009D25F4C01505F50025F1
:1057E000009516E08E684D69B54207D98D684D6108
:1057F0000E7A009D66F30605009504E00E7D009D7F
:1058000066F306050095009D25F4C01505F50025F5
:105810000095009D1D61D578012D06D10F7802F10C
:10582000180555F827500E696E61029D25F08065B8
:1058300005F180650295029D25F0004505F10045C2
:105840000295029D1D60D578002D59D14D69002D1E
:1058500056D00E780125B5402C4315696D6B254354
:10586000166975634CE00E7802F1540555F8265020
:105870002D6802950E7802F1540555F826502D69D1
:1058800000954D695DB90E7A009D66F30605009599
:10589000009D25F4C01505F5002500950CE08D68E8
:1058A0004D610E7A009D66F306050095009D25F476
:1058B000C01505F5002500950F7802F1540555F83F
:1058C0002750009E2E61D578012D06D10F7802F168
:1058D000540555F827500E696E61029D25F08065CC
:1058E00005F180650295029D25F0004505F1004512
:1058F00002950F7802F1540555F82750029E2E604C
:10590000FEBD0EB500210191019921F04041A1F1A8
:1059100080410191019921F4C01101F5002101910B
:10592000019921F07F0118310191019A416D0A61BD
:10593000C178012915D10021009100F2CC51426DAE
:105940005161416D09680091009921F0004101F118
:10595000004100914FF080210091009A416D0A6052
:1059600000BF0EBD3CB50246002000240194009407
:105970004C78012C0CD10D7802F1180454F8253024
:105980000D780124AC40009D64F30F0500950BE0F9
:105990000D7802F1540454F825300D780124AC4000
:1059A000009D64F31F4500951C680194019CC4F39D
:1059B000C034E4B90D89019C65F30A040194CD78E3
:1059C000019C65F3934401948D79019C65F399548E
:1059D0000194019C24F0805404F180540194019CB2
:1059E00024F4004404F500440194019C1C601469F3
:1059F000E469009D2C431569EC613CBD38B5034654
:105A00000020002400944C78012C05D10D7803F17E
:105A1000180454F8252004E00D7803F1540454F8D8
:105A2000252014680094009C24F400140094CC7881
:105A3000032C02D0CC78022C05D1009C24F0805499
:105A400004F180540094009C146038BD3CB50246BB
:105A500000200024019400944C78012C0CD10D7886
:105A600002F1180454F825300D780124AC40009D53
:105A700064F30F0500950BE00D7802F1540454F81F
:105A800025300D780124AC40009D64F31F4500953E
:105A9000019C24F400440194019C1C601469E46995
:105AA000009DAC431569EC613CBD38B503460A4620
:105AB0000020002400945478012C18D1157803F1AB
:105AC000180454F825100C680094009CE40F2CB1C5
:105AD000009C24F0804404F180440094009C24F451
